S00F00004442575F4543552E73726563FC
S113000000620220F5020000F1020000F10200008B
S1130010F1020000F1020000F10200000000000003
S1130020000000000000000000000000E184000067
S1130030F1020000000000006D850000CD85000085
S1130040F1020000F1020000F1020000F1020000E0
S1130050F1020000F1020000F1020000F1020000D0
S1130060F1020000F1020000F1020000F1020000C0
S113007035130000F1020000F1020000F10200005B
S1130080F1020000F1020000F10200003D13000043
S1130090F1020000F1020000F1020000F102000090
S11300A0F1020000F1020000F1020000F102000080
S11300B0F1020000F1020000F1020000F102000070
S11300C0F1020000F1020000F1020000F102000060
S11300D0F1020000F1020000F1020000F102000050
S11300E0F1020000F1020000000000000000000026
S11300F00000000079170000F1020000F102000086
S1130100F1020000F1020000F1020000F10200001F
S1130110F1020000F1020000F1020000F10200000F
S1130120F1020000F1020000F1020000F1020000FF
S1130130F1020000F1020000F1020000F1020000EF
S1130140F1020000F1020000F1020000F1020000DF
S1130150F1020000F1020000F1020000F1020000CF
S1130160F1020000F1020000F1020000F1020000BF
S1130170F1020000F1020000F1020000F1020000AF
S1130180F1020000F1020000F1020000F10200009F
S113019065130000F1020000F1020000F10200000A
S11301A0F1020000F1020000F1020000F10200007F
S11301B0F1020000F1020000F1020000F10200006F
S11301C0F1020000F1020000F1020000F10200005F
S11301D0F1020000F1020000F1020000F10200004F
S11301E0F1020000F1020000F1020000F51A000023
S11301F0F1020000F1020000F1020000051B000002
S1130200151B0000F1020000F1020000F1020000E1
S1130210F1020000F1020000F1020000F10200000E
S1130220F1020000F1020000F1020000F1020000FE
S1130230F1020000F1020000F1020000F1020000EE
S1130240F1020000F1020000F1020000F1020000DE
S1130250F1020000F1020000F1020000F1020000CE
S1130260F102000010B5054C237833B9044B13B1E7
S11302700448AFF300800123237010BDC0000020A8
S113028000000000C8BC00000C4B43B10C480D49F1
S113029010B5AFF300800C48036823B910BD0A48B9
S11302A0036833B97047094B002BF7D0BDE8104001
S11302B01847064B002BF5D0184700BF000000007C
S11302C0C8BC0000C4000020C8BC0000000000003E
S11302D010B5044B9847044B9847044BBDE81040B5
S11302E0184700BF7D080000910D0000B583000091
S11302F0FEE7000008B5144A144B9A4218D1144B77
S1130300144A002193421CD3134A144B22F07F0257
S11303109A60D3F8882042F47002C3F88820BFF3AF
S11303204F8FBFF36F8F0E4B98470E4B9847FEE7E6
S11303300D49043A8B42E2D252F8040F43F8040BFD
S1130340F8E743F8041BDDE7C8BC00000000002008
S1130350C0000020006201200000000000ED00E069
S113036019A8000059810000B4000020044B0122A8
S113037010B1C3F898207047C3F89420704700BFA9
S113038000800041044B022210B1C3F8982070474A
S1130390C3F89420704700BF00800041034B8022C3
S11303A008B19A6170475A61704700BF00800041EC
S11303B0084B4FF080414FF4806228B1C3F8181104
S11303C0C3F81421044B1847C3F81411C3F81821B7
S11303D0F8E700BF00800041850300000000000032
S11303E010B507EE900AF5EEC07AF1EE10FA2DED95
S11303F0028BB7EE007A32D4F4EE477AF1EE10FABB
S1130400C8BFF0EE477A77EE677A194B194C17EEAE
S1130410900A984714A3D3E90023A047164B9847A2
S1130420DFED167A164B08EE100A68EE277A4FF4C1
S1130430C871FCEEE77A134817EE902A9847124BDE
S113044010489847B5EEC08A104BF1EE10FA4FF001
S11304504002CCBF9A615A61BDEC028B10BDDFED46
S11304600C7AD0E7AFF30080333333333333E33FD5
S11304701DA20000C5A2000079A700000000C84327
S11304806D1000002829012049100000008000415F
S11304900000000007EE100ADFED097A094B10B5E1
S11304A067EE277A084CFCEEE77A204617EE902A8E
S11304B042F6E06198472046044BBDE810401847D7
S11304C000803B466D100000C82801204910000040
S11304D008B5DFED117A114B2DED028B08EE100AF1
S11304E068EE277A42F6E061FCEEE77A0C4817EEF4
S11304F0902A98470B4B0A489847B5EEC08A0A4B96
S1130500F1EE10FA4FF00202CCBFC3F81821C3F881
S11305101421BDEC028B08BD00803B466D10000029
S1130520F0280120491000000080004130B54A1C29
S1130530C4B2C0F34712164804F01F0300EBC21004
S113054007D1184490F8403003F0FE0380F840309F
S113055030BDC5185B0895F8402002F0FE0218442F
S113056042F0010285F8402090F8303014F0010F79
S113057019BF03F00F0343EA011101F00F0103F067
S1130580F00314BFC9B2194380F8301030BD00BF66
S11305900080004170B51F4B1F4C204E204D40225F
S11305A0C3F890201F4A536943F48063536102F1F6
S11305B00112012302F57842C4F88431C4F8A82159
S11305C0C4F8A861C4F8843194F8C02142F004024C
S11305D084F8C0214FF4C001C4F898316020A847C2
S11305E08023114AC4F88430C4F8A820C4F8A86051
S11305F0C4F8843094F8C72042F0040284F8C72079
S11306004FF41C11C4F898302720A847074BBDE8C5
S113061070401847001C004000800041000002C0E8
S11306202D0500000008004080000240AD0E0000CF
S113063010B5054C05493920A04723460449382004
S1130640BDE81040184700BF2D0500000300390025
S113065003003800064B4022C3F8DC204322C3F8D1
S11306608C20044A936943F400739361704700BF7C
S1130670001C00400008004010B5054B9847054B8E
S11306800549064800229847054BBDE81040184725
S1130690550600000511000000200141E428012056
S11306A0310600000149024B0520184704000500EB
S11306B02D050000044A536943F480435361034BFE
S11306C04022C3F8A420704700080040001C0040EA
S11306D010B5064B9847064B9847064B9847064972
S11306E0064B0246BDE8104005481847B506000011
S11306F0A5060000F11A000000380040291000008F
S1130700F02801200149024B292018470400290040
S11307102D050000044AD36943F02003D361034B41
S11307204022C3F8F820704700080040001C004035
S113073010B5064B9847064B9847064B9847064911
S1130740064B0246BDE8104005481847150700004F
S113075005070000F11A00000014004229100000EF
S1130760282901200149024B2F20184704002F009B
S11307702D050000044AD36943F04003D361034BC1
S11307804022C3F8F820704700080040001C0040D5
S113079010B5064B9847064B9847064B98470649B1
S11307A0064B0246BDE8104005481847750700008F
S11307B065070000F11A000000180042291000002B
S11307C0C828012010B51149114C4B20A0471149EC
S11307D04C20A04710490D20A04710490C20A047E9
S11307E00F495420A0470F490F20A0470E4912205B
S11307F0A0470E491320A0470D490E20A0472346C9
S11308000C491120BDE81040184700BF0B004B00F5
S11308102D0500000B004C000B000D000B000C001C
S11308200B0054000B000F000B0012000B00130010
S11308300B000E000B001100044B1A6942F48042B5
S11308401A61DA6942F00402DA6170470008004074
S113085010B5054B9847054B054906489847064B84
S1130860BDE81040184700BF39080000A10F000080
S1130870000800420C290120C507000010B54C4BAC
S11308804C4C98474C4B40225A619A6002F180428A
S11308909A624FF040429A6293F8461001F0FE01CA
S11308A083F8461080215961996001F18041996271
S11308B09A6293F8471001F0FE0183F84710022171
S11308C0C3F89410C3F88810C3F8A840C3F8A8204C
S11308D093F8C10000F0FE0083F8C1000120C3F8C2
S11308E09400C3F8880000F18040C3F8A800C3F85E
S11308F0A82093F8C00000F0FE0083F8C000C3F8FD
S11309001411C3F80811C3F82841C3F8282193F837
S113091041112A4801F0FE0183F841110821C3F86E
S11309200411C3F828012648C3F82801C3F80411A8
S113093093F8430140F0040083F84301C3F8141111
S113094093F8431101F0FE0183F843114FF48061E1
S1130950C3F81411C3F8081101F18041C3F8281138
S1130960C3F8282193F84A2102F0FE0283F84A21B1
S11309704FF08042C3F81421C3F80821C3F828219A
S1130980104AC3F8282193F85E2102F0FE0283F88E
S11309905E210D4B98470D4B98470D4B98470D4BD7
S11309A098470D4B98470D4BBDE81040184700BFC2
S11309B06D11000002000040008000410800024068
S11309C0000002C0004000C0950500007906000048
S11309D0D106000031070000910700005108000013
S11309E037B50C4D2C6894B921460B4B01A8984798
S11309F001A90A480A4B984721460A4B01A898477F
S1130A0001A8094B9847094B984701232B60002004
S1130A1003B030BDDC000020791C0000599E0000AA
S1130A20DD330000F91C0000911D0000A97F0000C7
S1130A3083889FED477A07EE903AF8EE677A438809
S1130A4077EEC77A2DE9F041C7EE876A0546DFF8ED
S1130A501081404F404E0C4607EE903AC1ED046AB7
S1130A60F8EE677ADFED3D6A038887EEA67A03F035
S1130A7001020A75C3F340024A75C3F380028A7502
S1130A80C3F3C002C3F3001381F8682181F828304E
S1130A90D0ED027A81ED037AF8EE677A17EE900AC8
S1130AA0C04729A3D3E90023B847B047D5ED037A5B
S1130AB0C4F87801F8EE677A17EE900AC04722A3CB
S1130AC0D3E90023B847B047D5ED047AC4F87C01D4
S1130AD0F8EE677A17EE900AC0471BA3D3E9002308
S1130AE0B847B047D5ED057AC4F88001F8EE677AC7
S1130AF017EE900AC04714A3D3E90023B847B047C0
S1130B00D5ED067AC4F86C01F8EE677A17EE900A10
S1130B10C0470DA3D3E90023B847B047C4F8700118
S1130B20E86907EE900AF8EE677A17EE900AC04774
S1130B3005A3D3E90023B847B047C4F87401BDE85E
S1130B40F08100BFAFF300808DEDB5A0F7C6B03ED5
S1130B5000FEFF46C5A2000079A7000000FF7F4702
S1130B601DA20000D1ED077A9FED197AFCEEE77A19
S1130B7070B517EE903AD1ED067A438067EE877A26
S1130B800446FCEEE77A0D4617EE903A038091F89E
S1130B902330104E003318BF01230371D1E94401FF
S1130BA0B047A060D5E94601B047E060D5E9480107
S1130BB0B0472061D5E91E01B0476061D5E9200145
S1130BC0B047A061D5E92201B047E06170BD00BF24
S1130BD00000C84239A700002DE9F04FADB0464EE1
S1130BE0DFF844A1DFF844912022002104460CA838
S1130BF0B0472022002114A8B0472CAD3F4B9847A2
S1130C000221012345F8A43D002208463C4B9847A5
S1130C10042300934FF401722B4640F6FF71394DC3
S1130C2007460DF12008A84710252A460021404612
S1130C30B0474FF0020B4FF0FF308DF821B0D04792
S1130C40099042F63970C8472A460021ADF82200BF
S1130C500DEB05008DF82050B04700208DF811B041
S1130C60D047059042F63A70C8472A46ADF81200BC
S1130C700DEB05013846244B8DF810509847002899
S1130C8036DBDFF8AC90214DDFF8A8A02068002304
S1130C9064221946C847012802D00120A847F5E775
S1130CA0214614A8D047102301932022002314A91D
S1130CB0174ECDF800803846B047402208231CA9BF
S1130CC03846144EB047021E0ADD1CA9124B0CA86C
S1130CD09847124B984721466060114B0CA89847DF
S1130CE000231A46194620680E4EB0470A20D5E75D
S1130CF02DB0BDE8F08F00BFA5A80000E1090000F9
S1130D00ED300000693100005D2D0000BD9500004C
S1130D10A92F0000952F00008FA80000CD9300009C
S1130D20310A0000618B00003134000025340000DA
S1130D30AD8E0000650B00000160828000207047CA
S1130D4037B50C460DF106038188064D0068012273
S1130D50A84720B9BDF80630C3F38003237003B05D
S1130D6030BD00BF0910000010B5054C054B2046EE
S1130D709847214600220448044BBDE81040184718
S1130D800C290120A90F000044290120390D00007D
S1130D90004B1847690D00000E4A08B542610E4B1E
S1130DA00E4A8261622283F82D204FF4C0629A8435
S1130DB00B4A11689288A3F82B20062283F8262078
S1130DC046F66562C3F82710DA85064B984700207B
S1130DD008BD00BFCD7A00004C2901204D1B000046
S1130DE0E0000020251B000030B589B005460E4CFC
S1130DF00E4805A9A04706A90D48A04707A90D4814
S1130E00A0470D4B2A681A60AA889A800B4B02935C
S1130E100B4B01930B4B009306AA07AB05A90A4C95
S1130E200A48A04709B030BDF53A000074B9000083
S1130E3082B9000090B90000E0000020CD7B0000E2
S1130E40990D00000C290120E94500004C290120DE
S1130E50EFF31083036072B6BFF35F8F7047BFF385
S1130E605F8F036883F310887047000070B40E4DE1
S1130E70022100240A195210012AD3B211DC05EB15
S1130E80C2067668864204D155F832304BB170BC44
S1130E90184735BF013303F1FF33DCB2D9B28C42BA
S1130EA0E8D970BC704700BFE8000020054B064835
S1130EB04FF0FF31002259601A60D9609A60034BE9
S1130EC0184700BFE80000206D0E00004912000022
S1130ED0244B5A689042F0B504460CD0DA6890422C
S1130EE00BD1012243F8321001B1012120461E4BDF
S1130EF0BDE8F04018470022F4E781B3186810B148
S1130F009A6862BB0120024643F8301016B203EB24
S1130F10C000D200991844605D684868A84203EB99
S1130F20C60709D2681C07D003C9D3F800E083E8D8
S1130F30030043F836E07D601A44DD685168A94235
S1130F40D3D2691CD1D092E80300DFF820E0D3F8B3
S1130F5008C08EE8030043F836C07D60C5E76FF033
S1130F600C00F0BDE8000020F9120000F0000020A1
S1130F700121014B184700BFF91200000021014B69
S1130F80184700BFF9120000036818474368184760
S1130F90436903B118477047836903B11847704721
S1130FA0004B1847B1130000004B184759140000B8
S1130FB0004B184769140000004B184769150000DE
S1130FC0004B18475D16000010B431B101290DD053
S1130FD06FF00C005DF8044B70474261002A054A2B
S1130FE0054B5DF8044B08BF002218478261002AB4
S1130FF0024AF5E7910F0000B9160000990F0000AE
S1131000004B1847E116000010B4024CA4465DF8EA
S1131010044B604701170000436903B11847704748
S1131020836903B11847704710B5044B04469847C9
S1131030034B2360034B6360002010BD491900007B
S1131040191000002110000038B5064B05469847DA
S1131050044620B92846044B9847204638BD6FF013
S1131060100038BDD91A00006D1A000008B5024BF3
S11310709847002008BD00BF811A00002DE9F843FD
S11310800F4C0F46164600F10805A1462846A04716
S11310900028FBD0DFF830800024395D2846C047A3
S11310A02846C8470028FBD00134B442F5D3054E86
S11310B02846B0470028FBD02046BDE8F88300BF8F
S11310C06B180000751800005D1800002DE9F84346
S11310D0DFF82890DFF828800F461646002400F138
S11310E008052846C8470028FBD02846C04738557D
S11310F00134B442F5D32046BDE8F8837F180000DC
S11311006318000010B5054B04460830984718B919
S1131110034B6360034B236010BD00BF3D18000008
S1131120CD1000007D10000008B50830014B984731
S1131130002008BD49180000044B1968024609B98B
S113114003491960186802441A607047F8000020C7
S1131150006202204FF0FF3070474FF400534B60A1
S113116000207047012070470020704710B5094ADD
S113117013889BB21380084B9847084B9847084B39
S11311809847084B984740F6FF70074BBDE810405E
S1131190184700BF00400041491700005D170000D8
S11311A03D1700007517000045130000F7B51F4BED
S11311B01F4D5A690192019A1E4E5A614FF0FF3732
S11311C0019BCBB903B0F0BD0220002143185B1092
S11311D0DAB215F833E0A6451FD105EBC3035F6807
S11311E07A1C02D0384633689847019B012202FAE0
S11311F004F423EA04040194019B93FAA3F4002B5E
S1131200B4FA84F408BF4FF0FF34631CDCD1074BFD
S11312105A690192019A5A61D2E7B5BF013202F1CB
S1131220FF32D1B2D0B28842D0D2D9E700280040F0
S11312309CB90000FC000020024A53680342FCD120
S1131240704700BF0028004070B52649264D4B6802
S113125013F0010F064611D10320A8470B789B0712
S113126007D50B7803F0FD0303200B70A847022079
S1131270A8471C4B01221A700320A8470120A84745
S113128018490B7803F0EF030B700320A8470024E0
S1131290164B4C708C608C610C634C63CB610C629C
S11312A00B7843F002030B700320A847104B4FF454
S11312B08052C3F88020BFF34F8FBFF36F8FC3F802
S11312C080211A604FF40022C3F88020BFF34F8FAF
S11312D0BFF36F8FC3F880211A60064B20461E604F
S11312E070BD00BF0028004039120000010000104A
S11312F000E100E0FC00002060280ED0272811D176
S113130001230A4A12F83300FF280BD00123084AAC
S1131310834021B11361002070470023F1E7D360BB
S11313205361F8E74FF0FF30704700BF9CB90000ED
S113133000280040004B1847AD110000004B18472F
S1131340AD110000C30707D5044B054A1A6243F6E2
S1131350FD7259681142FCD1704700BF001C004067
S11313600101010013B5114C206803685A69009209
S11313701A6A01925A6A009A92060AD5009A5A6128
S1131380636804EBC303DB7BDB0902D0436803B16E
S11313909847019B9B0703D52068836803B198474E
S11313A02368019A1B681A6202B010BD0001002074
S11313B01023F0B501600B60214B4B600022214BE0
S11313C0CA600B6140F20113C1F8B820C1F8BC3007
S11313D01D4B03F120049C608024DA60DC7303F26B
S11313E0FC541C61C0245A615A60DC75C3F8D82BC4
S11313F003F53E6403F54667154607EB02161651DE
S1131400A6180832802A7560F7D193F8582C186012
S113141042F0020283F8582C0C4A0D4BC2F8685370
S11314200C4ACA614FF480128C61C3F88820BFF360
S11314304F8FBFF36F8F0020C3F888219A60F0BDEF
S1131440030110000407020000010020F81100202D
S113145000E100E0080100200268136843F00C0377
S113146013600020704700002DE9F74F3B4CD4F87F
S1131470D83B04EBC3038046DB7BDB09164613D061
S1131480D4F8D83B04EBC3035B7BDB090CD1D4F861
S1131490D82B531C012B88BF02F1FF3304EBC30389
S11314A0DA7B42F08002DA73636804EBC303DB7B0C
S11314B0DB0950D040F2DC539E420AD96268531CC7
S11314C0012B88BF02F1FF3304EBC303DB7BDB0991
S11314D041D06368C4F8D83BDFF888B0204B0D4690
S11314E001F6B83A40F2DC594E456068019337463C
S11314F028BF4F4629463A4609FB00B09847626820
S1131500019B04EBC202F61BD76001BF626804EBC7
S1131510C202517B41F0800108BF517362680132FD
S113152062606268022A05D100226260E27D42F0B4
S11315304002E2751EB105F2DC555545D4D1BFF326
S11315404F8FD8F80020136843F400731360002011
S113155003B0BDE8F08F6FF01B00F9E70001002035
S11315608FA80000200100202DE9F84F0B463749D1
S1131570374817464FF0FF3500248846D1F86823D2
S113158022440F2A88BF103A00EBC20292F8E06BA3
S1131590F6071ED592F8E56B16F0400F18BF2546E6
S11315A0F60904F1010611D0B5F1FF3F0ED0B2F8EF
S11315B0E42BC2F30C02974228BF17464FF00009F0
S11315C0CA46B2450DD14846BDE8F88F102E3446C0
S11315D0D4D16A1C01D1264600E02E464FF0FF34D8
S11315E0ECE7611C17D0AA4515D3A24513D897B1CF
S11315F0802FD8F868131748BB4628BF4FF0800BDC
S113160000EBC1115A461846134B984703465B44F6
S1131610D944A7EB0B07D8F868230D4901EBC202A4
S11316200AF1010A92F8E01B6FF3000182F8E01B53
S1131630D8F868230132C8F86823D8F86823102A38
S113164004BF0022C8F86823BBE700BFF8110020DC
S113165000010020600D00208FA80000F0B5144C9C
S1131660144F0020014602462546D7F86833134438
S11316700F2B88BF103BDB00E61896F8E0EB1EF05A
S1131680010F13D096F8E56B760600D431B1E91852
S1131690B1F8E41BC1F30C01084401212B4493F875
S11316A0E53BDB0902D10132102ADED1F0BD00BFD7
S11316B000010020F811002051B101290DD1426030
S11316C00368802112B1996200207047D962FBE758
S11316D00368826002209862F6E76FF00C0070479E
S11316E0036810B503EBC1001468C0F888402A31C0
S11316F09488D288C0F88C4043F82120002010BD83
S113170010B50068920402F4F802046842F0C04282
S1131710C90542F4003201F0786144F010040A4330
S11317200460426382685207FCD5426B1A800368E6
S113173023F010030360002010BD0000014B0122C0
S11317405A71704700080040034BDA6902F47C5276
S1131750DA6101221A74704700140040034B044AF2
S11317609A611A699207FCD5704700BF00100040C7
S1131770062600037047000007B50C4A9378DBB2D5
S11317800193019B990707D5094B1B6823B1506846
S1131790984703B05DF804FB019BDB07F9D5044BC4
S11317A05B68002BF5D0014AF1E700BF000002415D
S11317B080290120C3690B42FCD17047036823F0E0
S11317C0020303600321014B184700BFB517000053
S11317D010B5C369154C13F0010F02460DD1032156
S11317E0A04703689B0703D5114B98470221A047E4
S11317F00523136003211046A04710460121A0478A
S11318000C4B136010460321A0474FF44033536040
S113181010461F21A047084B936000204FF6B943A0
S11318209381907382F8300010BD00BFB51700009B
S1131830BD17000004001040020070000160014B5D
S113184008461847D11700000068036843F00203F4
S113185003600321004B1847B51700000368996221
S113186070470368986AC0B270470368187E00F036
S1131870010070470368187EC0F340007047036896
S1131880187EC0F38000704700280DDB4309012255
S113189000F01F0002FA00F02033044A42F823004B
S11318A0BFF34F8FBFF36F8F704700BF00E100E0BD
S11318B003690B42FCD1704770B50569AB7ADA074E
S11318C0044604D50123AB72036803B198476B7ACD
S11318D09B0707D50223AB7263681BB12046BDE8A2
S11318E07040184770BD000070B5154D06460FCD09
S11318F088B06C460FC495E80F0084E80F000023FD
S11319005DF82320B2420FD1DBB20E4A117899421E
S11319100FD0117D99420ED092F828209A420CD112
S1131920022040B208B070BD0133082BE8D1002377
S1131930EBE70020F5E70120F3E74FF0FF30F1E794
S1131940ACB90000000000202DE9F84380460C46A5
S11319503E4B08469847C8F8104023693C4A13F0A8
S1131960010F074614D103212046904723689B07A3
S113197009D5236823F002030321204623609047FE
S113198002212046904701232360032120469047EB
S1131990DFF8D490142505FB0795012120469047D4
S11319A06E682660032120469047AB7AE37306F005
S11319B00C062B89E380082E4FF00303237329D1EF
S11319C0EB68E361C021204690472B692362C02164
S11319D0204690471F4B9C4225D11F4BC3F80080E3
S11319E0142303FB07971D4BB7F9021008469847C9
S11319F000290CDB01F01F024909890001F1604153
S1131A0001F5614101239340C1F880310B6000204E
S1131A10BDE8F883AEB9AB89A383C02120469047C3
S1131A202B8AE383D3E70E4B9C4203D10A4BC3F8C2
S1131A300480D5E70B4B9C4204BF074BC3F80880D6
S1131A40CEE74FF0FF30BDE8F88300BFE91800008F
S1131A50B118000000380040641500208918000007
S1131A6000140042001800420000002000690368CE
S1131A7043F0020303600321004B1847B118000030
S1131A8070B50469114B204615460E469847104A16
S1131A90142303FB00200F4A4368C66003F00C03C1
S1131AA0082B056109D1E661C021204690472562D3
S1131AB02046C021BDE870401047B6B2A683C021BD
S1131AC02046ADB29047E583F2E700BFE918000075
S1131AD000000020B1180000026908B51046032177
S1131AE0024B98471068C0F3400008BDB1180000CD
S1131AF000207047014B1868014B184764150020FB
S1131B00B9180000014B5868014B184764150020B0
S1131B10B9180000014B9868014B18476415002060
S1131B20B91800001FB50346046A53F8270F019043
S1131B309B88ADF80830002101AA2046024B8DF89D
S1131B400C10984704B010BD011000002DE9F843B3
S1131B500C46D0F820801B4E6FF001012046B047A0
S1131B6020896289824209D16168174B40469847AF
S1131B7002212046B0470020BDE8F883C31C4FF67D
S1131B80FC701840114B98470746B0B1DFF84490F9
S1131B90034625466A8969681846C8476A892D68D4
S1131BA003461344002DF5D12289074B394640469C
S1131BB098473846064B9847DAE74FF0FF30BDE8C0
S1131BC0F88300BF2B470000B10F0000154400004C
S1131BD0B14200008FA800002DE9F047DFF88080B3
S1131BE0DFF880901B4F05462E6A3046C04780B20E
S1131BF070B3811C002289B20320C847044600B395
S1131C006FF00101DFF860A0D04762896168304657
S1131C10B84702212046D0476368D8890E4B9847BD
S1131C20B0F5006F03D040F60603984205D12B6946
S1131C302946204698470028D6D02046074B984787
S1131C40D2E7024601463B463046BDE8F047184716
S1131C50BDE8F087B90F0000253400008547000077
S1131C60C10F0000DD4700002B470000014B00229C
S1131C701A8070477015002070B50C460546F0B107
S1131C80104B98470322002101200F4B98472860EE
S1131C9020B100231A4619460C4EB047286848B1B3
S1131CA05CB9234601222146094DA847094B9847B0
S1131CB0204670BD4FF0FF34F8E70024F6E74FF0FC
S1131CC0FF34F5E701850000A98A0000618B00005C
S1131CD0AD8E00004585000010B440B1054C00688D
S1131CE00023A4461A4619465DF8044B60475DF884
S1131CF0044B7047618B00002DE9F041884606468D
S1131D0018B94FF0FF30BDE8F0810F4D0F4F89B97E
S1131D10A8470446002342F2107219463068B847B7
S1131D200028F7D0A847844288BF00F1FF30001B89
S1131D30BDE8F081A84700230446424619463068AE
S1131D40B8470028DDD0EDE7CD930000AD8E00004C
S1131D5000687047002303607047000010B50B460D
S1131D60044638B1002204211846044B98472060E9
S1131D70002010BD4FF0FF3010BD00BFA98A000045
S1131D8018B1006808B1014B184770477190000002
S1131D90004B1847811D000037B50446019140B13E
S1131DA0054D2068002342F2107201A9A8470128BA
S1131DB0F7D103B030BD00BF618B00001FB50191A6
S1131DC030B3154B5B68C3F30803BBB104AA00230B
S1131DD042F8043D01A90068104CA047039BB0FAE7
S1131DE080F0400940423BB10D4B4FF080521A60E5
S1131DF0BFF34F8FBFF36F8F04B010BD1A4601A914
S1131E000068084CA047B0FA80F040094042F3E76C
S1131E104FF0FF30F0E700BF00ED00E0098D000057
S1131E2004ED00E0618B00002DE9F7430D46914677
S1131E30074620B301B901AD124EDFF84C80B9F169
S1131E40000F12D1B0470446002342F21072294613
S1131E503868C0470028F7D0B047844288BF00F1F3
S1131E60FF30001B03B0BDE8F083B04700230446F5
S1131E704A4629463868C0470028EDD128604FF00B
S1131E80FF30EFE7CD930000AD8E000013B560B1D5
S1131E9001B901A900231A460068054CA047B0FA0D
S1131EA080F04009404202B010BD4FF0FF30FAE725
S1131EB0AD8E000000687047002303607047000087
S1131EC030B587B00D4699B205AB002401930A9B47
S1131ED000930394134602940A4601462846064D8D
S1131EE0A84701280ABF054A05941388059804BF2A
S1131EF00133138007B030BDF99200007015002043
S1131F00F0B589B00026044601960D4601B9FEE7F6
S1131F100E6000B9FEE700F1100738461F4B9847E2
S1131F2000B9FEE794F9080010F1090F30DB1C4BEF
S1131F30324601A9384698472378102B019B29D1B2
S1131F40227F120700D543B9164A02920394A3B123
S1131F501B89059302A8144B9847019A7AB9A36A7E
S1131F6013B101212046984794F90830093301DB65
S1131F70F42323726FF00B000AE00123E9E71289CE
S1131F80A36A13B1012120469847019B2B600020CE
S1131F9009B0F0BD1B681A89F2E700BFB51E000046
S1131FA0291E0000ED2900009533000030B5104BC8
S1131FB087B00D46114698470446A8B10D4B0093CF
S1131FC001900D4B8DF80C506846984760B104F1B0
S1131FD00C000A4B984704F11000094B984721461E
S1131FE00720084B98470024204607B030BD00BFA7
S1131FF035270000B926000095330000911D00002C
S1132000811D00005945000010B5044686B040B15A
S1132010054B68468DE81800044B98472046044B4E
S11320209847002006B010BD9D280000953300009D
S1132030AD27000010B5044686B000B9FEE701B92B
S1132040FEE702B9FEE708488DF814308DE8110068
S1132050064B039168460492984794F90830093373
S1132060A8BF207206B010BD792A00009533000085
S113207010B5044686B000B9FEE7084B03918DE81D
S113208018006846064BADF81020984794F90830BC
S11320900933A8BF207206B010BD00BF3529000067
S11320A09533000010B10378102B00D0FEE7014BEC
S11320B0184700BF011F000073B504460E4601B95E
S11320C0FEE700250D6000B9FEE71030174B984776
S11320D000B9FEE72378102B22D10620144B01957A
S11320E09847054640B994F90830093301DBFF23CA
S11320F023724FF0FF3409E0204601A90D4B9847A5
S1132100044630B1294606200B4B9847204602B0BE
S113211070BD019B2B606B60A881A8603560F5E7FA
S113212020463146034B98470446EFE7B51E0000AE
S113213039450000011F0000594500007FB560B11A
S11321400378102B09D1037F1B0706D5044B00939A
S11321500190044B03916846984707B05DF804FB6F
S1132160ED2900009533000010B5044686B000B98F
S1132170FEE7074B03918DE818006846054B984726
S113218094F908300933A8BF207206B010BD00BF0F
S11321908D29000095330000F0B587B015460C9EDC
S11321A0044600B9FEE70278102A00D0FEE7FDB12C
S11321B0027F920702D413F0040701D0D6B101279D
S11321C00E4A8DF8143068460D4B03918DE81400C7
S11321D00495984718B916B147B1049B336094F934
S11321E00830093300DB207207B0F0BD3560F6E734
S11321F02846F9E76FF00500F6E700BF352A00002E
S1132200953300002DE9F04104460022426021721A
S1132210836A457842700F460BB104219847A36A3C
S11322201BB10022114620469847A36A1BB1002225
S113223002212046984704F110084046134EB04747
S113224018B100214046124B984704F11408404647
S1132250B04718B1002140460D4B9847012D02D0DC
S1132260033D012D0FD8237F23F0040213F0040350
S1132270227708D1626A177104F10C006362054B7E
S1132280BDE8F0411847BDE8F08100BFB51E00006D
S1132290BD1D0000D91C00002DE9F04717461D465E
S11322A0BDF82090064628B100F110084046154BB1
S11322B0984720B93846144BBDE8F0471847062024
S11322C0124B984704460028F4D00760476005B1D4
S11322D02D68A5602146A4F80C9040460C4B3D891E
S11322E09847014620B120460A4BBDE8F0471847FD
S11322F0B36A23B12A463046BDE8F0471847BDE823
S1132300F08700BFB51E0000854700003945000076
S1132310BD1D0000D52A000010B544680B4B0146D2
S11323202046984720460A490A4B984720460A49BE
S11323300A4B984720460A490A4B042298472046EC
S113234009490A4BBDE81040184700BF3D4C000046
S113235039260000414C0000E5250000474C0000F0
S113236091250000554C0000052200004B4C000054
S1132370F8B50446037F406A256AC268816813F091
S1132380020F08BF077C037C6068A2EB05020CBF48
S1132390C7F3800701272944B2F5803FB0F866509F
S11323A02ABF4FF6FF7292B243F00203AA423AD90F
S11323B0002F35D0002D38D02E4E2A46B047431C6E
S11323C0DBB2012B064650D8002F31D0636ADB689C
S11323D09D422DD2A36A1BB12A4603212046984769
S11323E0237F43F010032377002E36D1236A1D4444
S11323F0636A2562DA689542324600D05FB3DD60D5
S11324002262012560681C4B984765B3636A1E719C
S113241000236362637004F10C00184B984722E0B8
S113242043F00203C8E71546C6E76FF00606CDE79A
S11324306368B3F8661040F66732914203D9B3F883
S11324406830042BD0D9A36A002BCDD02A460321AF
S113245020469847C8E73546D4E7731C05D127B909
S11324606068054B98470020F8BD636A0022DA6073
S1132470CCE700BF816700003D6C0000D91C000060
S11324802DE9F041436A1D7A032D044605F0010746
S113249005F0020603D100214068314B984760687B
S11324A0037E012B0AD100212E4B9847032D1DD00A
S11324B03246394660682C4B98471AE037B1002100
S11324C02A4B984700216068264B98471EB100218B
S11324D06068274B9847032DEAD100216068254B9B
S11324E00422984700216068234B98476068234B77
S11324F0984710BB636A032D1871606260700DD138
S1132500A36A60601BB10246042120469847A36A6F
S11325106BB1002211462046984701E0002FF6D106
S11325202EB1A36A1BB1002202212046984704F170
S11325300C00134BBDE8F0411847606811490C4B7F
S11325409847606810490B4B0422984760680F490C
S1132550094B984721466068014BBDE8F041184794
S11325603D4C0000514C0000D1520000414C000091
S1132570474C0000554C00004B4C000079510000C2
S1132580D91C0000E525000091250000052200006B
S11325904378012B10B504461BD1104B9847237F79
S11325A0DA0614D5626892B1B2F8660040F6673173
S11325B088420CD9B2F86820042A08D823F0100302
S11325C02377A36A1BB100220221204698470020EA
S11325D010BD042BE3D1024B9847E0E771230000C0
S11325E08124000038B54378012B0446154619D1DF
S11325F00F4B984763689BB1B3F8661040F6673297
S113260091420DD9B3F86830042B09D8237F23F005
S113261010032377A36A1BB12A4602212046984758
S1132620002038BD042BE5D1024B9847E2E700BFF8
S113263071230000812400002DE9F84389461546E2
S11326401F46064650B300F110084046164B984703
S1132650044660B91DB900242046BDE8F883484605
S11326602989124B98472846114B9847F4E796F965
S113267008300933A8BF377275B12F890D4B29462D
S113268040469847044660B9B36A002BE3D001463C
S11326903A4630469847DFE72F46EFE76FF00504E8
S11326A0DAE74FF0FF34D7E7B51E0000914B000086
S11326B085470000BD1D000070B500230568037147
S11326C06B680446BBB92B7803F0F003102B18D0C9
S11326D0202B20D1114B984768602268506810B9AC
S11326E0FF23237107E013780D49222B04BF012334
S11326F003740C4B984720680B4B0C30BDE87040BA
S113270018470A4B9847686020684368002BE7D055
S1132710074B9847EFE7FA23E3E700BF2977000068
S113272099220000F1760000D91C00001555000024
S113273019230000F8B50546164B07200F469847A5
S1132740044620B3002100F10C06017205704160BB
S1132750114B3046984740B9102160180F4B9847E9
S1132760054640B130460E4B9847214607200D4B95
S1132770984700240BE00C4B04F1140098474FF0E9
S1132780FF336570A361A7626562256225772046E1
S1132790F8BD00BF39450000791C00005D1D000034
S11327A0911D000059450000B91E000070B500F1EC
S11327B00C050446054B284698472846044B984781
S11327C021460720034BBDE870401847911D0000C7
S11327D0551D0000594500002DE9F34700F110058F
S11327E00446254F2846B84710BB14342046B84742
S11327F000283BD102B0BDE8F0872378102B14D118
S1132800019E36B1606810B131891C4B984730463F
S1132810D04701A92846C0470130EED12846184BBD
S113282098472846174B9847DFE70198C847F0E7D1
S1132830DFF85480DFF85890DFF858A0E9E7019DED
S11328402846FFF7C9FF686810B1B84700236B60DA
S11328502846C04701A92046B0470130EFD12046A1
S1132860074B98472046074B9847C3E7064E074F48
S1132870DFF82480EEE700BFB51E0000914B000096
S1132880811D0000B91E00008D1E0000D5530000FC
S1132890D52A000085470000AD27000010B5044686
S11328A00068437883B1023B012B0DD9FB232371CC
S11328B020681B4B0C309847002830D02068194BF7
S11328C00C30BDE810401847174B984723685868E8
S11328D068B11A7802F0F002102A16D0202A03D127
S11328E00023C361114B9847236800225A60206873
S11328F0836A13B10022114698472068836A002B2B
S1132900D6D0002202219847D2E704225A7003222B
S1132910227218465C62064BBDE81040184710BD91
S1132920511D0000D91C0000D9270000F9760000D1
S11329308124000010B5036893F9082012F1090FEF
S1132940044606DA027120680D4B0C30BDE81040D5
S11329501847FA22027158680028F4D01B7803F053
S1132960F003102B07D0202BEDD1A289A168054BD1
S113297098472071E7E7A289A168034BF8E700BFF5
S1132980D91C000001750000E14A000070B503681D
S113299093F9082012F1090F044606DA027120683F
S11329A00F4B0C30BDE870401847F3220271586891
S11329B00028F4D01B7803F0F003202BEFD1A1689A
S11329C011F1080201D08B6823B90968054B9847B7
S11329D02071E4E78B89044D0968A847F8E700BF34
S11329E0D91C0000D9760000A57600002DE9F0413D
S11329F00023037103685A6804462AB920680B4B04
S1132A000C30BDE8F04118471B78102BF6D18568CF
S1132A10074F4FF6FF78454523682E4628BF4646A4
S1132A20B1B25868B847AD1BF5D1E7E7D91C00002F
S1132A30914B00000346006890F9082012F1090F39
S1132A4003DA1A710C300A4B18470278102A0DD198
S1132A5042780AB1FB22F4E7416829B101214362BB
S1132A6041700262034B1847F322EAE7FA22E8E7CF
S1132A70D91C00007123000030B401684B68BBB15D
S1132A80047C82687CB11D681560002202710A789A
S1132A9002F0F002102A15D0202A0BD12CB1C26802
S1132AA05B8A138006E05D68EEE71A7C520706D461
S1132AB0F323037101F10C00054B30BC1847C268C5
S1132AC09B8AEEE7C2680CB15B8BEAE79B8BE8E775
S1132AD0D91C000010B5044660B1006820B1064B53
S1132AE0984700236360236021460620034BBDE81A
S1132AF01040184710BD00BF85470000594500002D
S1132B0010B5044600B9FEE7006808B1024B9847C7
S1132B1000236360236010BD8547000070B50E4636
S1132B201546044600B9FEE7006808B1094B98470A
S1132B30002102220846084B9847206018B96060BB
S1132B404FF0FF3070BD4660058145816060002014
S1132B5070BD00BF85470000DD470000032808D88A
S1132B601823054A4343D018D358002B08BF00202C
S1132B7070470020704700BF74150020F0B5124C58
S1132B8000231826A64606FB03F73D59B5B902787B
S1132B90E051E619102A7560358175810CD1003138
S1132BA018BF0121182202FB03E291810021D18187
S1132BB0116151611846F0BD0121F3E70133042B83
S1132BC0E1D14FF0FF33F5E7741500202DE9F84FFC
S1132BD038B38569002D04DA19BB013D8561BDE870
S1132BE0F88F28462E4B98470446D0B1042907D8BD
S1132BF0DFE801F003191C1F2100438901336381BD
S1132C00636973B1DFF89C80DFF89CB06F0901261B
S1132C1005F01F05AE40C146D8F860504FF0010AD8
S1132C2065B9BDE8F88F4389013BE8E70123A38137
S1132C30E6E70023FBE70123C381E1E76B69FBB906
S1132C40B4F90A20002A07DDAA682AB152F827300D
S1132C501E4214BF01230023A28942B13BB9EA6892
S1132C602AB152F827301E4214BF01230023E289FF
S1132C7072B17BB92B691BB153F827301E4209D1BD
S1132C80D9F86420D9F864309A42C5D12D68C7E7D1
S1132C90002BF5D0C5F814A005F11800D847EFE7CC
S1132CA05D2B000074150020D91C000030B482682C
S1132CB00468C16840682368062835D040F6FF756B
S1132CC0A84208D0A8B9012A2AD0022A11D15B68E7
S1132CD00A689A720DE0202A05D041F20A00824265
S1132CE011D0082A05D1096841B159680B7A1A43F1
S1132CF00A722068174B0C3030BC184759680B7A9D
S1132D0023EA0202F4E70A682AB15A68137C43F002
S1132D1001031374EDE75A68137C23F00103F8E709
S1132D205B680A685A72E4E7012A06D0022AE0D1F5
S1132D305B680A68C3F89020DBE70A682AB15A681E
S1132D40937F43F040039377D3E75A68937F23F04C
S1132D504003F8E7D91C00007047000073B5144B1A
S1132D60154698470446E8B1102D04D14B78022B40
S1132D7001D18B0700D0FEE702AD4B6845F8043D56
S1132D8006680C4B48889847294602460A4B304649
S1132D90984750B140420F2896BF084B052353F87B
S1132DA0203023614FF0FF3000E0206102B070BD9D
S1132DB05D2B00002B34000071200000CCB9000012
S1132DC02DE9F04F8BB09A460025664B0191904651
S1132DD004959847044600285AD06368002B44D0D1
S1132DE00493236801991B78102B049B14BFD3F818
S1132DF0009099462389B9F80860F61AB2B2904552
S1132E00009288BF009F584E98BF1FFA88F7294444
S1132E103A464846B04720680378102B3D446BD1AE
S1132E20B8EB070868D099F80D20D20764D4B4F938
S1132E300A20002A60DD1AF001095DD11AF0010FA1
S1132E400CD123681B78102B4AD1009AD61B002E74
S1132E5046DD049B636023891F442781B9F1000F79
S1132E60BBD075B9002323612CE01AF0080F03D1FD
S1132E7023681B7F99070ED5B4F90A30002B0ADCAE
S1132E8025B129462068394B9847EBE70B2323618A
S1132E904FF0FF3516E020680378102B0CBF344B3D
S1132EA0344B04A9984788B1002DEAD143420F2B33
S1132EB096BF314A052352F8233023610C3018BFE2
S1132EC00120454228460BB0BDE8F08F049B6360A7
S1132ED087E7049B03F108099B89ADF80E301BE0DA
S1132EE00022102B62602281049802D1234B984760
S1132EF0B4E7234B9847B1E7149A002A2ED0159AC9
S1132F0062B3102BE5D1DFF8889000230DF10E0297
S1132F1005A9C8470DF114094FF0100B5A460021BA
S1132F20184B06A8984702238DF81930BDF80E00F7
S1132F30154B8DF818B09847D9F800300793159BB6
S1132F40ADF81A001B6814985B4584BF159BC3F841
S1132F5000B0159B06A91A680C4B98474FF001095D
S1132F606CE700BF5D2B0000314A00003D210000EA
S1132F70A5200000B9200000CCB90000854700005E
S1132F80D52A0000A5A80000253400008FA8000061
S1132F903520000013B5002401940094014CA0478F
S1132FA002B010BDC12D00002DE9F04385B0994653
S1132FB0264B0C9C80460F4615460D9998470646AD
S1132FC020B94FF0FF3005B0BDE8F08303681B78EB
S1132FD0102B06D14B462A46394640461C4CA04786
S1132FE0F1E704B939B1102904D16378022B01D176
S1132FF0A30700D0FEE70023019300930CB363689A
S113300002936088134B9847ADF80C00AAB2394676
S11330106846114B9847044620B9694630680F4BFF
S1133020984704460E4B6846984763420F2B96BF59
S11330300C4A052352F823303361002CC1D1A8B2C5
S1133040C1E70294ADF80C40E0E700BF5D2B00003F
S1133050693000002B3400001D2B000069210000A2
S1133060012B0000CCB90000F0B51D4685B01B4B08
S1133070074616469847044618B94FF0FF3005B086
S1133080F0BD00680378102B08D00023019300934F
S113309032462B463846124CA047F0E715F0100F85
S11330A014BF0322012215F0080F04AD4FF00007EE
S11330B045F8047D14BF04230023134300953246CE
S11330C0084DA84743420F2B96BF074A052352F8E1
S11330D0233023610028D0D10398D0E75D2B000072
S11330E0A92F000099210000CCB90000022938B5AD
S11330F0134621D003290BD0012906D1164A174BB8
S11331000021102098470446F0B94FF0FF3511E034
S1133110114AD9B24020114B984704460028F4D0F4
S11331200F4B002120469847431C054611D12046E9
S11331300C4B9847284638BD882A4FF00001064AB0
S11331400CBF21202020E6E7037F43F00803037728
S1133150E6E7A061EEE700BFCD2B0000AD1F000045
S11331607D2B00000920000070B51E4686B0304B50
S113317015469847044610B12EB90E2303614FF04B
S1133180FF3006B070BD062940D040F6FF73994267
S113319005D011B96B1E012B09D95C2034E0202D18
S11331A005D041F20A039D421FD0082DF5D10A9B98
S11331B0032B38D90AAB019102950493002501220F
S11331C069461C4B1C48009403968DF8145098478C
S11331D020681A4B29460C3098479DF91400206149
S11331E0401B18BF01204042CBE70A9B032B2368F6
S11331F01A788CBF00201620202A12D15B681B7C11
S11332009B070ED40028D5D02061B8E70A9B032B76
S113321009D903681B78102B07D16B1E012BBCD86E
S1133220C8E76120F0E71620EEE70020A9E700BF19
S11332305D2B000031330000AD2C0000F91C0000B0
S113324007B51E4A13680BB1506898471C4E1D4DB4
S11332501D4C01A93046A847019B1A78052AF8D8C5
S1133260DFE802F00308161E232798680368043079
S11332709847EEE7D968986891F82D2012F0600F0E
S113328014BF124B124B984701990920A047E0E75D
S113329003F1080007C80F4B984701990820F5E788
S11332A01969D8680C4B9847F7E79A68D86890472B
S11332B0F3E79A68D8689047CBE700BFDC15002095
S11332C0E41500202973000059450000CD7B00005F
S11332D0FD37000091710000DD72000070B50F4BE6
S11332E006460F480D469847A0B109200D4B984754
S11332F0044660B1012303708660C56001460A4B31
S11333000748984728B121460920084B98474FF0B1
S1133310FF3070BD6FF0050070BD00BFB51E00002A
S1133320E415002039450000BD1D0000594500008A
S1133330F8B50746114B12480E4615469847C8B1D2
S11333400820104B9847044688B104230370876013
S1133350C66001460A481DB10B4B98470020F8BDD2
S11333600A4B984728B121460820094B98474FF04B
S1133370FF30F8BD6FF00500F8BD00BFB51E0000BA
S1133380E415002039450000991D0000BD1D000012
S11333905945000030B50D4B87B004460C4898479A
S11333A080B1002501A90A480A4B8DF80450039402
S11333B098476068084B29460C30984794F90800F0
S11333C007B030BD6FF00500FAE700BFB51E00007E
S11333D0E4150020991D0000F91C000037B50B4BC3
S11333E005460C4698470A480A4B0560446010217C
S11333F0083098470123009300224FF48363064961
S1133400064C0748A04703B030BD00BF3D34000060
S1133410DC1500205D1D000041320000C11E0000CB
S11334200CBA000040BA80B2704740BA80B270470C
S113343000BA7047004B18473134000010B5094BEF
S11334409847094B9847094B9847094B9847094BAC
S11334509847094B9847094B9847094BBDE81040DA
S1133460184700BF6D1C000075420000E5440000D1
S113347071450000592D000095730000DD4A0000DD
S1133480697200002DE9FF4104468846164624214E
S113349000220120194B9847054658B32768446811
S11334A0002323716371A371E37184F80080667053
S11334B03B4604F1080207F11C0153F8040B42F8DF
S11334C0040B8B42F9D10026A670E67069890C4B77
S11334D02046984704AA6080FB6842F8043D012313
S11334E001930096FF2331462846064CA047284600
S11334F0054B984704B0BDE8F08100BFDD470000EC
S113350065370000813A0000854700002DE9F04F3F
S11335104668464F3578DFF8388105F00F05AD0071
S1133520C5F1000B0FFA8BFB87B089465946044658
S1133530B847B0B92389032B13D963681B78082BC8
S11335400FD1DFF804A13A4ADAF80000494600F046
S1133550F00305939047CDF810A010B9059BE02B1C
S113356005D12046434607B0BDE8F04F18472389EC
S1133570072BF6D920462F4B98470028F1D1242158
S113358020462DB2B847002849D029462046B847DE
S113359002460028E5D12189274B0220984782461C
S11335A00028DED02146254A90470028D9D1594623
S11335B05046DAF80460B8470028D2D12046C04704
S11335C05446049B62681B68F3601D4B1B6833619F
S11335D00023137053884FF6F6718B428CBF093366
S11335E0083353804FF0FF0A0023B372F37214219F
S11335F0144B86F808A03046984729467081204627
S1133600B84702460028ACD101238DE80C00CDF860
S1133610089053460C490D4D2046A847A1E76FF08A
S113362023012046B84700289BD1CAE72B47000056
S1133630C13A000075370000DD47000099490000D9
S11336409029012065370000982901208539000060
S1133650854700000A4604300321014B184700BF88
S1133660853400000A4604300B21014B184700BF83
S11336708534000013B5002310F00102ADF80630C4
S11336801FD0994224DD431C00788DF807000139CE
S11336900020012917DC02D11B788DF80630BDF813
S11336A00630034498B200EB134398B200EB134086
S11336B022B103029BB2C0F30720184380B202B0C8
S11336C010BD0346E4E733F8024B02392044E0E737
S11336D01846E4E72DE9F0470025DFF884A0064604
S11336E0884691461F462C461EBB25B1210289B24D
S11336F0C4F307240C43D9F80020D8F80030174D40
S1133700100C10FA82F010FA83F000EB134004441A
S11337103846A8470444BDF82000A847204484B292
S113372004EB1044A0B200EB1440C04380B2BDE8E7
S1133730F08771897068D04773890444A0B2DB07AD
S113374000EB144407D52302C5F101059BB2C4F371
S11337500724EDB21C433668C6E700BF25340000D9
S11337607536000008B5024B9847C04380B208BDC7
S113377075360000F8B50025104F06462C4646B9AC
S113378025B123029BB2C4F307241C43E04380B257
S1133790F8BD71897068B8477389204484B2DB0727
S11337A004EB104407D52302C5F101059BB2C4F311
S11337B00724EDB21C433668E1E700BF753600000C
S11337C00C4B1B684BB90C4A126882B192F82D104D
S11337D011F0010F18BF134609E093F82D20D2070A
S11337E0EFD5596802684A4099680A42E9D11846F7
S11337F0704700BFB4610120B86101202DE9F74F83
S1133800466835782B09042B04460F4606D020461B
S11338104D4B9847002003B0BDE8F08F4B4B7088A8
S1133820984705F00F056389AD00AB428046EED39F
S113383023898342EBD329463046454B98470028D9
S1133840E5D14146434BDFF838B120469847424A18
S113385033691360414BF16819609946404B3D460A
S11338604FF0010A904695F82D20D20704D4BAF1FE
S1133870000F39D12D6839E06A68002AF7D0D8F8EA
S11338800000824205D0294601939847019B0028F5
S1133890EDD03946D9F80000DFF8C4B0D847002885
S11338A0B5D1D9F8003003F0F003E02BAFD0002DF0
S11338B0ADD0F38823F0C00333B12046294B984799
S11338C004460028A6D04668737A274A274D176015
S11338D0062B2E6092461ED0112B0FD0012B1ED129
S11338E039462046224B0CE0DBF80050BD4208BFAD
S11338F02D684FF0000A002DB5D1CAE71D4B39469B
S1133900204698470023CAF800302B60C9F80030DD
S1133910C8F800307EE739462046174BF1E73946B0
S1133920D8F80000D84750B9D8F8003003F0F003B5
S1133930E02B04D0666002212046104B98472046B5
S1133940014B9847DEE700BF854700002B34000099
S113395065370000F54800009829012090290120CE
S1133960C13A0000F13D0000942901209C29012066
S11339700D35000099730000DD5D00005536000030
S1133980B46101202DE9F04F87B01C469DF8443006
S11339909DF84080029307468B46DDF84890164612
S11339A0002A55D01421324A9047019000285BD157
S11339B07D68029B2C726B723068286181B24FEA79
S11339C0104A452085F8018028704FEA082848EA03
S11339D0000844EA03243889264B0391029398474C
S11339E0019AAA71EA71244A6880029B01924444B4
S11339F0804610889847019AA88013880399013358
S1133A001380BBF1000F02D0DBF800300BB9D9F8FA
S1133A100430EB60EB6814FA83F404EB13442144A0
S1133A208A44C244504483B203EB104000EB10407C
S1133A30C0436881B9F8243083B13A899A420DD9D8
S1133A400E4B324649463846984707B0BDE8F08FDA
S1133A50436806AE1B6946F8043DEBE7D9F8143019
S1133A60324639464846EFE76FF00100EDE700BF04
S1133A702B47000025340000E8150020D940000041
S1133A80F0B5054685B01F4610460B4B0E4614464E
S1133A90984770B19DF82C3001939DF8283002901E
S1133AA0009322463B4631462846044CA04705B0C5
S1133AB0F0BD6FF00300FAE7C1370000853900005C
S1133AC0431E033311D891F82D3013F002030ED0A6
S1133AD04A6890420BD08B6842401A4207D1DB43BC
S1133AE083430CBF01200020704701207047002051
S1133AF0704700002DE9FF4103780C466A466F4683
S1133B000DF10C0EA3F1300109296FD8302B18D117
S1133B10437803F0DF0158290DBF8378013008266C
S1133B20023008BF1026451C0020A3F130010929EA
S1133B3005F1FF3807D800FB063030382B78013503
S1133B40F3E70A26EFE7102E14D123F020014139C0
S1133B50C9B2A3F1610C05295FFA8CFC0AD8BCF147
S1133B601A0F03F10A0334BF612141215B1A43EAAE
S1133B700010E3E72E2B08D1724537D042F8040B2E
S1133B8098F8013008F10100BCE713F0DF0F02D010
S1133B90093B042B2AD8D21B92100132042A0AD8DA
S1133BA0DFE802F02509030F1900B0F1807F1DD270
S1133BB0009B40EA036014B10F4B98472060012238
S1133BC015E0B0F5803F11D2019B009A1B0443EA33
S1133BD002631843EFE7FF2808D8019B009A1B04EF
S1133BE043EA0263029A43EA0223F2E70022104600
S1133BF004B0BDE8F08100BF313400002DE9F34783
S1133C00036801930DF103000DF1070C0F46002525
S1133C104FF00A0E4FF02E08447800230DF1080AE5
S1133C20B4FBFEF69A440EFB1644303403F101094A
S1133C300AF8084C16F0FF045FFA89F917D100F866
S1133C40014FED1B3C46FF2B04EB050611D19642B8
S1133C5006F1010519DA604504F1010784F80080D2
S1133C60DAD100232370084602B0BDE8F0874B4642
S1133C70D4E75F1E9642FFB207DA02AE334413F86C
S1133C80083C04F8013B3B46DDE70020ECE700007C
S1133C9010B50446406908B1034B984721460520F6
S1133CA0024BBDE810401847854700005945000005
S1133CB02DE9F047466873689A8804460F46002A3F
S1133CC02DD11A68426000F11C0100F1080252F87B
S1133CD0040B43F8040B8A42F9D101213046164BF8
S1133CE09847164B30469847154B85B2304698474F
S1133CF06668DFF84880DFF8489096B9114E33685B
S1133D009C4223680CBF33603B60214604200E4B69
S1133D109847B3885B1BB3802846BDE8F08700252D
S1133D20E6E773683046D3F800A0C0470544304640
S1133D30ADB2C8475646E0E7653600004949000081
S1133D4085470000EC150020594500002DE9F84393
S1133D50DFF86880DFF8689006460F4600250024E7
S1133D60D8F80030214620464BB908B1C84705446D
S1133D70BD4201DA012CF2DC2846BDE8F883D6F80E
S1133D800CE05A69724509D1D6F810E09A69724577
S1133D9004D1B3F80CE0B288964507D0013458B189
S1133DA093F81FE0C27F964598BF18461A68002A08
S1133DB018BF19461346D7E71846F7E7EC15002055
S1133DC0B13C0000084B70B51868084E002400B9D7
S1133DD070BDC37F056823B1013BC3770446284601
S1133DE0F5E72146B047FAE7EC150020B13C0000A6
S1133DF02DE9F04F4468237803F00F03052B85B0B9
S1133E00054640F08E80A84EE088A84FB047019048
S1133E106088B0472378029028460393B847A44AA1
S1133E200097938803440A2B8046174670DCD7F822
S1133E3000904FF0000AB9F1000F77D10420DFF8A9
S1133E4090B2D847814650B941462046994B98478D
S1133E50804566DC0420D8478146002861D02022B2
S1133E6000214846944B9847032289F81F203A685A
S1133E70C9F80020C7F80090224609F1080104F1AE
S1133E80140052F8047B41F8047B8242F9D1884A39
S1133E9091888844A2F80480E18811F0200F144628
S1133EA010D199F81E20039B42F0010289F81E20CC
S1133EB003F00F02029BA3EB8202019B02EBC302FD
S1133EC0A9F81C20D5F80480B8F80200B04798F887
S1133ED0007007F00F07A0EB8707B8F80600B0479B
S1133EE0C0F30C00C000BFB26968D9F804608880D0
S1133EF007440022BFB20A704A708A70CA70CF8029
S1133F0001233EBB002A40F09180C9F8045030E000
S1133F100146684B2046984718B1BB8843440A2B96
S1133F2085DD2846654B984700256DE0E268D9F8A1
S1133F30141091420AD12269D9F81810914205D17E
S1133F40B9F80C10A288914200F09280CA46D9F8C0
S1133F50009070E7D6F804C0BCF80480404557D2FE
S1133F600E60002AD1D0D68886426ED847456CD8D8
S1133F70156099F81E2012F0010545D0002BD3D00E
S1133F80D9F804205568AA88002ACDD10A68002AE5
S1133F9052D1B9F81C202E681432A9F81C202946E5
S1133FA009F1080209F11C0052F8047B41F8047B72
S1133FB08242F9D1424AB9F81C00424FDFF8148119
S1133FC0904700226880AA71EA71AA72EA722846B0
S1133FD014213D4A90476881D9F80450002E3BD102
S1133FE022683A4B9145D9F8002018BFCAF800203E
S1133FF049464FF0040008BF22609847009B2846BA
S11340009847A388181AA080284605B0BDE8F08F09
S11340101BD0BCF80660864217D81AB1D288424534
S113402018BF0023DCF8006062466AE71560D28896
S1134030824218BF00239CE75068C9888288914255
S11340407FF472AF02680146A1E7009B28469847B7
S1134050A388181AA08064E7D6F804B06FF013019F
S11340603046B84731462846C047DBF80060B5E71C
S1134070E088B047C0F30C0000287FF408AFB9F81B
S11340800E00B047C0F30C0000283FF400AF2246F6
S113409009F1080104F1140052F8047B41F8047B8F
S11340A08242F9D1F3E600BF2B34000049490000F5
S11340B0EC1500204D3D0000A5A800008547000038
S11340C0253400002B4700006537000059450000E7
S11340D039450000634900002DE9F04F8FB08B8C07
S11340E0089343680C92069307910546D888564B6B
S11340F098472C89C0F30C030593143C00F4005337
S11341000A93A3B20393089B0822143B93FBF2F394
S11341109BB20993DB009BB20B9300261427039BED
S11341201BB918460FB0BDE8F08F059B039AC3F383
S11341300C0A0A9B43EA0A0A089B133B9342D4BF26
S11341400B9B039B04934FF000024FF014014FF0BC
S113415002003E4BD8BF4AF4005A9847804620B329
S1134160069B42681946143153F8040B42F8040BB9
S11341708B42F9D16B68D8F804903B446B606B892F
S1134180DF1B6F81049F002F32D06E89BE4228BF8F
S11341903E46B6B20EB92D68F5E705202C4B98477C
S11341A0834628B940462B4B98474FF0FF30B9E778
S11341B001966B6800930222034631460320264C85
S11341C0A04720B959460520244B9847EAE70D90AB
S11341D0234B28469847BF1B224BCBF81030CBF813
S11341E014500D99204B4046BFB29847002FD2D1AE
S11341F05046DFF87CA0D047049BA9F8060003F1E1
S1134200140080B2D04789F80A70A9F8020089F82E
S11342100B701421154B48469847079B0C9AA9F834
S11342200A005B690798414698470A4B40469847FD
S1134230039A049BD41AA3B20393099A059B1344CB
S11342409BB2059337466AE72B340000DD47000034
S11342503945000085470000DD460000594500004F
S113426059490000913C0000634900006537000093
S1134270253400000B4B0C4823F0030310B4002238
S11342804FF460541A715A801A1901211C8011715B
S1134290036083604260148054800C30034B5DF8EB
S11342A0044B1847A3290120F4150020791C0000B1
S11342B070B50546002841D0214C236898423DD36F
S11342C0636898423AD200211E4B04F10C009847CF
S11342D0002305F8043CA36835F8080CA5F108028E
S11342E09A42236838BFA26019188A420FD00E7907
S11342F06EB96668B1420AD0A668B142195A25F867
S1134300081C195A08BFA2601944D01A488035F80D
S1134310061C581882420CD0067956B9A668B242D7
S113432035F8082C5A5235F8082C08BFA0601344FD
S113433059800548054BBDE87040184770BD00BF63
S1134340F4150020F91C000000160020D91C000000
S11343502DE9F04103314FF6FC740C400B2C05465B
S113436004D9B4F5605F02D9002548E00C24254F38
S11343703B68AB4243D87A68954240D2A5F108061F
S113438035F8088CF61AB6B2A8F10808A8EB0608A6
S11343901FFA88F8A045E7D331D000211A4B07F162
S11343A00C0098473B6835F8081C581802795AB92C
S11343B006F108021444BA68595AA4B2904203EBB5
S11343C004020DD1BA600BE004F11402424513D883
S11343D006F108021444A4B2B8681A198242F1D34F
S11343E0002010711953568025F8084C1A5BB2F559
S11343F0605F1CBF9B185C800448054B98472846A7
S1134400BDE8F081F4150020F91C0000001600201E
S1134410D91C00002DE9F04148B103304FF6FC747B
S113442004400B2C05D9B4F5605F03D90020BDE826
S1134430F0810C24274D284B002105F10C009847EE
S1134440AE682A68B31A9BB22846C4F5605C6FF064
S11344500708634503DB2148214B9847E6E7D51855
S1134460D75A95F804E0BEF1000F30D1A8EB030150
S11344703944A1422BD304F1140C614521D30834EF
S11344801C44A4B2111981F804E017534B80012392
S11344902C802B71135BB3F5605F01D01A445480F8
S11344A0AE4207D190E806002B461C790CB193422A
S11344B00AD1836009480A4B984705F10800BDE812
S11344C0F08101232B71EBE71B880B44EDE73B469E
S11344D0BFE700BFF4150020F91C000000160020FF
S11344E0D91C00002DE9F043104A1148114C002357
S11344F022F003029E46054604F11A0C40F823E01C
S113450034F813809E004FEA430900218FB2B84566
S113451004D801330D2BF1D1BDE8F083AF591760F6
S113452039F80C70AA5101313A44EFE7071600201C
S1134530688000201ABA00000C2800D9FEE7054B59
S113454003EB8003D3F8940410B10268C3F89424F5
S1134550704700BFD47B002039B1044B03EB8000CB
S1134560D0F894340B60C0F894147047D47B0020C6
S113457070470000F8B505460C4659B10A6843680F
S11345809A4206D00D4B0E4F186828B90D4B1B6884
S113459053B924686C60F8BD02686B68C6689A42B7
S11345A000D1B8473046F0E71A6822B169688A42F8
S11345B004BF22681A60DB68EAE700BFC461012017
S11345C0D5530000CC61012070B515461C46054B3F
S11345D00646984705B12D68B56004B12468F460B7
S11345E070BD00BF75450000F8B5114F069E066208
S11345F03E7880F83060002506F1010E089E0661C1
S1134600044645608560C56080F82D50C561094E3B
S113461087F800E0B0472046079B984728B9064B27
S11346201A6822601C602046F8BD2C46FBE700BFD8
S11346309C800020C9450000B4610120014B186032
S1134640704700BFB861012010B590F82D30DA072B
S1134650044612D443F0010380F82D30C36903B13A
S1134660984794F82D3003F03003302B05D1211DE9
S11346702046024BBDE81040184710BDB578000035
S1134680084B002210B51A70074B1C6804B910BD02
S1134690606F20B1054B98470023636710BDE46841
S11346A0F4E700BFBC610120C4610120F54B0000A8
S11346B038B5074C23780122227003F0FF0533B983
S11346C02A4629460348044B984700B1257038BD53
S11346D0BC610120814600003133000070B5049DA7
S11346E0032820D8DFE800F01B0217192420BDF8A6
S11346F014404618A6424FF0000414DC1C6085B137
S11347002844586002201A73012258731981598170
S1134710DA81184670BD1020E9E70020E7E7382069
S1134720E5E75D60EEE7002070BD10B5D9B138B3A0
S1134730002905DA4A42438992B2934201D2FEE744
S11347408AB2047B43680CB1032C0ED15B1A00F1CE
S11347501002934213D34360438989B20B444381CB
S1134760038919440181002010BD013C012C06D8A5
S1134770002904DA4489944201D35B1AEBE701204F
S113478010BD0000F8B5014610B3124E124D0024BE
S1134790E0B201B9F8BDCB89013B9BB2CB81BBB977
S11347A04B7B0F689B0705D50B6908469847013476
S11347B03946EDE70B7B032B02D10C20A847F6E723
S11347C0013B012B01D80B20F8E70846B047EEE780
S11347D0F8BD00BFB1420000594500002DE9F04783
S11347E00E461746032841D8DFE800F00D02090BF6
S11347F02425032F3AD8DFE807F05168680810250C
S1134800F7E70025F5E73825F3E7364F0C20B847DE
S1134810B846044620B9344B98472046BDE8F08793
S11348204319C5F5BD650435133323F00303B542BD
S11348304FF00302A8BF354600274360012345819A
S1134840027307600681C381751B81469246002D61
S113485004DC0123E38100236373DEE70C20C047FB
S113486030B9214B98472046204B98470024D4E781
S1134870ABB240F2EC52934280F80CA0477307604D
S1134880C9F80000038128BF134600F110024260FA
S113489001224381C281ED1A8146D8E7F31C23F03B
S11348A0030305F11000184480B2114B98470446E5
S11348B00028DBD005441335002325F003054560AB
S11348C00681468103600373C3E70B20054B9847B9
S11348D004460028CAD00023436006814681036051
S11348E00773B6E739450000B1460000854700006C
S11348F01544000038B503898B42044618D90D4687
S1134900CB1A61898D4214D8237B4BB98D4207D0D1
S113491061680B4B091B2944204689B29847044619
S113492020686581258108B1064B984700232360E0
S113493038BD22896D1A1A442281ADB22468E0E799
S1134940514300008547000003460022D0B20132E3
S113495003B970471B68F9E710B1C3890133C381F8
S1134960704710B500B109B9FEE7204603890A89EA
S1134970046813440381002CF7D1016010BD0000CA
S113498010B5034B9847034B0846BDE81040184741
S113499063490000594900002DE9F8430C460546D7
S11349A020B119B102890B899A4200D2FEE74FF077
S11349B00008DFF87890474663896E896168686803
S11349C0F61BA3EB08039E42ACBF9EB2B6B23246BE
S11349D041443844C8473744638946441FFA86F83B
S11349E043456B8998BF2468BFB298BF4FF0000855
S11349F0BB4210D12D686DB94CB1FEE762892389A1
S1134A009A420AD1236843B1FEE7002CD4D1002096
S1134A10BDE8F8830027002CF0D16A892B899A42DB
S1134A20F3D12B68002BF0D0FEE700BF8FA8000065
S1134A302DE9F84388461746054600B9FEE739B123
S1134A40DFF84490002607B11DB93046BDE8F8836D
S1134A50FEE733B169898B4203D35B1A9BB22D689D
S1134A60F1E76C896968E41AA4B2BC4228BF3C46E9
S1134A702246194408EB060026443C1BC847B6B23C
S1134A80A7B20023EBE700BF8FA80000114AF0B5DE
S1134A901088114E4FF480434FF6FF75A8421ABF99
S1134AA0013080B24FF44040002156F82140246880
S1134AB024B901310429F8D11080F0BD678B8742F5
S1134AC006D1013B9BB2002BE8D110801846F0BD03
S1134AD0E468EDE73C00002050BA00007047000095
S1134AE0F8B5037E04460D4603B1FEE71AB9164B2A
S1134AF09847024608B3154F002157F821301B6828
S1134B007BB901310429F8D115B12B6803B12360B5
S1134B100F4B62831A68E2601C600E4B98470020BA
S1134B20F8BD588B904206D11E684EB145B1286835
S1134B3030B1864204D0DB68E2E76FF00100F8BDD3
S1134B406FF00700F8BD00BF8D4A000050BA0000A6
S1134B50D4610120F171000070B5016B858D846A08
S1134B6002466B1A1819D38E40F66836B34294BFC6
S1134B70C31A831B002B01DBD58570BD631A002B80
S1134B804FF00000D6BF091BD085D18570BD000051
S1134B90838D194489B241F2D063994210B58CBF18
S1134BA083858185084B0446984740F2B353984265
S1134BB008DDA37F43F00203A3772046034BBDE83F
S1134BC01040184710BD00BF594B00003D6C000059
S1134BD010B5044648B1406808B1044B98472146D3
S1134BE00320034BBDE81040184710BD8547000063
S1134BF05945000038B5034C00B938BD0568A047D5
S1134C002846F9E7D14B000038B50446094B032088
S1134C109847054660B120462B4604F1100250F82F
S1134C20041B43F8041B9042F9D16868024B98476F
S1134C30284638BD394500005949000001617047D4
S1134C40C0F880107047C1677047C0F88C10704777
S1134C5041617047C0F8881080F820207047000038
S1134C60037E012B70B5044617D90A2B15D0806F2B
S1134C7018B10A4B98470023A367094E606FB047E9
S1134C8000254FF6FF73A386E06E6567B047206F7B
S1134C90B047E5662567A4F86A5070BD85470000F3
S1134CA0F54B00002DE9F04FAD4DAE4F2B68DFF80A
S1134CB0E49201332B603B7885B001333B7002975B
S1134CC0A94BDFF8D4B21C68002698465CB9A74FFC
S1134CD0DFF8C4823E68DFF8A492002E40F02981F8
S1134CE005B0BDE8F08F029B94F821201B789A420E
S1134CF005D1D4F80CA0344626465446E6E7217E76
S1134D0084F82130022994F8460002D1062800F0E4
S1134D10CD800C2800F0CA8094F89570002F00F024
S1134D208E80934994F8942039440132C97BD2B2DD
S1134D30914284F8942074D90027227E062A09D14E
S1134D40A17FCB0606D52968606A091A282984BF81
S1134D507B1CDFB294F808A01AF0080A18D0042AC1
S1134D6002D0072A40F0B5802868626AD4F89030EF
S1134D70801A03F5242101F6B8414FF4FA7EB1FB01
S1134D80FEF1884240F294807B1CDFB24FF0010AAE
S1134D90606F68B12A68616A511AB4F9442002EB61
S1134DA04202B1EB420F03D3724A9047002262677A
S1134DB0227E032A40F090802A68616A521A282AC7
S1134DC002D8002F00F093802046D847E368002ED5
S1134DD000F08A80F360BAF1000F09D0A38B01932D
S1134DE0638B00932246231DA16A206D624FB8474E
S1134DF02269D4F88C70D4F80CA0039221460120C7
S1134E005E4CA047002189F8001027B1039A6FF087
S1134E1009011046B84799F80030002B3FF46BAFF6
S1134E204EE7062F98BF7B1C4FF0000298BF84F812
S1134E30953084F894202046514B98477CE7B4F988
S1134E403420002AA4BF0132A286226F002A3FF434
S1134E5073AFB4F934E0B4F944209645FFF66CAF6F
S1134E6002290BD0B4F94010B4F9422002EBE1025C
S1134E703F490144C97D8A40A4F844200022B4F883
S1134E804C10A286B4F860208A4228BF0A46E18EFC
S1134E90A4F84C10480052088242A4F84E20B8BF2F
S1134EA0A4F84E00374A2046904746E7012744E7D6
S1134EB094F89620344901FB0232B2FBFEF2904290
S1134EC007D9324A2046904794F89620013284F854
S1134ED096204FF0000A5BE7092A7FF472AF2A6834
S1134EE0616A521AF02A6BE7C8F8003073E7E27F70
S1134EF094F82010D4F80CA00132D2B29142E27797
S1134F003FF6FAAED4F88820E77789F8007072B1DA
S1134F1021462069904799F80030002B7FF4D0AEE9
S1134F2000287FF4E9AE2046194B9847E4E638465A
S1134F30F1E72B68726A9B1AF02B0AD83446F6689C
S1134F40CBE6E360D6F80CA031460120C8475646AC
S1134F50C3E63046C047F368002CF2D13B60F1E76A
S1134F60C86101209D800020C4610120D861012016
S1134F7050BA0000F54B0000CD6E0000594500000A
S1134F80CD7000007D6F0000F82401006170000006
S1134F903D6C0000C0610120614C000003688B423D
S1134FA010B50C4617D1CB6803600023E36020469C
S1134FB0124B9847237E0A2B0AD0012B08D0A37FDB
S1134FC0DA0705D543F00203A37720460C4B984734
S1134FD00023237610BD0B4A002113601BB900295E
S1134FE0E3D01360E1E7D868844204D101B11360CF
S1134FF0E268DA60D9E701210346EFE7614C00007B
S11350003D6C0000D061012037B5037E04460029C1
S113501041D0042B01D0072B3DD1A26F22B9A18D21
S113502041F2D062914236D0A38B0193638B0093FB
S11350302246231DA16A206D424DA847424B2046BB
S11350409847424A13689C4202D1E36813600CE01B
S11350503F4A002113600BB939B1F7E7D86884429D
S113506016D101B11360E268DA603A4B01221A707A
S1135070237E0025042BE5603AD10A232376364BA0
S11350801A68E2601C60354B9847002003B030BDBD
S113509001210346DFE7072BF7D801A252F823F0DA
S11350A0C1500000015100000F51000021510000C7
S11350B0215100008B5000008B500000375100003C
S11350C0638BABB1264A13689C4202D1E368136038
S11350D00CE01F4A002113600BB939B1F7E7D86817
S11350E084420AD101B11360E268DA600023E3600C
S11350F0214601201B4B9847C7E701210346EBE7F4
S113510021461948194B984721460220F2E72146C7
S11351100E48164B98470F4B012018702146E9E7BB
S11351202046134B98470028B0D105232376204608
S1135130104B9847A9E720460D4B98470028A5D166
S11351400923F3E7CD6E0000614C0000C461012027
S1135150D0610120C0610120D8610120F1710000FB
S1135160D461012059450000CC6101209D4F00000D
S1135170756B00003D6C0000037E012B1EBF837F16
S113518043F0100383770121004B184709500000B6
S113519010B5084614463AB1064B11899847204683
S11351A0054B9847002010BD002BFBD1034BBDE8F5
S11351B010401847914B00008547000079510000CA
S11351C0F8B5866FD0F88050777B00230446836758
S11351D0E5B1014632460069A8470546E8B9BB0671
S11351E012D5A38DD4F8806041F2D06293421CBFE3
S11351F00133A38546B100231A4621462069B047EE
S11352000A3001D16FF009052846F8BD2B46014646
S113521032462846044DA847DFE710F10A05F1D0CD
S1135220A6670025F0E700BF915100002DE9F04783
S1135230174D184F2B78DFF8648001332B703C68CE
S1135240154EDFF85C902B780CB9BDE8F08794F824
S113525021209A42F8D084F82130A37FDA0708D5B8
S113526043F00203A3772046C047A37F23F0030340
S1135270A377A36FD4F80CA00BB95446E3E700233B
S113528020463370C8473378002BF6D0D7E700BFE9
S11352909D800020C4610120C06101203D6C00009C
S11352A0C1510000074B10B59847074A53780133A2
S11352B0DBB25370DB0703D5044BBDE8104018473D
S11352C010BD00BF2D5200009D800020A54C0000A1
S11352D070B51446027E012A05461BD089B1837F2E
S11352E043F01003837724B101210C4BBDE87040D7
S11352F01847806F08B9002070BD094B9847AC6708
S1135300F9E7002CF7D0072A04D80123934013F0BF
S1135310980FEAD16FF00C0070BD00BF0950000077
S113532085470000037E0A2B2DE9F347224B234EC9
S113533004468A4609D1014621489847214601205E
S1135340334602B0BDE8F0471847D0F85080D0F893
S11353502890D0F88C50076901461A4898471A4B90
S1135360206F01221A7008B1184B9847E06E08B1FB
S1135370164B9847606F08B1144B9847BAF1000F69
S11353800AD0A38B0193638B00934046231D2246CE
S11353904946DFF83C80C04721460120B0473DB173
S11353A06FF0090138462B4602B0BDE8F0471847B4
S11353B002B0BDE8F08700BF9D4F000059450000D2
S11353C0D8610120C4610120C0610120F54B0000B7
S11353D0CD6E00000121014B184700BF255300008A
S11353E0034B044A5868126810445860704700BF61
S11353F03C000020C8610120F8B507463B4D3C4EF7
S11354000120A8470446F0B93A4B30681B6821468E
S1135410002B53D114B12046374B98470120A8479D
S1135420044680B9354BD6F800C01B687F20A646D9
S1135430002B4BD114B120462F4B98470120A8478D
S11354400446002838D0982200212D4B2046984746
S113545040F66833A4F8663041F2D063A385E3854F
S1135460FF23A3724FF40673E3860623A4F84430A3
S1135470A4F842304FF6FF730021A3860123A4F859
S11354804C3067761F4BA4F868106172A4F8401082
S11354909847336863621C4BA0651B7884F82130FD
S11354A01A4BC4F880301A4B2065A064E065E1779C
S11354B0C4F8903084F896102046F8BD5A6A821ACF
S11354C08A4224BF1C461146DB68A1E7597E8F42FD
S11354D009D3814207D85A6AACEB0202724522BF53
S11354E0084696461C46DB68A2E700BF3945000023
S11354F0C8610120D8610120D5530000C461012096
S1135500A5A80000E15300009D80002091510000F7
S113551000DD6D004020014B184700BFF953000027
S113552010B5074B04460846984730B1838C23B125
S1135530283B9BB29C4228BF1C46204610BD00BF9E
S1135540C13700002DE9F84FC3681F4E05469889FE
S11355500C46B047C2071BD41C4FDFF87C80DFF831
S11355607C90CCB1D4F80CE038682B89DEF80410B8
S1135570228903440A449A1A002A10DA5B1A002B7F
S11355800ADD091A89B229816868114B984703E03A
S11355902046104B984700242C60BDE8F88FBEF8D5
S11355A00C00B047C30709D5D5F80CB00120BBF8EF
S11355B00CA0C0474AEA0000ABF80C00D4F800A0E5
S11355C02046C8475446CCE72B340000A080002076
S11355D0F5480000F54B000025340000D14B0000D5
S11355E02DE9F74F9A4D2B79DE0604466AD5636D93
S11355F02A68B0F86010806D9E1A002E0CDB93426E
S113560003D1AB68C31A002B06DBAB6898421BD1ED
S1135610EB68DB898B4217D9EB68B4F86270DE89DA
S11356206265B742AA68A265A4F8606038BFA4F8AE
S1135630626094F89520002E40F0FF8022B984F82F
S11356409460012384F89530AA68A66C931B002B00
S113565000F30E810023A4F864302B8A002B40F061
S113566069830144B4F86030A06D0344994240F06A
S11356706183B4F93430002BC0F25C83B24240F051
S1135680598394F84720531CDBB29A4238BF84F8FC
S1135690473094F84730032B40F2D480B4F84C20C0
S11356A0E38E13449BB29A4201D2A4F84C30DFF843
S11356B0B881684FE36E002B40F05C81A26B002A36
S11356C040F09481288AA26A002800F02683237E71
S11356D0062B00F222832B68D61A012E00F1B38127
S11356E0C3F10101091A1144002900F3AC81A8692E
S11356F043899E42314640F3A48103899B1B9BB29C
S113570000264289914200F39781494209B2524BE3
S11357109847A98B2B68A26A2A600B449B1AAB8317
S11357202B6A5A602968A26A8B1A002BC0F2EF8296
S11357304B1CA08D9B1A1B1A002B00F3E88291428C
S113574040F038822B6A434E9889AF8BB04710F0F3
S1135750030018BF01203844A38D80B283422882FD
S11357602DD22B6A9889B047C3070ED5D5F820806F
S1135770B8F80C703846B047384B00F03E009847F4
S113578027F47C570743A8F80C70A38DAB832B6ACE
S11357909889B047870748BFAB8BA86944BF03F11A
S11357A0FF33AB83A98B2E4B98472B6AAF8B988919
S11357B0B04710F0030018BF012007442F82636F25
S11357C0002B00F04E812B6A9889B047C00700F186
S11357D07981676FDFF88480DFF890905FB3D7F842
S11357E00CE028682B8ADEF804203989034411442C
S11357F0591A002980F268819B1A002B1BDD2B6A41
S1135800121AAA839889B047830748BFAB8BA8694B
S113581044BF03F1FF33AB83A98B114B98472B6A29
S1135820B5F81C809889B04710F0030018BF012018
S11358308044A5F81080676713E1002A3FF404AFA1
S11358400023FFE67FF433AF2046064B98472EE74C
S1135850A08000202B3400002B47000025340000DA
S1135860F54800000D70000035340000D14B0000F5
S1135870216D511A002979DCA17FB4F94060A2643A
S1135880480741BF21F00401A177B4F84E10A4F8F1
S11358904C10B4F8421001EBE601A4F84410B4F83B
S11358A066109BB2A4F864300B44A4F86630237EDF
S11358B00020032B84F8460084F847000CD9B4F880
S11358C04E30B4F84C209342E38E14D913449BB267
S11358D09A4238BFA4F84C308E4F8F4EDFF8408286
S11358E0236F63B9226F0023002A3DD14FF6FF7264
S11358F0A286E377DBE65B4393FBF2F3E6E7DB6840
S11359005868B847236FB3F808A0DB6881469889C4
S1135910B047AB6810F0030018BF01205044A9EB56
S1135920030948440028DDDCD4F87090D9F800302D
S11359302367B4F864305BB1D9F80C309889B04768
S1135940C10742BFB4F8643003F1FF33A4F86430F4
S1135950D9F80400C047B4F86830181AA4F86800ED
S11359606E4B48469847BBE7A386C2E70023A4F8DA
S113597064309CE6DB68AE685868C047E36EB3F8F1
S11359800890DB6882469889B84710F0030018BF76
S11359900120A6EB0A064844361A002EFFF68EAE06
S11359A0AB68226D9B1A002B3FF788AEE66E336816
S11359B0E3660BB9A4F86A30B4F8643053B1F36801
S11359C09889B847C20742BFB4F8643003F1FF3383
S11359D0A4F864307068524B9847B4F86830181AC9
S11359E0A4F868004D4B3046984763E6E36BA9681A
S11359F05B1A002BBFF666AE4A4BB4F94000196837
S1135A00891AA1EBE00189B20BB2002BB4F9422050
S1135A100844BCBF49420BB2A2EBA202134400B239
S1135A209BB2A4F8423003EBE003A4F84430002313
S1135A30A4F84000A36345E603814681891A0068FF
S1135A405FE6714262E69B1A002BBEBFA37F43F060
S1135A500203A37766E603686367B847606F0028AC
S1135A60F9D1298AA38D2A682F4F0A445B1AA262AE
S1135A70A3852046B847AB6901971A8912B16B62B6
S1135A800023AB612B6ADFF8A4A09889DFF88CB0FF
S1135A90B047C70742BF95F8283043F0200385F884
S1135AA028304FF00009676F27B1F968A26A4B6884
S1135AB093423DD0A37FD90776D523F0010343F069
S1135AC0020373E0154FC9E7BEF80C00B047C107E5
S1135AD01AD52B6A9889B047820715D4D5F820B017
S1135AE00120BBF80CA0C0472B6A4AEA0000ABF8BF
S1135AF00C009889B5F81CA0B04710F0030018BF3B
S1135B0001208244A5F810A0D7F800A03846C84761
S1135B10574663E6353400002B340000D14B0000B7
S1135B2049490000C8610120594B00006349000045
S1135B302B608889B7F80880B04710F00300A36A87
S1135B40FA6818BF012040441844A0629089B7F84D
S1135B500880B04710F00300A38D18BF0120404413
S1135B60181AA085019B2046984779680B8923B1B0
S1135B70686AB8B1D047C7F80490FB689889B04701
S1135B80C0070AD595F8283043F0200385F828305B
S1135B90237E042B04BF072323763B6863673846C0
S1135BA0D84780E76962E6E743F00103A37703B0CF
S1135BB0BDE8F08F2046614B9847666F26B9604870
S1135BC0604B98476067F2E72B68002703F1FF3EBC
S1135BD003F1010CF06842689A4214D1AA8B33890C
S1135BE09A42E4D95648574B98470028DFD047B12A
S1135BF038603146544B03B0BDE8F04F18470E46A9
S1135C00E8E76067F5E74FB9991A002928DA4C48A4
S1135C104C4B98470028CAD06067EAE7F96849689E
S1135C20AEEB010100291BDBACEB0201002917DC00
S1135C304348444B984704460028B8D0FB68296879
S1135C405A683B8913445B1A002B05DD891A89B213
S1135C50398178683D4B98473C6031462046C9E716
S1135C60316837460029CAD19B1A002B9FDD8089F1
S1135C70374FB847C2079AD43148324B98473060FF
S1135C80002894D0F36829685A68338913445B1A4E
S1135C90002B05DD891A89B2318170682B4B984736
S1135CA02B682A8AA16A1A44A38D0B449A427FF670
S1135CB07EAF3368DB689889B847C30710D533686B
S1135CC0D3F80C90B9F80C804046B847214B00F04B
S1135CD03E00984728F47C5848EA0008A9F80C804C
S1135CE0A18D2A683368891AA26A5868114489B256
