:1000000030620220F1020000ED020000ED0200006B
:10001000ED020000ED020000ED0200000000000013
:1000200000000000000000000000000025A6000005
:10003000ED02000000000000B5A6000015A70000BA
:10004000ED020000ED020000ED020000ED020000F4
:10005000ED020000ED020000ED020000ED020000E4
:10006000ED020000ED020000ED020000ED020000D4
:10007000C1170000ED020000ED020000ED020000DB
:10008000ED020000ED020000ED020000CD170000BF
:10009000ED020000ED020000ED020000ED020000A4
:1000A000ED020000ED020000ED020000ED02000094
:1000B000ED020000ED020000ED020000ED02000084
:1000C000ED020000ED020000ED020000ED02000074
:1000D000ED020000ED020000ED020000ED02000064
:1000E000ED020000ED020000000000000000000032
:1000F00000000000851D0000ED020000ED02000080
:10010000ED020000ED020000ED020000ED02000033
:10011000ED020000ED020000ED020000ED02000023
:10012000ED020000ED020000ED020000ED02000013
:10013000ED020000ED020000ED020000ED02000003
:10014000ED020000ED020000ED020000ED020000F3
:10015000ED020000ED020000ED020000ED020000E3
:10016000ED020000ED020000ED020000ED020000D3
:10017000ED020000ED020000ED020000ED020000C3
:10018000ED020000ED020000ED020000ED020000B3
:1001900095180000ED020000ED020000ED020000E5
:1001A000ED020000ED020000ED020000ED02000093
:1001B000ED020000ED020000ED020000ED02000083
:1001C000ED020000ED020000ED020000ED02000073
:1001D000ED020000ED020000ED020000ED02000063
:1001E000ED020000ED020000ED020000C52200005B
:1001F000ED020000ED020000ED020000D922000037
:10020000ED220000ED020000ED020000ED02000012
:10021000ED020000ED020000ED020000ED02000022
:10022000ED020000ED020000ED020000ED02000012
:10023000ED020000ED020000ED020000ED02000002
:10024000ED020000ED020000ED020000ED020000F2
:10025000ED020000ED020000ED020000ED020000E2
:10026000ED02000010B5054C237833B9044B13B1EF
:100270000448AFF300800123237010BDC0000020AC
:1002800000000000B0ED00000C4B43B10C480D49DC
:1002900010B5AFF300800C48036823B910BD0A48BD
:1002A000036833B97047094B002BF7D0BDE8104005
:1002B0001847064B002BF5D0184700BF0000000080
:1002C000B0ED0000C4000020B0ED00000000000010
:1002D00008B5034B9847034B9847034B984708BD15
:1002E00005090000B90E0000E5A40000FEE70000CB
:1002F00008B5154B154A9A4209D0134B134A03E02F
:10030000116819600433043211498B42F8D3114B40
:1003100002E000221A6004330F4A9342F9D30F4BD4
:100320000F4A22F07F029A60D3F8882042F47002CC
:10033000C3F88820BFF34F8FBFF36F8F094B9847E7
:10034000094B9847FEE700BF00000020B0ED000019
:10035000B8000020C00000202C62012000ED00E069
:1003600000000000DDCC000039A2000020B901220D
:10037000044BC3F8942070470122024BC3F8982025
:10038000704700BF0080004118B98022034B5A61BA
:1003900070478022014B9A61704700BF0080004186
:1003A00010B52DED028B07EE900AF5EEC07AF1EE56
:1003B00010FA35D4B7EE007AF4EEC77AF1EE10FAFF
:1003C00001DDF7EE007AB7EE007A77EE677A17EE86
:1003D000900A194B984716A3D3E90023174CA0475E
:1003E000174B984708EE100ADFED167A68EE277A69
:1003F000154CFCEEE77A17EE902A4FF4C8712046B0
:10040000124B98472046124B9847B5EEC08AF1EE42
:1004100010FA08DD40220F4B9A61BDEC028B10BD33
:10042000DFED0D7ACFE740220A4B5A61F5E700BFB6
:10043000333333333333E33FB1C6000059C70000D1
:100440000DCC00000000C84350290120D913000042
:100450009D130000008000410000000010B52DED4C
:10046000028B08EE100ADFED117A68EE277A104C45
:10047000FCEEE77A17EE902A42F6E06120460D4B3B
:10048000984720460C4B9847B5EEC08AF1EE10FA1B
:1004900006DD0222094BC3F81821BDEC028B10BD0A
:1004A0000222064BC3F81421F7E700BF00803B4649
:1004B00018290120D91300009D130000008000417D
:1004C00008B54022264BC3F89020264A536943F4CE
:1004D00080635361244B0122C3F884212349C3F86C
:1004E000A8112348C3F8A801C3F8842193F8C011C8
:1004F00041F0040183F8C011C3F8982193F8C0219A
:1005000002F0FE0242F0010283F8C02193F8B0210C
:1005100002F0F00283F8B0218022C3F8842015494C
:10052000C3F8A810C3F8A800C3F8842093F8C71034
:1005300041F0040183F8C710C3F8982093F8C7204E
:1005400002F0FE0242F0010283F8C72093F8B320C4
:1005500002F00F0283F8B320074B984708BD00BF95
:10056000001C0040000800400080004101000240E3
:10057000000002C080000240E10F0000104B93F821
:10058000D92002F0FE0242F0010283F8D92093F84C
:10059000BC2002F00F0242F0300283F8BC2093F836
:1005A000D82002F0FE0242F0010283F8D82093F82E
:1005B000BC2002F0F00242F0030283F8BC20704736
:1005C00000800041064B4022C3F8DC204322C3F8E0
:1005D0008C20044A936943F400739361704700BF11
:1005E000001C00400008004008B5054B9847002259
:1005F00004490548054B9847054B984708BD00BF7F
:10060000C5050000002001410C290120D51400007F
:100610007D050000084A92F8453003F0FE0343F0E0
:10062000010382F8453092F8323003F00F0343F0B3
:10063000400382F83230704700800041044A536919
:1006400043F4804353614022024BC3F8A420704717
:1006500000080040001C004008B5064B9847064BB8
:100660009847064B9847024605490648064B984767
:1006700008BD00BF3D06000015060000BF220000B7
:10068000003800401829012059130000084A92F848
:10069000C93003F0FE0343F0010382F8C93092F839
:1006A000B43003F00F0343F0400382F8B4307047D6
:1006B00000800041044AD36943F02003D361402203
:1006C000024BC3F8F820704700080040001C0040AF
:1006D00008B5064B9847064B9847064B9847024685
:1006E00005490648064B984708BD00BFB5060000FF
:1006F0008D060000BF220000001400425029012096
:1007000059130000084A92F8CF3003F0FE0343F07B
:10071000010382F8CF3092F8B73003F00F0343F0B3
:10072000400382F8B730704700800041044AD36923
:1007300043F04003D3614022024BC3F8F8207047D6
:1007400000080040001C004008B5064B9847064BC7
:100750009847064B9847024605490648064B984776
:1007600008BD00BF2D07000005070000BF220000E4
:1007700000180042F028012059130000504B93F854
:100780004B2102F0FE0242F0010283F84B2193F864
:10079000352102F00F0242F0B00283F8352193F8C0
:1007A0004C2102F0FE0242F0010283F84C2193F842
:1007B000362102F0F00242F00B0283F8362193F862
:1007C0004D2002F0FE0242F0010283F84D2093F822
:1007D000362002F00F0242F0B00283F8362093F880
:1007E0004C2002F0FE0242F0010283F84C2093F804
:1007F000362002F0F00242F00B0283F8362093F824
:10080000542102F0FE0242F0010283F8542193F8D1
:100810003A2102F0F00242F00B0283F83A2193F8F9
:100820004F2002F0FE0242F0010283F84F2093F8BD
:10083000372002F00F0242F0B00283F8372093F81D
:10084000522002F0FE0242F0010283F8522093F897
:10085000392002F0F00242F00B0283F8392093F8BD
:10086000532002F0FE0242F0010283F8532093F875
:10087000392002F00F0242F0B00283F8392093F8D9
:100880004E2002F0FE0242F0010283F84E2093F85F
:10089000372002F0F00242F00B0283F8372093F881
:1008A000512002F0FE0242F0010283F8512093F839
:1008B000382002F00F0242F0B00283F8382070476F
:1008C00000800041044B1A6942F480421A61DA69DF
:1008D00042F00402DA6170470008004008B5044B9A
:1008E000984704490448054B9847054B984708BD6D
:1008F000C5080000000800423429012081110000D1
:100900007D07000010B54B4B98474B4B40225A6176
:100910009A6002F180429A624FF040429A6293F8E4
:10092000461001F0FE0183F846108021596199605C
:1009300001F1804199629A6293F8471001F0FE013B
:1009400083F847100221C3F89410C3F888103B4C79
:10095000C3F8A840C3F8A82093F8C10000F0FE0037
:1009600083F8C1000120C3F89400C3F8880000F1A7
:100970008040C3F8A800C3F8A82093F8C00000F096
:10098000FE0083F8C000C3F81411C3F80811C3F8BF
:100990002841C3F8282193F8411101F0FE0183F8A2
:1009A00041110821C3F804112548C3F8280125483E
:1009B000C3F82801C3F8041193F8430140F0040080
:1009C00083F84301C3F8141193F8431101F0FE01B9
:1009D00083F843114FF48061C3F81411C3F8081170
:1009E00001F18041C3F82811C3F8282193F84A2166
:1009F00002F0FE0283F84A214FF08042C3F814212E
:100A0000C3F80821C3F828210F4AC3F8282193F816
:100A10005E2102F0FE0283F85E210C4B98470C4BDE
:100A200098470C4B98470C4B98470C4B98470C4BEE
:100A3000984710BD91150000008000410200004061
:100A400008000240000002C0004000C0C1040000D5
:100A5000E905000059060000D10600004907000022
:100A6000DD0800000F4B1B680BB10020704700B57C
:100A700083B0002101A80C4B984701A90B480C4BEF
:100A80009847002101A80B4B984701A80A4B9847AB
:100A90000A4B98470122034B1A60002003B05DF80F
:100AA00004FB00BFDC00002079240000EDC2000040
:100AB000793E000009250000DD2400001DA0000093
:100AC0002DE9F04105460C46838807EE903AF8EE92
:100AD000677A9FED457A77EEC77AC7EE876AC1EDF0
:100AE000046A438807EE903AF8EE677ADFED3F6AD2
:100AF00087EEA67A81ED037A038803F001030B7574
:100B00000388C3F340034B750388C3F380038B75DD
:100B10000388C3F3C00381F868310388C3F300136B
:100B200081F82830DFF8D080D0ED027AF8EE677ACD
:100B300017EE900AC0472E4F29A3D3E90023B847E8
:100B40002C4EB047C4F87801D5ED037AF8EE677AF9
:100B500017EE900AC04722A3D3E90023B847B04755
:100B6000C4F87C01D5ED047AF8EE677A17EE900AA6
:100B7000C0471BA3D3E90023B847B047C4F880019E
:100B8000D5ED057AF8EE677A17EE900AC04714A300
:100B9000D3E90023B847B047C4F86C01D5ED067A15
:100BA000F8EE677A17EE900AC0470DA3D3E9002349
:100BB000B847B047C4F87001E86907EE900AF8EE4C
:100BC000677A17EE900AC04705A3D3E90023B84718
:100BD000B047C4F87401BDE8F08100BFAFF30080F6
:100BE0008DEDB5A0F7C6B03E00FEFF4600FF7F4783
:100BF00059C700000DCC0000B1C6000070B5044616
:100C00000D460A234380D1ED067A9FED157A67EEF3
:100C1000877AFCEEE77A17EE903A0380002303719F
:100C200091F82330003318BF012303710D4ED1E931
:100C30004401B047A060D5E94601B047E060D5E97E
:100C40004801B0472061D5E91E01B0476061D5E990
:100C50002001B047A061D5E92201B047E06170BD35
:100C60000000C842CDCB00002DE9F047ACB00546EE
:100C700020263246002124A84D4CA04732460021B0
:100C80001CA8A0474B4B98472CAC012344F8643D6B
:100C9000002202210846484B984706460423009349
:100CA00023464FF4017240F6FF71444CA0470024E4
:100CB00014941594169417944FF0020A8DF851A0CD
:100CC0004FF0FF30DFF83491C847159042F63A7084
:100CD000DFF82C81C047ADF8520010278DF8507016
:100CE000189419941A941B948DF861A02046C84753
:100CF000199042F63970C047ADF862008DF8607007
:100D00003A4618A930462E4B9847A04231DA2CB00B
:100D1000BDE8F08729461CA82A4B98471023019369
:100D200014AB0093002320221CA93046264CA04778
:100D30000823402203A93046244CA0470446B0F1C2
:100D4000FF3F22D0002C0BDD224603A924A8204B14
:100D50009847204B98476860294624A81E4B98471F
:100D600000231A46194628681C4CA0470A201C4B31
:100D7000984700236422194628681A4CA047012886
:100D8000C8D00120164B9847F3E7174B1B68D3F8E0
:100D90000C80164FB8470068154B98478146B847F6
:100DA000036800944A4613494046134FB847C9E7C1
:100DB00069CD0000650A0000F53A00007D3B0000A7
:100DC000B5360000FD0B0000853900006D390000CC
:100DD00053CD0000ADB60000C10A000055AD0000C3
:100DE000EDB800000DB1000054000020ADCC0000B3
:100DF000C9DA00001CE20000B9CC0000D93E0000B6
:100E0000C13E000070B50D461646044658B161B1AA
:100E10001F2A0CD900202A220649074B9847256033
:100E2000A680002070BD0020F5E70020F3E7012038
:100E3000F1E700BF4CE200004D15000030B583B073
:100E40000D460446D0B10368D3B1A9B10120A9224F
:100E50000C490D4B98470DF106030122A18820682B
:100E60000A4CA047024620B9BDF80630C3F3800300
:100E70002B70104603B030BD0020E8E70020E6E705
:100E80000020E4E74CE200004D15000009130000CB
:100E900010B5054C2046054B9847002221460448D2
:100EA000044B984710BD00BF34290120B511000044
:100EB0006C290120050E000008B5014B984708BDBC
:100EC000910E000008B502460E4B43610E4B836144
:100ED0000E4B622183F831104FF4C06119850C4923
:100EE0000868C3F82B008988A3F82F10062183F81F
:100EF0002A1046F6656159861046064B9847002031
:100F000008BD00BF959C00008923000074290120C2
:100F1000E00000205D23000030B589B0054607A938
:100F20000D480E4CA04706A90D48A04705A90D483D
:100F3000A0470D4B28681860AA889A800B4B029333
:100F40000B4B01930B4B009305AB06AA07A90A486C
:100F50000A4CA04709B030BD6CE2000061510000AE
:100F60007CE200008CE20000E0000020C19D000057
:100F7000C50E00003429012074290120F55D000010
:100F8000EFF31083036072B6BFF35F8F7047BFF358
:100F90005F8F036883F310887047000038B502251F
:100FA000002407E00D4A52F83330B3B1984738BDFA
:100FB000013AD5B2AC4210D82B195B10DAB2012A33
:100FC0000BD81346054901EBC20149688142E9D0BB
:100FD0008142EDD20132D4B2ECE738BDE800002006
:100FE00008B500230AE0084A02EBC3014FF0FF30C6
:100FF0004860002142F8331001339BB2012BF2D933
:101000000248034B984708BDE80000209D0F0000F0
:1010100091160000F0B583B004460023012B0ED8D2
:1010200018462E4A02EBC3025268A24202D0013394
:10103000DBB2F3E7294B43F83010012500E000252F
:1010400059B1002D3DD10023012B13D8234A52F86A
:10105000332042B10133DBB2F6E7002D38D0204611
:101060001F4B984732E01D4A42F8331002EBC3028F
:1010700054600125002201E00132D2B2012A20D8B9
:10108000012B1ED89E46154901EBC300406801EBB9
:10109000C20149688842EFD2B1F1FF3FECD00F4F57
:1010A00007EBC20696E803008DE8030007EBC307D1
:1010B00097E8030086E803009DE8030087E8030043
:1010C000DAE745B101212046054B984703B0F0BD52
:1010D0006FF00C00FAE76FF00C00F7E7E800002073
:1010E0006917000008B50121014B984708BD00BFF2
:1010F0006917000008B50021014B984708BD00BFE3
:101100006917000070B50D461646044668B151B126
:10111000012034220649074B984723683246294666
:101120002046984770BD0020F3E70020F1E700BF9C
:1011300098E200004D15000070B50D4616460446B5
:1011400068B151B101203D220649074B98476368B9
:10115000324629462046984770BD0020F3E700201C
:10116000F1E700BF98E200004D15000008B54369A3
:1011700003B1984708BD08B5836903B1984708BD16
:1011800038B50C46054660B149B101203122064907
:10119000064B984721462846054B984738BD002006
:1011A000F4E70020F2E700BFACE200004D150000BC
:1011B000FD18000010B5044645220549003018BF4F
:1011C0000120044B98472046034B984710BD00BFB1
:1011D000ACE200004D1500006519000070B50C462A
:1011E0001546064660B169B172B900205722074919
:1011F000074B98472A4621463046064B984770BD14
:101200000020F3E70020F1E70120EFE7ACE2000067
:101210004D1500007519000070B50D4616460446C0
:1012200061220649003018BF0120054B984732461D
:1012300029462046034B984770BD00BFACE2000032
:101240004D150000ED1A000010B504466B2205494B
:10125000003018BF0120044B98472046034B9847A5
:1012600010BD00BFACE200004D1500000D1C0000D9
:1012700070B50C461646054689221049003018BF45
:1012800001200F4B984724B1012C0CD06FF00C00BB
:1012900070BD6E612EB10B4A214628460A4B984715
:1012A00070BD0022F8E7AE612EB1084A21462846FB
:1012B000054B984770BD0022F8E700BFACE2000084
:1012C0004D1500006D1100007D1C0000771100001D
:1012D00070B50E461446054668B152B101209B22F6
:1012E0000649074B9847224631462846054B984702
:1012F00070BD0020F3E70020F1E700BFACE2000082
:101300004D150000B91C0000F8B50E4617461C46E6
:10131000054670B15BB10120B8220749074B9847D9
:1013200023463A4631462846054CA047F8BD0020E2
:10133000F2E70020F0E700BFACE200004D1500002E
:10134000011D000008B5436903B1984708BD08B501
:10135000836903B1984708BD38B50D46044688B186
:1013600071B1012033220849084B9847294620468D
:10137000074B9847074B2360074B6360002038BD3D
:101380000020EFE70020EDE7C8E200004D15000067
:1013900099200000451300004F13000010B50446CB
:1013A0004A220949003018BF0120084B98472046BF
:1013B000074B984720B92046064B9847002010BDA0
:1013C0006FF0100010BD00BFC8E200004D15000016
:1013D000AD2200001922000070B50D4616460446E5
:1013E0007C220649003018BF0120054B9847324641
:1013F00029462046034B9847002070BDC8E20000F4
:101400004D1500002D220000F8B50E461746054682
:1014100008B311B31ABB0020F1221249124B9847AE
:1014200005F108042046114B98470028F8D0002504
:10143000715D20460E4B984720460C4B984700287C
:10144000FAD00135BD42F3D320460A4B9847002815
:10145000FAD02846F8BD0020DEE70020DCE70120B6
:10146000DAE700BFE0E200004D1500009B1F00001E
:101470008D1F0000A51F00002DE9F0410F4690468A
:101480000546C8B1D1B1DAB900204FF486720D49D2
:101490000D4B9847002605F1080420460B4B984752
:1014A0000028F8D020460A4B9847B85501364645E3
:1014B000F1D33046BDE8F0810020E6E70020E4E704
:1014C0000120E2E7E0E200004D150000AF1F000040
:1014D000931F000038B50D460446A0B189B1012024
:1014E00034220A490A4B9847294604F10800094B5F
:1014F0009847034618B9084A6260084A22601846AD
:1015000038BD0020ECE70020EAE700BFE0E2000081
:101510004D1500004D1F0000791400000914000053
:1015200010B5044653220649003018BF0120054B70
:10153000984704F10800044B9847002010BD00BFF5
:10154000E0E200004D150000791F000000B900BE68
:10155000704700000346064A126822B1044A106828
:101560000344136070470349014A1160F6E700BF66
:10157000F8000020306202204FF0FF3070474FF437
:1015800000534B60002070470120704700207047D7
:1015900008B5084A13889BB21380074B9847074B3E
:1015A0009847074B9847074B984740F6FF70064B04
:1015B000984708BD00400041511D0000651D000016
:1015C000451D0000811D0000D917000070B582B0D4
:1015D0002A4B5A690192019A5A61294B1868EC22E8
:1015E0002849003018BF0120274B98474FF0FF359E
:1015F00035E0264B03EBC6067568B5F1FF3F03D017
:101600001F4B1B68284698470123A340019C24EAEE
:1016100003040194019B93FAA3F4B4FA84F40BB984
:101620004FF0FF34B4F1FF3F14D00220002101E05D
:10163000013BD8B28142E0D84318C3F347031E46AA
:10164000124A12F83320A242D3D0A242F0DA013378
:10165000D9B2EFE7094B5A690192019A5A61019B8D
:101660004BB1019B93FAA3F4B4FA84F4002BD9D1C3
:101670004FF0FF34D6E702B070BD00BF0028004035
:10168000FC0000200CE300004D150000FCE200000F
:10169000314B5B6813F0010F20D12F4B5B6813F0C7
:1016A000030FFAD12C4B1B7813F0020F0ED02A4AED
:1016B000137803F0FD031370274B5B6813F0030FDF
:1016C000FAD1254B5B6813F0020FFAD10122224BAD
:1016D0001A70214B5B6813F0030FFAD11E4B5B6845
:1016E00013F0010FFAD11C4A137803F0EF031370C3
:1016F000194B5B6813F0030FFAD1174B00225A7095
:101700009A609A611A635A631449D9611A621A7805
:1017100042F002021A70104B5B6813F0030FFAD10B
:101720000F4B4FF48052C3F88020BFF34F8FBFF3AD
:101730006F8FC3F880211A604FF40022C3F8802015
:10174000BFF34F8FBFF36F8FC3F880211A60054B33
:1017500018600020704700BF002800400100001002
:1017600000E100E0FC00002010B40023012B0DD8A4
:101770001C46114A02EBC3025268824202D0013376
:10178000DBB2F3E70C4B13F8342000E0FF22FF2A12
:101790000FD041B901239340084AD3605361002020
:1017A0005DF8044B704701239340044A1361002005
:1017B000F6E74FF0FF30F3E7FCE2000000280040BE
:1017C00008B5014B984708BDCD15000008B5014B81
:1017D000984708BDCD15000010F0010F08D0054A4C
:1017E000054B1A62044B5A6843F6FD731A42F9D14D
:1017F000704700BF01010100001C0040002212E000
:10180000204B40F2DC5101FB023103EBC203C3F871
:10181000B81B0021C3F8BC1B93F8BF1B41F080012B
:1018200083F8BF1B0132012AEAD9164A92F8C73B56
:1018300043F0400382F8C73B0023C2F8C83BC2F81C
:10184000CC3B0BE0104901EBC311104A02EBC30281
:10185000C2F8E8120021C2F8EC1201330F2BF1D9C3
:101860000A4B93F8602342F0020283F860230022BF
:10187000C3F8682302680649D161026803F53A7328
:101880009361704700010020E00C0020F811002057
:10189000B80C002000B583B0164BD3F86C03036876
:1018A0005A6901921A6A00925A6A019A12F0200F3C
:1018B0000DD0019A5A61104BD3F8C82B03EBC20329
:1018C00093F8BF3BDB0902D0436803B19847009B04
:1018D00013F0020F05D0074BD3F86C03836803B1F4
:1018E0009847044BD3F86C331B68009A1A6203B014
:1018F0005DF804FBF81100200001002038B5044613
:10190000016010230B600368114A5A6003680025C8
:10191000DD6003680F4A1A610368C3F8B8500368B2
:1019200040F20112C3F8BC200B4B98470B4BC3F895
:101930006C430B4B4FF48012C3F88820BFF34F8FDA
:10194000BFF36F8FC3F888219A60284638BD00BF67
:101950000301100004070200FD170000F811002029
:1019600000E100E00268136843F00C0313600020FC
:10197000704700002DE9F04180460F461446594B50
:10198000D3F8CC2B03EBC20393F8BF3BDB090BD09E
:10199000544BD3F8CC2B03EBC20393F8BD3BDB09CC
:1019A00002D10121012914D94E4BD3F8C82B03EBE6
:1019B000C20393F8BF3BDB0900F08B8040F2DC539D
:1019C0009C421CD8474BD3F8C82BC3F8CC2B00261D
:1019D0004DE0444BD3F8CC3B0B44012B00D9023BE8
:1019E000404A02EBC30393F8BF2B42F0800283F816
:1019F000BF2B93F8BD3BDB09D6D10131D2E70123E0
:101A0000012BDFD8374AD2F8C82B1A44012A00D953
:101A1000023A344901EBC20292F8BF2BD2095CD0E2
:101A200040F2DC5202FB134240F2DB518A42C9D938
:101A30000133E5E72B4BD3F8C82B03EBC202C2F806
:101A4000BC5BD3F8C82B03EBC20393F8BD2B42F069
:101A5000800283F8BD2B234BD3F8C82B0132C3F887
:101A6000C82BD3F8C83B022B1DD03CB30136012E46
:101A700024D840F2DC5325469C4228BF1D46194815
:101A8000D0F8C8EB2A4603FB067103FB0E00164B89
:101A90009847641BCED0134BD3F8C82B03EBC2037B
:101AA000C3F8BC5BD7E70F4B0022C3F8C82B93F8F1
:101AB000C72B42F0400283F8C72BD6E7BFF34F8F06
:101AC000D8F80020136843F4007313600020BDE8C9
:101AD000F0816FF01B00BDE8F0816FF01B00BDE8E6
:101AE000F08100BF0001002053CD00002DE9F84F28
:101AF000894690464FF0FF36002400E001340F2C59
:101B00002DD83F4BD3F8683323440F2B00D9103B1B
:101B10003B4A02EBC30292F8E82212F0010F28D0F0
:101B2000374A02EBC30292F8ED2212F0400F00D0C8
:101B30002646334A02EBC30292F8ED22D209DDD0E9
:101B4000B6F1FF3FDAD02E4A02EBC303B3F8EC3212
:101B5000C3F30C03984528BF9846274601E04FF091
:101B6000FF37B7F1FF3F07D07C1C4FF0000A554606
:101B70001CE04FF0FF37F4E7B6F1FF3FF5D03446F5
:101B8000F3E71F4BD3F8682303EBC20292F8E81285
:101B90006FF3000182F8E812D3F868230132C3F82A
:101BA0006823D3F86833102B21D00135A54223D206
:101BB000B7F1FF3FE5D0B542E3D3BD42E1D8B8F17C
:101BC000000FDED0C346B8F1800F28BF4FF0800B66
:101BD0000B4BD3F868135A460A4B03EBC111484626
:101BE000094B9847D944DA44A8EB0B08C9E700220F
:101BF000034BC3F86823D8E75046BDE8F88F00BF11
:101C0000F8110020E00C002053CD000010B400209B
:101C10000446014607E0184A02EBC30393F8ED328D
:101C2000DB0925D101310F2922D8134BD3F86833B2
:101C30000B440F2B00D9103B0F4A02EBC30292F862
:101C4000E82212F0010F13D00B4A02EBC30292F804
:101C5000ED2212F0400F00D00124002CDBD0064A08
:101C600002EBC302B2F8EC22C2F30C021044D2E73A
:101C70005DF8044B704700BFF811002069B10129DD
:101C800017D1426022B1036880229A620020704717
:101C900003688022DA6200207047826022B1036804
:101CA00002229A6200207047036802229A62002092
:101CB00070476FF00C00704770B506460C4615462D
:101CC00040F2CF120C49032C8CBF002001200B4B9B
:101CD00098473368296804F1110243F832103368D9
:101CE000A98803EBC20359603368EA882A3443F8B1
:101CF0002420002070BD00BF24E300004D1500002B
:101D000030B405682C6844F010042C600468C905E0
:101D100001F07861920402F4F8020A4342F0C042F2
:101D200042F4003262630268916811F0040FFAD045
:101D3000526B1A800268136823F0100313600020AE
:101D400030BC70470122014B5A71704700080040B7
:101D5000034BDA6902F47C52DA6101221A7470478B
:101D600000140040044A054B9A61044B1B6913F0B0
:101D7000020FFAD0704700BF062600030010004093
:101D80007047000000B583B00D4B9B78DBB2019328
:101D9000019B13F0020F06D00A4B1B681BB1084AC7
:101DA0005068984709E0019B13F0010F05D0054BDF
:101DB0005B6813B1024A5068984703B05DF804FBB2
:101DC00000000241AC29012070B489B006466C467F
:101DD0000C4D0FCD0FC495E80F0084E80F000020D4
:101DE00007280AD808AB03EB800353F8203CB34222
:101DF00001D00130F4E7C0B200E0002009B070BCAF
:101E0000704700BF3CE3000008B50C4B9847002327
:101E100043B140F247220A4900200A4B9847002369
:101E2000184608BD03EB4302D100074A0A4492F862
:101E300020209042F4D00133DBB2E9E7C91D000055
:101E4000B0E300004D1500003CE3000038B5044647
:101E50003C4B9847E36913F0010F22D100EB40039C
:101E6000DA00394B13445A6A02F01C02E36913F09A
:101E7000030FFBD1236813F0020F0BD0236823F06C
:101E800002032360E36913F0030FFBD1E36913F04E
:101E9000020FFBD142F001022260E36913F0030F4D
:101EA000FBD1E36913F0010FFBD100EB4003DA0033
:101EB000254B13445B6A2360E36913F0030FFBD1E6
:101EC00000EB4003DA00204B13449B6A6360E36934
:101ED00013F01F0FFBD142000244D1001A4B0B44F8
:101EE000DA6AA2605B6A13F4005F0AD113F4C04F90
:101EF00007D100EB4003DA00134B13441B8EA38180
:101F00000FE042000244D1000F4B0B44198EA2890E
:101F100061F30C02A28193F83220A38962F34F335C
:101F2000A381094A43001D18E9000D46114491F8A8
:101F30003310A1732A4492F8343084F830300020F2
:101F400038BD00BF091E00003CE3000038B50C4658
:101F50000546BB220549003018BF0120044B9847B5
:101F60002C602046034B984738BD00BFB0E300000B
:101F70004D1500004D1E00000268136843F0020377
:101F80001360D36913F0030FFBD1704703689962A4
:101F900070470368986AC0B270470368187E00F003
:101FA000010070470368187EC0F340007047036863
:101FB000187EC0F38000704738B505460469A37ADF
:101FC00013F0010F04D00123A372036803B19847F3
:101FD000637A13F0020F05D00223A3726B680BB172
:101FE0002846984738BD0000094B984206D0094B57
:101FF000984206D0084B984206D07047074B1960AC
:10200000F5E7064B5960F5E7044B9960F5E700BF2B
:1020100000380040001400420018004268150020FB
:1020200070B588B006466C46174D0FCD0FC495E8C5
:102030000F0084E80F000023072B0AD808AA02EB40
:10204000830252F8202CB24201D00133F4E7DBB214
:1020500000E00023002002280BD800EB80018A005A
:102060000A498A5C9A4202D00130C0B2F3E740B21A
:1020700007E04FF4B37206490020064B98474FF033
:10208000FF3008B070BD00BFCCE3000000000020AE
:10209000ECE300004D15000070B506460C460846FE
:1020A000594B984705463461236913F0010F19D144
:1020B000236913F0030FFBD1236813F0020F0BD039
:1020C000236823F002032360236913F0030FFBD17D
:1020D000236913F0020FFBD101232360236913F05E
:1020E000030FFBD1236913F0010FFBD105EB85032F
:1020F0009A00464B13445B682360236913F0030F77
:10210000FBD1AA002A449100404B0B449A7AE27317
:102110001A89E280032222735B6803F00C03082B08
:1021200059D0002B6BD105EB85039A00374B134434
:102130009B89A383236913F0C00FFBD105EB8503B3
:102140009A00324B13441B8AE383236913F0C00FB8
:10215000FBD1314620462E4B984705EB85039A006C
:102160002A4B1344B3F90230002B0DDB5A0903F05C
:102170001F03012101FA03F32032264941F82230DE
:10218000BFF34F8FBFF36F8F05EB85039A001F4B93
:102190001344B3F90230002B09DB5A0903F01F0383
:1021A000012101FA03F360321A4941F8223005EBAC
:1021B0008505AA00154B1344B3F90230002B21DB2F
:1021C000590903F01F03012202FA03F3114A42F8EE
:1021D0002130002070BD0D4B0B44DB68E3612369A7
:1021E00013F0C00FFBD105EB85039A00074B134496
:1021F0001B692362236913F0C00FFBD1A9E74FF0DD
:10220000FF3070BD002070BD2120000000000020C4
:10221000E91F000000E100E00269136843F00203D7
:102220001360136913F0030FFBD1704770B50E46AE
:102230001546046920461B4B9847820002449100D2
:10224000194B0B44DE601D615B6803F00C03082B27
:1022500016D000EB80039A00134B13449B89A38391
:10226000236913F0C00FFBD100EB800082000E4BFE
:1022700013441B8AE383236913F0C00FFBD170BDA5
:10228000E661236913F0C00FFBD100EB80008200F0
:10229000054B13441B692362236913F0C00FFBD164
:1022A00070BD00BF212000000000002002691369FA
:1022B00013F0030FFBD11068C0F3400070470020FB
:1022C0007047000008B5024B1868024B984708BDDC
:1022D00068150020B91F000008B5024B5868024B72
:1022E000984708BD68150020B91F000008B5024BCB
:1022F0009868024B984708BD68150020B91F000078
:1023000070B5056A2846114B984780B2D8B1811C38
:10231000002289B203200E4B9847044668B16FF043
:1023200001010C4EB0476289616828460A4B984704
:1023300002212046B047204670BD002211462846A3
:10234000054B9847F7E70024F5E700BF4912000066
:102350006D6000008F5F00001912000010B584B09E
:10236000046A034653F82B0F01909B88ADF80830A0
:1023700000218DF80C1001AA2046024B984704B0AA
:1023800010BD00BFD11200002DE9F0410E46076AD2
:102390006FF001013046194B9847328973899A4290
:1023A0000AD0D01C80B220F00300154B984780461D
:1023B00000B3054634460CE071683846114B984727
:1023C00011E06289616828460F4B984763891D4474
:1023D0002468002CF5D1328941463846094B98478C
:1023E00040460A4B984702213046044B984700204C
:1023F000BDE8F0814FF0FF30BDE8F0818F5F000055
:10240000CD5B0000DD11000053CD00007D5A0000BF
:1024100038B5054604E02B6929462046984798B907
:1024200028460C4B9847044690B14368D8890A4B1C
:102430009847B0F5006FEED040F606039842EAD018
:102440002046064B9847EBE72046044B9847E7E7C2
:1024500038BD00BF01230000C13E0000096000003C
:10246000002300E00133072BFCDD0022014B1A8022
:10247000704700BF7415002070B508B304460D46C0
:10248000114B9847032200210120104B98472060F0
:1024900020B100231A4619460D4EB047206860B19E
:1024A00025B100240B4B9847204670BD0023012224
:1024B0001946094CA0470024F4E74FF0FF34F1E738
:1024C0004FF0FF34F0E700BF45A6000085AC0000E8
:1024D00055AD000089A600000DB1000028B108B577
:1024E000006808B1014B984708BD7047D5B200009D
:1024F00038B110B500231A4619460068014CA047B0
:1025000010BD704755AD000030B370B505460C46A0
:1025100091B9134B98470646002342F210721946B0
:102520002868104CA0470028F6D00D4B98478642EB
:1025300010D9801B013870BD094B9847064600230F
:10254000224619462868074CA0470028EDD14FF0D5
:10255000FF3070BD801B70BD4FF0FF30704700BF73
:10256000ADB600000DB100000068704700230360A5
:102570007047000048B110B5044608460022042107
:10258000034B98472060002010BD4FF0FF3070478C
:1025900085AC000028B108B5006808B1014B984728
:1025A00008BD7047D5B2000030B583B00191054633
:1025B00040B1002342F2107201A92868024CA047E2
:1025C0000128F6D103B030BD55AD000010B584B080
:1025D000019148B3164B5B68C3F30803BBB10023FA
:1025E00004AA42F8043D01A90068124CA04760B952
:1025F0004FF0FF30039B93B14FF080520E4B1A60A7
:10260000BFF34F8FBFF36F8F09E00020F2E7002385
:102610001A4601A90068094CA04710B1002004B077
:1026200010BD4FF0FF30FAE74FF0FF30F7E700BF83
:1026300000ED00E029AF000004ED00E055AD000022
:1026400000282ED0F0B583B00D4614460646A1B141
:10265000ACB9154B98470746002342F21072294641
:102660003068124CA0470028F6D00F4B984787429D
:1026700015D9C01B013803B0F0BD01ADE8E70A4B26
:10268000984707460023224629463068074CA04752
:102690000028EAD100232B604FF0FF30EBE7C01B8E
:1026A000E9E74FF0FF307047ADB600000DB1000014
:1026B00078B110B582B0044649B100231A462068AB
:1026C000064CA04740B94FF0FF3002B010BD01A941
:1026D000F3E74FF0FF3070470020F6E70DB1000040
:1026E00000687047002303607047000010B586B093
:1026F0000C4699B200230393029305AB0193089B08
:10270000009313460A4601462046074CA04701287D
:1027100004D000230593059806B010BD034A138822
:1027200001331380F7E700BFC1B400007415002027
:1027300070B588B00023079359B10D4600230B6094
:1027400040B1044600F110063046254B984710B9B9
:10275000FEE7FEE7FEE794F9080010F1090F01DA41
:1027600008B070BD002207A930461E4B9847237859
:10277000102B2ED1237F13F0080F01D0079B4BB9EC
:10278000194B01930294079BB3B11B89049301A8D1
:10279000164B9847079B93B9A36A1BB100220121EE
:1027A0002046984794F9083013F1090F15DBF423FC
:1027B00023726FF00B00D3E701230493E7E71A8934
:1027C000A36A13B1012120469847079B2B60002084
:1027D000C6E7079B1B681A89F2E76FF00B00BFE79B
:1027E000E126000041260000B1320000313E000029
:1027F00030B587B00D4611460E4B9847044640B1A0
:102800000D4B00938DF80C50019068460B4B984788
:1028100010B9204607B030BD04F10C00084B9847B2
:1028200004F11000074B984721460720064B9847B4
:102830000024EEE7FD2F0000D52F0000313E000000
:10284000DD24000095250000315D000070B110B559
:1028500086B00446064B009301906846054B9847A6
:102860002046054B9847002006B010BD0020704759
:1028700061310000313E000075300000B0B110B58C
:1028800086B0044699B19AB10A4800900194039128
:1028900004928DF814306846074B984794F9083035
:1028A00013F1090F00DB207206B010BDFEE7FEE752
:1028B000FEE700BF51330000313E000098B110B573
:1028C00086B00446084B009301900391ADF81020A8
:1028D0006846064B984794F9083013F1090F00DB5E
:1028E000207206B010BDFEE7FD310000313E000051
:1028F00038B108B50278102A00D0FEE7014B98479E
:1029000008BDFEE73127000059B170B582B00E4610
:1029100000230B6030B1044610301C4B984710B9AF
:10292000FEE7FEE7FEE72378102B07D0314620466E
:10293000174B98470446204602B070BD0023019310
:102940000620144B9847054648B994F9083013F10E
:10295000090F18DBFF2323724FF0FF34EBE701A9C7
:1029600020460B4B9847044620B1294606200A4BC7
:102970009847E0E7019B2B60019B6B600023AB81D4
:10298000AB603560D7E74FF0FF34D4E7E1260000B5
:1029900031270000095D0000315D000010B10278B0
:1029A000102A00D07047027F12F0080FFAD000B54D
:1029B00087B0054A0092019003916846034B9847FF
:1029C00007B05DF804FB00BFB1320000313E0000EB
:1029D00088B110B586B00446074B0093019003916F
:1029E0006846064B984794F9083013F1090F00DB4D
:1029F000207206B010BDFEE755320000313E0000E7
:102A0000F0B587B00C9E20B104460078102801D0A4
:102A1000FEE7FEE75AB3207F10F0020F21D113F03A
:102A2000040F20D0012000F0FF0700B10EB31546BF
:102A3000114A0092019403918DF814300495684670
:102A40000E4B9847034618B916B177B1049A326015
:102A500094F9082012F1090F00DB2372184607B021
:102A6000F0BD0120DFE70020DDE73560F0E700235F
:102A7000F4E76FF00503F1E7F9320000313E0000A2
:102A8000F8B504460F460023436001724578437051
:102A9000836A13B1002204219847A36A1BB1002264
:102AA000114620469847A36A1BB100220221204606
:102AB000984704F110063046144B984798B904F132
:102AC00014063046114B984790B9012D03D0042DC0
:102AD00001D0032D06D1237F23F00402227713F0C7
:102AE000040F0AD0F8BD00213046094B9847E6E7AD
:102AF00000213046064B9847E7E7636A1F710023C1
:102B0000636204F10C00034B9847EBE7E1260000F9
:102B1000CD250000F12400002DE9F041144638B124
:102B20009846054600F110063046194B984720B9E3
:102B30002046184B9847BDE8F0810620164B984771
:102B40000746C0B104604460B8F1000F18D0D8F84F
:102B50000030BB60BDF81830BB812489394630464F
:102B60000E4B984770B9AB6A1BB12246002128462C
:102B70009847BDE8F0812046064B9847BDE8F081B4
:102B80000023E6E73846064B9847BDE8F08100BFD2
:102B9000E126000009600000095D0000CD2500006D
:102BA000CD33000010B5014644682046094B9847D4
:102BB00009492046094B984709492046094B98473F
:102BC000042209492046094B984709492046094BE8
:102BD000984710BD31650000512F00003565000099
:102BE000F92E00003B650000A12E000049650000A1
:102BF000812A00003F65000038B5044605682B783F
:102C000003F0F003102B17D0202B21D1124B984743
:102C1000686023685A684AB11B78222B09D0236860
:102C20001A460E4958680E4B984738BDFF2323714A
:102C300038BD01231374F2E70A4B98476860206897
:102C4000436813B1084B984738BDFF23237138BD43
:102C5000FA23037138BD00BFD5950000192B000081
:102C6000959500009D6E0000A52B0000F8B5044668
:102C7000037F13F0020F06D1436A1B7C13F0040F8D
:102C80002BD0012500E00125EDB2606A037C81684C
:102C9000266A3144C268921BB2F5803F1FD343F0CD
:102CA00002034FF6FF726068B0F86660B24235D931
:102CB000BDB1C6B96FF00607002D31D0636ADB687D
:102CC0009E422DD2A36A1BB132460321204698476B
:102CD000237F43F0100323770DE00025D4E792B261
:102CE000E1E743F002033246234FB8470746431C4F
:102CF000DBB2012BE0D937BB236A1E442662636A2C
:102D0000DA68964200D01DB1DE60002323620125FF
:102D100060681A4B984725BB0020F8BD1646E2E7CD
:102D20006368B3F8661040F66732914203D9B3F88E
:102D30006830042BDFD9A36A002BDCD03246032194
:102D400020469847D7E7B7F1FF3F04D0636A0022D7
:102D5000DA600125DFE7002DF8D16068074B98475E
:102D6000D9E7636A1F7100236362637004F10C008A
:102D7000034B9847D0E700BF95850000518A0000BB
:102D8000F1240000F8B50446436A1D7A05F00107F6
:102D900005F00206032D2CD06068037E012B2DD098
:102DA000002F2FD1002E35D1032D38D0032D40D048
:102DB0003246394660682E4B9847002846D1626AF1
:102DC0000023137163626370032D36D02FB1A36AA1
:102DD0001BB100221146204698472EB1A36A1BB1B1
:102DE000002202212046984704F10C00214B98470D
:102DF000F8BD00214068204B9847CDE700211F4BCC
:102E00009847D3E700211E4B9847002160681B4B71
:102E10009847C7E7002160681A4B9847C4E7042227
:102E200000216068184B984700216068174B98474D
:102E3000BCE76068164B9847BFE76360A36A002B46
:102E4000C4D00022042120469847BFE7114960689A
:102E50000C4B98470422104960680B4B98470F4968
:102E600060680A4B984721466068034B9847F8BD55
:102E7000216C0000F1240000316500004565000070
:102E8000356500003B650000496500003F650000B6
:102E9000C56A0000F92E0000A12E0000812A000062
:102EA00010B504464378012B1CD0042B1DD0237F82
:102EB00013F0100F14D0626892B1B2F8660040F6B9
:102EC000673188420CD9B2F86820042A08D823F068
:102ED00010032377A36A1BB10022022120469847E2
:102EE000002010BD024B9847E1E7024B9847DEE710
:102EF0006D2C0000852D000038B50446154643783A
:102F0000012B1AD0042B1BD0ACB163689BB1B3F872
:102F1000661040F6673291420DD9B3F86830042B41
:102F200009D8237F23F010032377A36A1BB12A4615
:102F3000022120469847002038BD034B9847E3E71D
:102F4000024B9847E0E700BF6D2C0000852D000084
:102F50002DE9F04168B30746984614460D4600F146
:102F600010063046174B984748B92CB3218928469C
:102F7000154B98472046154B9847002414E097F9C5
:102F8000083013F1090F01DB87F808807CB125892F
:102F9000214630460E4B9847044678B9BB6A1BB1B0
:102FA0002A460021384698472046BDE8F081002592
:102FB000EEE76FF00504F7E70024F5E74FF0FF3484
:102FC000F2E700BFE1260000856400000960000010
:102FD000CD25000010B504460023037103685B682B
:102FE00023B120680C30034B984710BD024B984723
:102FF000F7E700BFF1240000F92B000070B505468B
:103000000E460720154B98470446D8B1002101729F
:103010000570416000F10C052846114B9847B0B986
:10302000102160180F4B984770B904F114000E4B33
:103030009847002363704FF0FF32A261A66263627B
:1030400023622377204670BD2846084B98472146C7
:103050000720074B98470024F4E700BF095D0000F4
:103060007924000075250000E5260000DD2400001D
:10307000315D000038B5044600F10C052846054BCB
:1030800098472846044B984721460720034B98470A
:1030900038BD00BFDD2400006D250000315D00005B
:1030A00070B582B0044600F110052846234B9847BE
:1030B00080B904F114052846204B984710BB3AE02C
:1030C000019E3EB1606810B131891D4B9847304672
:1030D0001C4B984701A928461B4B9847B0F1FF3F6E
:1030E00006D02378102BEBD00198184B9847F1E7C6
:1030F0002846174B98472846164B9847D9E720464D
:10310000154B984701A928460F4B9847B0F1FF3F50
:103110000BD0019C2046FFF7C3FF60680028EED06B
:103120000E4B984700236360E9E72846084B984711
:103130002846084B984702B070BD00BFE12600004A
:103140008564000009600000B1260000CD33000056
:1031500095250000E526000075300000256D000073
:1031600010B504460068437863B1022B0AD0032BE4
:1031700008D0FB23237120680C301B4B9847002894
:103180002DD110BD194B98472268516879B1137839
:1031900003F0F003102B18D0202B05D10023CB61B6
:1031A00023685868124B9847236800225A602068A9
:1031B000836A13B10022114698472068836A002B66
:1031C000D9D0002202219847D5E704235370032366
:1031D000237223685C622068064B984710BD206804
:1031E0000C30054B9847CCE769250000A130000062
:1031F0009D950000852D0000F124000010B50446C7
:10320000036893F9082012F1090F10DBFA2202710A
:10321000586868B11B7803F0F003102B0DD0202BF9
:1032200006D1A289A168084B9847207100E002717D
:1032300020680C30054B984710BDA289A168044B4B
:1032400098472071F4E700BFBD930000F12400000F
:10325000B563000038B50446036893F9082012F1FD
:10326000090F13DBF3220271586880B11B7803F059
:10327000F003202B0BD1A16811F1080201D08B685B
:1032800053B90968074B9847207100E00271206824
:103290000C30054B984738BD8B890968034DA8470A
:1032A0002071F4E781950000F12400004D950000A5
:1032B00070B506460023037103685A6812B11B7883
:1032C000102B04D030680C30094B984770BD8468CF
:1032D00008E04FF6FF75336829465868054B984754
:1032E000641BEFD0B4F5803FF3D2A5B2F3E700BF83
:1032F000F12400008564000008B5036893F90820F4
:1033000012F1090F05DA027103F10C000E4B984718
:1033100008BD1A78102A02D0FA220271F4E75A780E
:1033200012B1FB220271EFE75A6852B101225A70C2
:1033300003685862036800221A620068034B9847CA
:1033400008BDF3220271DFE7F12400006D2C0000BC
:1033500008B503685B68002B32D08268017CA9B194
:103360001B681360002303710268137803F0F003F5
:10337000102B17D0202B1BD1037C53B953681A7C18
:1033800012F0040F0AD1F323037111E05B6813609C
:10339000E8E7C3685268528A1A8009E0C2689B8ACB
:1033A000138005E0C368017C39B15268528B1A80E2
:1033B00000680C30044B984708BD5268928BF6E7C2
:1033C000F3230371F4E700BFF124000068B110B5E6
:1033D0000446006820B1054B9847002363602360D2
:1033E00021460620024B984710BD70470960000037
:1033F000315D000048B110B50446006808B1034BC8
:10340000984700236360236010BDFEE70960000059
:10341000B0B170B5044615460E46006808B10B4BB6
:103420009847022200210846094B9847206040B186
:10343000466023681D815D8123686360002070BD44
:10344000FEE7002363604FF0FF3070BD09600000AD
:103450006D60000003280ED810B4084C4300191802
:10346000CA001146224463581BB110465DF8044B54
:1034700070470022F9E700221046704778150020B7
:103480000023032B2BDC30B403EB4304E200164C87
:10349000A2583AB10133032BF6DD4FF0FF33184643
:1034A00030BC704725465A001A44D4002A192851C6
:1034B00000245460148154810278102A0BD0012119
:1034C00058001844C400084A224491810021D18147
:1034D00011615161E3E70029F2D00121F0E74FF0DB
:1034E000FF331846704700BF78150020002875D0BC
:1034F00070B58669002E0DDB0C463046384B984778
:103500000546002869D0042C0DD8DFE804F0081225
:10351000171A1D00002960D1013E866170BDB0F907
:103520000A30013343816B69002B56D02D4B1C6E42
:1035300015E0B0F90A30013B4381F4E701238381B0
:10354000F1E700238381EEE70123C381EBE7002B42
:103550003CD1244B5A6E5B6E9A42E7D12468002C12
:103560003BD06369002BF4D1B5F90A20002A0BDDAA
:10357000A2684AB1710952F8211006F01F00012219
:103580008240114200D00123AA8962B15BB9E2688E
:103590004AB1710952F8211006F01F000122824041
:1035A000114200D00123EA89002AD0D0002BCED1CD
:1035B0002269002ACBD0710952F8211006F01F00B1
:1035C000012282401142C2D00123C0E7012363617E
:1035D00004F11800044B9847BBE770BD704700BF6B
:1035E0005534000078150020F124000010B5016862
:1035F00043688268C468062B3ED040F6FF70834261
:1036000005D05BB308680C30284B984710BD202AC2
:1036100005D041F20A039A4210D0082AF2D1236859
:103620002BB10B685868037A1A430272EAE70B68F9
:103630005868037A23EA02020272E3E7236833B18F
:103640000B685A68137C43F001031374DAE70B68C4
:103650005A68137C03F0FE031374D3E7012A06D0E3
:10366000022ACFD10B685B6822789A72CAE70B688E
:103670005B6822785A72C5E7012A07D0022AC1D1B5
:103680000B685B682268C3F89020BBE7236833B1FE
:103690000B685A68937F43F040039377B2E70B6857
:1036A0005A68937F23F040039377ABE7F12400003F
:1036B00070470000F0B583B00C461646164B98478D
:1036C00038B30546102E00D0FEE76378022BFBD1FD
:1036D00014F0030FF8D1636802AE46F8043D0768A2
:1036E00060880E4B98470246314638460C4B984747
:1036F00060B143420F2B07D80A4A52F823302B619E
:103700004FF0FF3003B0F0BD0523F8E7002028613B
:10371000F8E74FF0FF30F5E755340000CD3E0000EC
:10372000BD28000000E400002DE9F04F8BB00191AE
:103730001746984600230993814B9847002800F0CC
:10374000F98005464FF0000BDA460097C1467AE053
:1037500019F0080F04D12B681B7F13F0020F03D060
:10376000B5F90A30002B0ADD28680378102B15D034
:1037700009A9744B9847A8B9099B6B6067E0BAF137
:10378000000F06DD514628686F4B984700232B61D8
:10379000CCE00B232B614FF0FF3AC7E009A96B4B3C
:1037A0009847E8E7BAF1000F0DDC43420F2B11D820
:1037B000674A52F823302B6110F10C0F40F0BD80A6
:1037C0004FF0000AB2E0514628685F4B984700234B
:1037D0002B61ABE00523EEE7DDF824803EE02646D2
:1037E00045E04FF0010B5EE04FF0010B5BE04FF066
:1037F000010B58E04FF0010B55E04FF0010B52E088
:1038000000230DF1220203A9DFF85C81C0470DF10E
:103810000C0859E0159B1A6804A914984D4B984759
:1038200019F0010F0CD12B681A78102A68D00022E9
:103830006A602A811B78102B6BD00998464B9847F9
:10384000BBF1000F69D16B68002B81D009932B6805
:103850001B78102BC0D0099BD3F80080B8F8084023
:103860002B89E41AA4B20099A142B8D88EB232468C
:10387000019951444046394FB8473746B244286809
:103880000378102BADD1009A921B0092ACD098F81F
:103890000D2012F0010FAAD1B5F90A20002AA9DDE6
:1038A00019F0010FA9D1BBF1000FB9D0149A002A69
:1038B000B6D0159A002AB3D0102BA1D0099B03F1E2
:1038C00008089B89ADF822300023049305930693E2
:1038D000079310238DF8103002238DF81130BDF8B6
:1038E00022001F4B9847ADF81200D8F8003005931E
:1038F000159B1B68102B8DD91023159A136089E72F
:10390000E41B002C93DD099B6B602B891E442E81E8
:1039100096E70998134B984792E7BAF1000F03DD39
:1039200051462868084B984700232B6150460BB03E
:10393000BDE8F08F4FF0FF3AF8E74FF0FF3AF5E7B8
:1039400055340000092900009D290000F1280000DD
:1039500000E4000053CD0000CD330000F162000010
:10396000C13E0000096000007D28000010B582B053
:10397000002401940094024CA04702B010BD00BF87
:10398000293700002DE9F04784B081468846144667
:103990009A460C9D0D9F294B9847002847D0064614
:1039A00003681B78102B05D01FFA84F95DB1102F26
:1039B0002FD0FEE75346224641464846204CA047BA
:1039C00004B0BDE8F087002FF1D1002301930093EC
:1039D00035B36B68029368881A4B9847ADF80C00B2
:1039E0004A4641466846184B9847054620B96946FD
:1039F0003068164B984705466846154B98476B420A
:103A00000F2B12D8134A52F82330336195B9A0B264
:103A1000D6E76B78022BCCD115F0030FD5D0C8E7D1
:103A200000230293ADF80C30DAE70523EDE74FF001
:103A3000FF30C5E74FF0FF30C2E700BF553400004C
:103A4000593A0000CD3E000011340000D129000099
:103A5000F533000000E400002DE9F04184B0804619
:103A60000E4617461D461F4B9847002833D0044684
:103A700003681B78102B1ED115F0100F25D00321E1
:103A800015F0080F23D0042304AA002042F8040DE7
:103A9000206800920B433A463146134DA8474342F3
:103AA0000F2B16D8114A52F823302361B0B903986E
:103AB00004B0BDE8F0810023019300932B463A4601
:103AC000314640460A4CA047F2E70121D8E70023DF
:103AD000DAE70523E9E74FF0FF30E9E74FF0FF3081
:103AE000E6E700BF55340000012A000000E40000B2
:103AF0008539000038B51346022918D0032904D0AF
:103B000001291FD04FF0FF340FE0184AD9B24020EE
:103B1000174B9847054635B300212846154B984763
:103B20000446B0F1FF3F1AD0A861204638BD882A6C
:103B300006D020200D4A00210D4B98470546EAE7A4
:103B40002120F7E7094A00211020094B9847054634
:103B50000028E0D0037F43F008030377DBE7284623
:103B6000054B9847E1E74FF0FF34DEE7ED34000006
:103B7000F1270000813400004D280000F0B587B027
:103B80000C4617461E463E4B9847002874D0054603
:103B900026B3062C51D040F6FF739C4223D0002C54
:103BA00043D05C23002B60D10095019402970396CB
:103BB0000CAA04928DF81430012269463148324B28
:103BC0009847286800210C30304B98479DF91430F5
:103BD0002B61002B4DD1002007B0F0BD0E230361F7
:103BE0004FF0FF30F8E7202F07D041F20A039F4241
:103BF00008D0082F01D05C23D4E70C9B032B2AD9D3
:103C00000023CFE70C9B032B06D900232A681178E9
:103C1000202903D06123C5E71623F7E75268127CF9
:103C200012F0020FBED06123BCE77B1E012B14D81B
:103C30000C9B032B13D90023B4E70C9B032B10D947
:103C400003681B78102B01D00020C5E77B1E012BD9
:103C500009D80023A6E71623A4E75C23A2E71623CE
:103C6000A0E716239EE75C239CE72B614FF0FF3013
:103C7000B2E74FF0FF30AFE74FF0FF30ACE700BFE7
:103C800055340000ED350000BD3D00000925000061
:103C900000B583B0294B1B683BB1284A5068984750
:103CA00003E0986850F8043B984701A92448254B45
:103CB0009847019B1A78052AF7D801A151F822F0FC
:103CC000A33C0000D93C0000FD3C0000113D000079
:103CD000233D0000333D0000D96891F8312012F0F7
:103CE000600F07D09868184B984701990920174B27
:103CF0009847DAE79868164B9847F6E71A69D96843
:103D00009868144B984701990820104B9847CCE7C6
:103D10001969D868104B9847019908200B4B9847B0
:103D2000C3E79A68D868904701990820074B9847DD
:103D3000BBE79A68D8689047B7E700BFE015002056
:103D4000E8150020F9900000C19D0000315D0000E1
:103D5000054E0000F98E0000A990000070B50646DF
:103D60000D461148114B9847B8B10920104B9847A0
:103D70000446A8B1012303708660C56001460A4865
:103D80000C4B9847034608B9184670BD21460920D8
:103D9000094B98474FF0FF33F6E76FF00503F3E761
:103DA0004FF0FF33F0E700BFE8150020E1260000E8
:103DB000095D0000CD250000315D0000F8B5074623
:103DC0000E4615461448154B9847F0B10820144B81
:103DD00098470446E0B1042303708760C6603DB98C
:103DE00001460D480F4B9847034638B91846F8BDB1
:103DF000014609480C4B98470023F7E72146082065
:103E00000A4B98474FF0FF33F0E76FF00503EDE7FB
:103E10004FF0FF33EAE700BFE8150020E12600007D
:103E2000095D0000CD250000A9250000315D0000DE
:103E300030B587B004460C480C4B984780B100253C
:103E40008DF80450039401A90748094B984760680E
:103E500029460C30074B984794F9080007B030BD4D
:103E60006FF00500FAE700BFE8150020E12600002A
:103E7000A92500000925000030B583B005460C4691
:103E8000094B984709480560446010210830084BE9
:103E90009847012300934FF48363002205490648A5
:103EA000064CA04703B030BDC1490000E01500201A
:103EB00075250000913C000040E40000ED26000064
:103EC000030A43EA002080B27047000008B5014BA6
:103ED000984708BDC13E0000030203F47F0343EA94
:103EE0000063020A02F47F42134343EA1060704702
:103EF00008B5014B984708BDD93E0000037B8B42B3
:103F000003D00173002343734383704730B4436984
:103F1000048B651C0583234483F8F0104369018BEF
:103F20004C1C04830B4483F8F02030BC704710B461
:103F30004369028B541C0483134483F8F0105DF82A
:103F4000044B704710B44369028B541C04830C0A61
:103F5000134483F8F0404369028B541C04831344D8
:103F600083F8F0105DF8044B704710B44369028B7E
:103F7000541C04830C0E134483F8F0404369028BF5
:103F8000541C0483C1F30744134483F8F04043698D
:103F9000028B541C0483C1F30724134483F8F040BC
:103FA0004369028B541C0483134483F8F0105DF8BA
:103FB000044B7047014640B14369028B501C088393
:103FC0001344FF2283F8F02009E0FEE7432B0CD8CE
:103FD0004A69581C08831344002283F8F0200B8B95
:103FE000432BF3D913F0030FF0D1704700284FD0C3
:103FF0002DE9F041064600294BD015460C4600221B
:104000004FF49A7110464F4B98472061002800F0FA
:104010009580637B1BB94C4A1368013313604A4B8C
:104020001B682360426862610123137062695370E8
:10403000636996F82A209A7063690027DF70D4F8C4
:1040400014802068414B9847C8F8040063691F72C8
:104050005F7263699F72DF7263691F735F739F731F
:10406000DF73082D1BD0042D19D0032D12D06269E7
:104070000023137453749374D37462691375537566
:104080009375D3756269137653769376D3760FE082
:10409000FEE7FEE7237B043BDBB2012BE7D8636935
:1040A0007268DA60E3E700200A44107701339BB2BC
:1040B0000F2B09D86269194696F82A008342F2D27A
:1040C000F01890F82B00EFE7002306E062691A442D
:1040D000002182F82C1001339BB23F2BF6D900232C
:1040E0007F2B07D862691A44002182F86C100133D3
:1040F0009BB2F5E762690023632182F8EC106FF050
:104100007D0082F8ED00532082F8EE0082F8EF1077
:10411000238305E062691A4482F8F03001339BB2D0
:10412000432BF7D9012235212046094B98472946D0
:104130002046084B98470020BDE8F0814FF0FF3043
:10414000BDE8F0816D6000003C000020D93E000019
:104150000D3F00002F3F000048B110B50446006934
:1041600008B1034B984700232361636110BDFEE74C
:104170000960000070B582B00646446A04212046FA
:10418000204B98470322214630461F4B984705464F
:10419000C0B1637B0133DBB26373092B2FD89BB2B1
:1041A000C3EB431203EB8203DA0093B203F2F3137F
:1041B000164A82FB0312DB17C3EB621363832846A4
:1041C00002B070BD022239212046114B9847318D33
:1041D0002046104B984720460F4B9847218BF031D3
:1041E00089B220690D4B9847216960680096432386
:1041F0000B4A0C4EB04720460B4B9847C9E742F29A
:104200001073D3E7FD3E0000ED3F0000D34D621078
:104210000D3F0000453F0000B53F000095610000E4
:1042200050E40000419400005941000008B5436A81
:104230001B7B012B03D00A2B01D0052B01D1014B95
:10424000984708BD75410000F0B583B00646446A42
:104250000023636206212046274B9847012221460E
:104260003046264B98470546A8B1637B0133DAB246
:104270006273052A3DD84FF47A7393409BB203F2E0
:10428000F3131F4A82FB0312DB17C3EB6213638332
:10429000284603B0F0BD022239212046194FB84705
:1042A000318D2046184B9847042237212046B847C5
:1042B00001212046154FB84703212046B8471C214D
:1042C0002046B84706212046B8472046104B98475D
:1042D000218BF03189B220690E4B984721696068C3
:1042E000009643230C4A0D4EB04720460C4B98478E
:1042F000BBE74EF66023C2E7FD3E0000ED3F000045
:10430000D34D62100D3F0000453F00002F3F0000DD
:10431000B53F00009561000050E4000041940000AA
:10432000594100002DE9F04383B00646446A01215B
:104330002046334B9847032221463046314B98475D
:104340000546B0B1637B0133DAB26273052A54D8F3
:104350004FF47A7393409BB203F2F3132A4A82FB21
:104360000312DB17C3EB62136383284603B0BDE877
:10437000F083022239212046244FB847318D204650
:10438000234B9847042232212046B847606ADFF861
:104390009C90C84701462046DFF89480C04704221D
:1043A00036212046B847206AC84701462046C04704
:1043B000042237212046B84701212046154FB8472F
:1043C00003212046B8471C212046B8470621204635
:1043D000B8472046104B9847218BF03189B22069AD
:1043E0000E4B984721696068009643230C4A0D4E96
:1043F000B04720460C4B9847A4E74EF66023ABE746
:10440000FD3E0000ED3F0000D34D62100D3F000067
:10441000453F00002F3F0000B53F000095610000C0
:1044200050E400004194000059410000F13E0000BA
:104430006B3F0000F0B583B00646446A0321204676
:10444000264B9847032221463046254B9847054680
:10445000C0B1637B0133DBB26373092B3BD89BB2E2
:10446000C3EB431203EB8203DA0093B203F2F313BC
:104470001C4A82FB0312DB17C3EB621363832846DB
:1044800003B0F0BD022239212046174FB8474FF440
:1044900010712046154B9847042232212046B84718
:1044A000606A134B984701462046124B98472046B6
:1044B000114B9847218BF03189B220690F4B9847F7
:1044C00021696068009643230D4A0E4EB04720468E
:1044D0000D4B9847BDE742F21073C7E7FD3E000061
:1044E000ED3F0000D34D62100D3F0000453F00003E
:1044F000F13E00006B3F0000B53F000095610000F9
:1045000050E40000419400005941000070B582B0B1
:104510000546446A0C212046174B98470422214641
:104520002846164B98470646F0B904223221204609
:10453000134B9847606A134B984701462046124B2D
:1045400098472046114B9847218BF03189B220695A
:104550000F4B9847009543230E4A216960680E4D22
:10456000A84720460D4B9847637B013363731423A0
:104570006383304602B070BDFD3E0000ED3F000099
:104580000D3F0000F13E00006B3F0000B53F000012
:104590009561000050E40000419400005941000082
:1045A00038B50546446A08212046074B9847002243
:1045B00004F124012846054B9847637B013363735C
:1045C0000123638338BD00BFFD3E00003D9B00001A
:1045D000002855D030B583B00546446A002C50D031
:1045E000636BB3F1FF3F0ED01E332F4AA2FB0323B0
:1045F0005B09B3F5803F01D34FF6FF739BB2A383F2
:104600000BB90123A383A36BB3F1FF3F0ED01E337D
:10461000254AA2FB03235B09B3F5803F01D34FF684
:10462000FF739BB2E3830BB90123E383A28BE38B7C
:104630009A4202D30BB10023A383A37B13B3A36AD3
:104640000193E36A00932BB9636A019A134043F024
:104650008073009304F124012846144B984701A964
:104660002846134B984769462846124B98472846D8
:10467000114B98470A212046104B984703B030BD94
:10468000FEE7FEE794F8243013F0800F02D1FF23F9
:104690000193D6E7BF2B03D96FF07F430193D0E797
:1046A0004FF6FF730193CCE7898888884D5D000041
:1046B000BD5D0000B15D0000515E0000FD3E0000E8
:1046C00038B108B50346426A12B1107B082801D000
:1046D00008BDFEE70968526A9142F9D11846014BBC
:1046E0009847F5E70D45000070B582B00646446A6C
:1046F00005212046214B9847032221463046204B76
:1047000098470546C0B1637B0133DBB26373092B65
:1047100030D89BB2C3EB431203EB82031A0193B26E
:1047200003F2F313174A82FB0312DB17C3EB621386
:104730006383284602B070BD022239212046124B05
:104740009847318D2046114B98472046104B98478B
:10475000218BF03189B220690E4B9847216960683E
:104760000096432304F120020B4EB04720460B4B2A
:104770009847C8E744F62063D2E700BFFD3E00003B
:10478000ED3F0000D34D62100D3F0000453F00009B
:10479000B53F0000956100004194000059410000C0
:1047A00008B5436A1B7B012B03D00A2B01D0052BD4
:1047B00001D1014B984708BDE946000010B50D4BEB
:1047C0001C6803E020460C4B984724688CB1636A50
:1047D000002BFAD0DA8B511ED983012AF2D0626AFB
:1047E000938B591E9183012BEFD12046034B9847A1
:1047F000EBE710BDE06101202D420000A147000061
:10480000F0B583B00546446A00212046284B9847FE
:10481000002323626362A362E362A363636323638F
:10482000072221462846234B9847064640B3637B20
:104830000133DBB26373092B37D89BB2C3EB43124E
:1048400003EB8203DA0093B203F2F3131A4A82FBFA
:104850000312DB17C3EB621363832846174B984799
:10486000174C21462846174B984721462846164B99
:10487000984721462846154B9847304603B0F0BD6F
:104880002046134B9847218BF03189B22069114B98
:104890009847216960680095432304F120020E4F78
:1048A000B84720460D4B9847C1E742F21073CBE75B
:1048B000FD3E0000ED3F0000D34D6210915E000010
:1048C00054E400004D5D0000B15D0000BD5D0000DE
:1048D000B53F00009561000041940000594100007F
:1048E00010B50446426A137B0C2B0CD0062B0AD061
:1048F000012B0CD0082B16D0052B1DD0042B1ED05D
:10490000032B28D010BD2046174B984710BD537B72
:10491000052B02D8154B984710BD154B98472046DC
:10492000114B984710BD537B012B02D9114B98476F
:1049300010BD114B984710BD104B984710BD537BCD
:10494000082B02D80E4B984710BD094B98472046BC
:10495000054B984710BD537B012B02D9024B98475A
:10496000D0E7084B984710BD49420000254300009E
:1049700001480000D1450000A1450000E9460000C3
:10498000754100003544000010B50B4B1C6802E077
:10499000012B0AD0246874B1626A002AFAD0538BC2
:1049A000012BF5D9013B5383F4E7013B53832046A8
:1049B000024B9847EEE710BDE0610120E14800009E
:1049C00008B5084B9847084B9847084B9847084B41
:1049D0009847084B9847084B9847084B9847084B0F
:1049E000984708BD61240000415A0000A15C000006
:1049F000495D0000B1360000B9910000B1630000CC
:104A0000E58F00002DE9F04385B0804689461546C4
:104A1000002224210120224B984700283DD0064641
:104A2000D8F80470446884F80090657000252571FA
:104A30006571A571E571D0F804C0D8F80430D3F8D9
:104A400000E058689968D3F80C80CCF808E0CCF8FE
:104A50000C00CCF81010CCF81480D3F810E0586992
:104A60009969CCF818E0CCF81C00CCF82010A5709F
:104A7000E570718920460B4B98476080FB6804AA5B
:104A800042F8043D012301930095FF232946304657
:104A9000054CA0473046054B984705B0BDE8F0836C
:104AA0006D600000354D0000E1500000096000001D
:104AB0002DE9F04385B005460F464668317801F090
:104AC0000F0189000FFA81F849420CB22146494B87
:104AD0009847D0B92B89032B17D96B681B78082B03
:104AE00076D1454B186800F0F003E02B13D04FF05F
:104AF00001093946414B984708B14FF00009B9F117
:104B0000000F0BD02B89072B0CD828463C4B98471D
:104B100005B0BDE8F0834FF00009EAE72846384BBE
:104B20009847F5E72846374B984768B92421284627
:104B3000304B984730B3414628462E4B984738B102
:104B400028462F4B9847E3E728462D4B9847DFE749
:104B50000022298902202C4B984781460028EFD05B
:104B600029462A4B98470028EAD1D9F80460214603
:104B70004846204B98470028E2D12846204B9847CA
:104B80004D4606E06FF0230128461A4B984700284F
:104B9000D6D16A68184B1B68F3601D4B1B683361E4
:104BA0000023137053884FF6F6718B4214D90933E2
:104BB0005380FF2333720023B372F3721421304603
:104BC000144B98477081414628460A4B984730B1AC
:104BD00028460B4B98479BE708335380E9E7029739
:104BE0000123019300220092FF23034928460A4C27
:104BF000A047EDE78F5F0000C4290120215100008C
:104C000009600000454D00006D6000004D6200002D
:104C1000BC290120354D0000ED4F000008B50A46C3
:104C20000321014B984708BD054A000008B50A4614
:104C30000B21014B984708BD054A000010B483B012
:104C40000023ADF8063010F0010407D0994208DDCA
:104C5000431C02788DF80720013900E0034600224A
:104C600005E00346FBE718880244023902330129B4
:104C7000F9DC002902DD1B788DF80630BDF806004E
:104C8000024490B200EB124290B200EB124024B109
:104C900003029BB2C0F30720184380B203B05DF853
:104CA000044B70472DE9F8430546894690461E4659
:104CB00000273C4600E02D68A5B1698968681B4B58
:104CC00098470444A0B200EB14446B8913F0010F21
:104CD000F1D0C7F10107FFB223029BB2C4F307244E
:104CE0001C43E8E727B123029BB2C4F307241C430B
:104CF000D9F8003014FA83F404EB1344D8F8000018
:104D000014FA80F404EB10443046094DA8470444DB
:104D1000BDF82000A847204483B203EB104398B2AB
:104D200000EB1340C04380B2BDE8F8833D4C000067
:104D3000C13E000008B5024B9847C04380B208BD91
:104D40003D4C000070B505460026344600E02D6855
:104D5000A5B1698968680E4B9847204484B204EB7A
:104D600010446B8913F0010FF1D0C6F10106F6B2C1
:104D700023029BB2C4F307241C43E8E726B12302B5
:104D80009BB2C4F307241C43E04380B270BD00BF54
:104D90003D4C0000194B1B680EE0194A106838B1F1
:104DA00090F8312012F0010F02D1184600E01846A9
:104DB0005DF8044B70471B68A3B193F8312012F0E3
:104DC000010FF8D010B402685C68996862400A422A
:104DD000EDD01B68002BE0D093F8312012F0010FCA
:104DE000F7D0F0E7064A10680028E3D090F83120A9
:104DF00012F0010FDED11846704700BFE0610120BC
:104E0000E46101202DE9F8430646D0F8048098F8C3
:104E100000301A09042A04D0654B98470020BDE8E9
:104E2000F8830F4603F00F039D00B8F80200614BB2
:104E30009847044673899D4202D83389984203D922
:104E400030465B4B9847E9E7294640465A4B98471E
:104E500078B921463046594B9847D8F81020584B1E
:104E60001A60D8F80C20574B1A603C464FF00109E5
:104E70000DE030464E4B9847D0E7B9F1000F4ED0C9
:104E8000514B1C684FF00009BC424AD09CB194F8C9
:104E9000313013F0010FF0D014F1040FEDD063683E
:104EA000002BEAD0464A1068834204D02146474B83
:104EB00098470028E1D0002C35D001231BB1414B8D
:104EC000186800283FD1002C4BD0B8F8063023F0EA
:104ED000C0039BB2002B48D13D4B1F603D4BC3F834
:104EE000008098F80930062B57D0112B47D0012BA2
:104EF00058D03946324B1868344B984758B9304B24
:104F00001B6803F0F003E02B05D0C6F804800221F3
:104F10003046314B98473046254B984733E024685C
:104F2000B2E72468B2E798F80930112B01D00123C9
:104F3000C4E745446B88B3F5884F01D00123BDE732
:104F40003C460023BAE73946204B984728B91D4B09
:104F50001B6803F0F003E02BB5D13046144B9847A3
:104F60005CE73046124B984758E730461B4B984752
:104F7000064600283FF452AFD0F80480ACE739462B
:104F80003046174B98470023114A1360114A1360AB
:104F90000C4A13600A4A136040E739463046114B09
:104FA0009847F0E7394630460F4B9847EBE700BF8C
:104FB00009600000CD3E0000354D00009561000005
:104FC000C4290120BC290120E061012021510000F9
:104FD000C0290120C82901201D4C00006156000095
:104FE000BD910000D17E0000B14A00002DE9F04FD4
:104FF00083B006469DF830A09DF834B00E9F002A7D
:1050000055D089461C4690461421314B98470028BC
:105010005AD175682C7285F809B044EA0B24D8F887
:105020000000286114FA80F404EB104445232B702F
:1050300085F801A04FEA0A2A4AEA030A5444308953
:10504000DFF894A0D047688004440023AB71EB7173
:10505000DFF888B0BBF80000D047A8800444BBF854
:1050600000300133ABF80030B9F1000F02D0D9F8AD
:105070000030D3B97B68EB60E86814FA80F303EB87
:10508000104083B203EB104303EB1343DB436B810C
:105090003B8D13B13289934210D37B69424631462E
:1050A0003846984703B0BDE8F08FEB60E4E743680B
:1050B0001B690DF1080848F8043DE9E74246394606
:1050C0003046044B9847EDE76FF00100EAE700BF78
:1050D0008F5F000015580000C13E0000EC15002055
:1050E000F0B585B005460E4614461F4610460A4BDD
:1050F000984770B102909DF82C3001939DF82830AC
:1051000000933B46224631462846044CA04705B052
:10511000F0BD6FF00300FAE7954D0000ED4F000081
:10512000431E13F1030F11D891F8313013F0020F21
:105130000ED04B6898420DD08A68434013420BD181
:10514000D24332EA000309D00020704701207047A3
:1051500000207047002070470020704701207047F2
:1051600070B584B005460C4603786E463BE06A1C79
:105170006B78782B04D0582B02D0154608213AE0E2
:10518000AB780235102136E0102923D1A3F161025A
:10519000D2B2052A04D9A3F14102D2B2052A19D804
:1051A000000103F10A02613BDBB2192B10D8612325
:1051B000D21A104315F8013FA3F13002D2B2092AE6
:1051C000E2D800FB0133A3F1300015F8013FF3E70B
:1051D0004123EDE72E2B10D103AB9E424BD2306022
:1051E0006B7804360135A3F13002D2B2092A40D8D7
:1051F000302BBCD00A210020DEE76BB1202B0BD076
:105200000C2B09D00A2B07D00D2B05D0092B03D06E
:105210000B2B01D000232FE06B46F31A9B100133B8
:10522000042B0AD8DFE803F02809030F1900B0F1B6
:10523000807F24D2009B40EA036034B3144B98472C
:105240002060012318E0B0F5803F1AD2019B1B04B7
:10525000009A43EA02631843EFE7FF2813D8019B43
:105260001B04009A43EA0263029A43EA02231843AA
:10527000E3E7002300E00023184604B070BD0023DC
:10528000FAE70023F8E70023F6E70123F4E700BF7D
:10529000D93E00002DE9F04383B0894603680DF143
:1052A000080E4EF8043D0F4600263046032838D835
:1052B00000259EF80040204BA3FB0413DB0803EB02
:1052C00083084FEA480CA4EB0C04E4B2DBB28EF87E
:1052D000003005F1010C5FFA8CF130340DF1080C4F
:1052E000654405F8084C0D46002BE2D14B1EDBB29D
:1052F00059B1741C964219DA02A9CD1815F8085C48
:105300003D70264619460137F0E7731C964211DAC4
:105310002E243C700EF1010E0130C0B21E46013742
:10532000C4E7002307F8013C484600E0002003B032
:10533000BDE8F0830020FAE7CDCCCCCC08B5074B14
:105340001B68834206D003680B6001460420044BAF
:10535000984708BD0268014B1A60F6E7F015002077
:10536000315D00002DE9F0410746884644686368D6
:105370009A8812B100257C6825E01B6843600346CB
:10538000626853F8081F5E689D68D86811605660AF
:105390009560D0601969116101212046104B984732
:1053A0002046104B984785B220460F4B9847E2E7BE
:1053B00063681E6820460B4B98470544ADB22046F3
:1053C000094B98473446002CF2D141463846074BEA
:1053D0009847074A93885B1B93802846BDE8F08175
:1053E0002D4C0000ED610000096000003D530000FD
:1053F000F01500202DE9F04105468846002628E0FA
:105400009A69D5F810E072450FD1B3F80CE0AA887C
:1054100096450AD100E018461A6882B1194613462B
:105420007BB1EA685F699742EAD001340028F2D084
:1054300093F81FE0C27F9645EED81846ECE70B467E
:10544000ECE710B1074B98470644464507DA012CB4
:1054500005DD054B1B68002421462046E0E7304669
:10546000BDE8F08165530000F015002008B5014645
:105470000520014B984708BD315D000010B504467A
:10548000406908B1024B98472046024B984710BD2F
:10549000096000006D5400002DE9F04107460E46FA
:1054A0004C686088DFF80881C047257805F00F0553
:1054B000A0EB8505ADB2E088C047C0F30C00C10089
:1054C000D6F804C000248CF800408CF801408CF819
:1054D00002408CF80340ACF8041005EB010E1FFAF3
:1054E0008EFEACF806E07D68012025E0CCF8005087
:1054F000F4B1E28891423ED39B889E453BD826601A
:1055000065B3BB7F13F0010F43D0002848D07B6800
:105510005B689B88002B3FD1DCF800204AB35368BE
:10552000BCF806109A88914239D11A689C46F5E772
:105530007E60E5E71D681C46002DE1D06B689A8807
:105540009142D3D3914216D0DD88A94213D3002CC7
:10555000F0D0E488A242EDD00020EBE73CB1266019
:10556000E288BCF804309A42CBD00020C9E77E60C4
:10557000C7E7BDE8F08130460A4B984780B20A4A37
:105580009388181A90803046084B98470020BDE851
:10559000F0810020BDE8F0810020BDE8F08100200E
:1055A000BDE8F081ED610000F01500200960000009
:1055B000CD3E000008B50520014B984708BD00BF4F
:1055C000095D000070B505460E460420144B98474F
:1055D0000446B0B1202200212046124B98470323F5
:1055E000E377114B1A6822601C602A686E68A8680D
:1055F000E968A260E660206161612A69A2612046D3
:1056000070BD31462846094B9847864202DD002C82
:10561000E0D1F4E70420024B98470446F7E700BFC7
:10562000095D000069CD0000F0150020F553000071
:1056300038B5094B1868002404E005682146074B7B
:105640009847284638B1C37F002BF6D0013BC3777B
:1056500004460068F6E738BDF015002065530000E9
:105660002DE9F047814645682B7803F00F03052BA1
:1056700025D1E8885B4CA047C0F30C004FEAC00A74
:105680006888A0472F7807F00F07A0EB8707BFB205
:105690004846554B98478046544B9B8803440A2BF9
:1056A00003DC524B1C68002611E001462846504B93
:1056B000984720B14D4B9B8843440A2BF1DD484667
:1056C0004C4B98474FF0000885E0264624685CB1B3
:1056D0006269EB689A42F8D1A2692B699A42F4D1C7
:1056E000A289AB889A42F0D1002C4CD0E8883D4B7F
:1056F0009847C0F30C0000284DD03C4B9A8890444A
:10570000A3F80480EB8813F0200F05D1A37F43F0AA
:105710000103A3775744A78349462046364B984751
:1057200000285BD0A38B1433A38363685F683D6854
:10573000234653F8082FD3F804E09868D9683A60F4
:10574000C7F804E0B860F9601A693A61A08B2B4B86
:10575000984778800023BB71FB71BB72FB721421E8
:105760003846274B98477881D4F804803DB36F685A
:105770006FF013012846234B984729464046224B99
:1057800098473D68F2E741462846204B9847044633
:105790000028B2D193E7E089124B9847C0F30C0080
:1057A0000028AAD02A68D5F804E0A868E968A260B1
:1057B000C4F80CE0206161612A69A2619DE731466D
:1057C0002046134B98474046074B984780B2074AFC
:1057D0009388181A90804046BDE8F0874FF0000883
:1057E000F9E700BFCD3E0000ED610000F01500209C
:1057F000F55300000960000099540000C13E00000C
:10580000354D00008F5F000009620000C5550000A3
:105810003D5300002DE9F04F8DB005460A910B92E3
:105820000C8DD0F804A0BAF80600614B9847C0F37D
:105830000C03049300F400530993B5F80890A9F100
:1058400014091FFA89F9A4F114030693002B05DB50
:10585000C3F3CF030893002414268AE00733F7E745
:10586000CDF81490002214210220524B9847039047
:10587000002800F099804368DAF80020DAF8047014
:10588000DAF80800DAF80C101A605F609860D960E6
:10589000DAF810201A61039BD3F804B06B68334424
:1058A0006B606B899E1B6E81059E1DE0424B984785
:1058B000074618B36B680194009303460222214601
:1058C0000320DFF81481C0478046F8B128463B4BDF
:1058D00098477D613A4B3B6141460398394B984765
:1058E000361BB6B206B12D68CEB16C89B44228BF62
:1058F0003446A4B2002CD9D12D68F5E70398324B79
:1059000098474FF0FF300DB0BDE8F08F38462F4B71
:10591000984703982C4B98474FF0FF30F3E70798D0
:105920002B4EB047ABF80600059F07F1140080B27C
:10593000B047ABF8020000238BF80A308BF80B302D
:1059400014215846234B9847ABF80A000A9843693C
:105950000B9A039E3146984730461B4B9847A9EB5C
:1059600007091FFA89F9049B089A13449BB2049310
:105970002646B9F1000F15D04B46049AC2F30C022B
:1059800009990A4307920699494502DA42F40052FE
:105990000792069A9A42BFF663AF089BDB009BB260
:1059A00005935FE70020AEE74FF0FF30ABE700BFA5
:1059B000CD3E00006D600000B5550000FF610000A5
:1059C0007D54000009620000096000006D54000071
:1059D000C13E0000354D0000315F000010B4174B90
:1059E0001B6801885A1890420FD014796CB9134C77
:1059F0006468A24209D0114CA468A24218D05A5A35
:105A000002805A5A1A44C11A518041885A18904249
:105A10000BD014794CB9094CA468A0420BD004886F
:105A20005C5201881944D31A4B805DF8044B7047CF
:105A3000024A9060E3E7014CA260F0E7F81500200D
:105A400010B50B4B23F003030A4803604FF4605476
:105A50001C8000225A801A711A19426001211171AA
:105A60001480548083600C30034B984710BD00BFF6
:105A7000CF290120F815002079240000F8B138B5AD
:105A800004460F4A1268904203D30D4A526890426E
:105A900000D338BD0A4D002105F10C00094B984791
:105AA000A4F10800002304F8043CAB68984200D23B
:105AB000A860054B98470548054B9847E9E77047AC
:105AC000F815002009250000DD590000041600200B
:105AD000F12400002DE9F0410546CC1CA4B224F0CD
