S00F00004442575F4543552E73726563FC
S113000000620220F1020000ED020000ED02000097
S1130010ED020000ED020000ED020000000000000F
S1130020000000000000000000000000059A00002D
S1130030ED02000000000000959A0000F59A00000F
S1130040ED020000ED020000ED020000ED020000F0
S1130050ED020000ED020000ED020000ED020000E0
S1130060ED020000ED020000ED020000ED020000D0
S113007091170000ED020000ED020000ED02000007
S1130080ED020000ED020000ED0200009D170000EB
S1130090ED020000ED020000ED020000ED020000A0
S11300A0ED020000ED020000ED020000ED02000090
S11300B0ED020000ED020000ED020000ED02000080
S11300C0ED020000ED020000ED020000ED02000070
S11300D0ED020000ED020000ED020000ED02000060
S11300E0ED020000ED02000000000000000000002E
S11300F000000000551D0000ED020000ED020000AC
S1130100ED020000ED020000ED020000ED0200002F
S1130110ED020000ED020000ED020000ED0200001F
S1130120ED020000ED020000ED020000ED0200000F
S1130130ED020000ED020000ED020000ED020000FF
S1130140ED020000ED020000ED020000ED020000EF
S1130150ED020000ED020000ED020000ED020000DF
S1130160ED020000ED020000ED020000ED020000CF
S1130170ED020000ED020000ED020000ED020000BF
S1130180ED020000ED020000ED020000ED020000AF
S113019065180000ED020000ED020000ED02000011
S11301A0ED020000ED020000ED020000ED0200008F
S11301B0ED020000ED020000ED020000ED0200007F
S11301C0ED020000ED020000ED020000ED0200006F
S11301D0ED020000ED020000ED020000ED0200005F
S11301E0ED020000ED020000ED0200009522000087
S11301F0ED020000ED020000ED020000A922000063
S1130200BD220000ED020000ED020000ED0200003E
S1130210ED020000ED020000ED020000ED0200001E
S1130220ED020000ED020000ED020000ED0200000E
S1130230ED020000ED020000ED020000ED020000FE
S1130240ED020000ED020000ED020000ED020000EE
S1130250ED020000ED020000ED020000ED020000DE
S1130260ED02000010B5054C237833B9044B13B1EB
S11302700448AFF300800123237010BDC0000020A8
S113028000000000D8D600000C4B43B10C480D49C7
S113029010B5AFF300800C48036823B910BD0A48B9
S11302A0036833B97047094B002BF7D0BDE8104001
S11302B01847064B002BF5D0184700BF000000007C
S11302C0D8D60000C4000020D8D6000000000000EA
S11302D008B5034B9847034B9847034B984708BD11
S11302E005090000890E0000C5980000FEE7000023
S11302F008B5154B154A9A4209D0134B134A03E02B
S1130300116819600433043211498B42F8D3114B3C
S113031002E000221A6004330F4A9342F9D30F4BD0
S11303200F4A22F07F029A60D3F8882042F47002C8
S1130330C3F88820BFF34F8FBFF36F8F094B9847E3
S1130340094B9847FEE700BF00000020D8D6000004
S1130350B4000020C00000200062012000ED00E095
S1130360000000008DC000000196000020B90122A9
S1130370044BC3F8942070470122024BC3F8982021
S1130380704700BF0080004118B98022034B5A61B6
S113039070478022014B9A61704700BF0080004182
S11303A010B52DED028B07EE900AF5EEC07AF1EE52
S11303B010FA35D4B7EE007AF4EEC77AF1EE10FAFB
S11303C001DDF7EE007AB7EE007A77EE677A17EE82
S11303D0900A194B984716A3D3E90023174CA0475A
S11303E0174B984708EE100ADFED167A68EE277A65
S11303F0154CFCEEE77A17EE902A4FF4C8712046AC
S1130400124B98472046124B9847B5EEC08AF1EE3E
S113041010FA08DD40220F4B9A61BDEC028B10BD2F
S1130420DFED0D7ACFE740220A4B5A61F5E700BFB2
S1130430333333333333E33F91BA000039BB000025
S1130440EDBF00000000C84338290120A9130000B3
S11304506D130000008000410000000010B52DED78
S1130460028B08EE100ADFED117A68EE277A104C41
S1130470FCEEE77A17EE902A42F6E06120460D4B37
S1130480984720460C4B9847B5EEC08AF1EE10FA17
S113049006DD0222094BC3F81821BDEC028B10BD06
S11304A00222064BC3F81421F7E700BF00803B4645
S11304B000290120A91300006D13000000800041F1
S11304C008B54022264BC3F89020264A536943F4CA
S11304D080635361244B0122C3F884212349C3F868
S11304E0A8112348C3F8A801C3F8842193F8C011C4
S11304F041F0040183F8C011C3F8982193F8C02196
S113050002F0FE0242F0010283F8C02193F8B02108
S113051002F0F00283F8B0218022C3F88420154948
S1130520C3F8A810C3F8A800C3F8842093F8C71030
S113053041F0040183F8C710C3F8982093F8C7204A
S113054002F0FE0242F0010283F8C72093F8B320C0
S113055002F00F0283F8B320074B984708BD00BF91
S1130560001C0040000800400080004101000240DF
S1130570000002C080000240B10F0000104B93F84D
S1130580D92002F0FE0242F0010283F8D92093F848
S1130590BC2002F00F0242F0300283F8BC2093F832
S11305A0D82002F0FE0242F0010283F8D82093F82A
S11305B0BC2002F0F00242F0030283F8BC20704732
S11305C000800041064B4022C3F8DC204322C3F8DC
S11305D08C20044A936943F400739361704700BF0D
S11305E0001C00400008004008B5054B9847002255
S11305F004490548054B9847054B984708BD00BF7B
S1130600C505000000200141F4280120A5140000C4
S11306107D050000084A92F8453003F0FE0343F0DC
S1130620010382F8453092F8323003F00F0343F0AF
S1130630400382F83230704700800041044A536915
S113064043F4804353614022024BC3F8A420704713
S113065000080040001C004008B5064B9847064BB4
S11306609847064B9847024605490648064B984763
S113067008BD00BF3D060000150600008F220000E3
S1130680003800400029012029130000084A92F88C
S1130690C93003F0FE0343F0010382F8C93092F835
S11306A0B43003F00F0343F0400382F8B4307047D2
S11306B000800041044AD36943F02003D3614022FF
S11306C0024BC3F8F820704700080040001C0040AB
S11306D008B5064B9847064B9847064B9847024681
S11306E005490648064B984708BD00BFB5060000FB
S11306F08D0600008F2200000014004238290120DA
S113070029130000084A92F8CF3003F0FE0343F0A7
S1130710010382F8CF3092F8B73003F00F0343F0AF
S1130720400382F8B730704700800041044AD3691F
S113073043F04003D3614022024BC3F8F8207047D2
S113074000080040001C004008B5064B9847064BC3
S11307509847064B9847024605490648064B984772
S113076008BD00BF2D070000050700008F22000010
S113077000180042D828012029130000504B93F898
S11307804B2102F0FE0242F0010283F84B2193F860
S1130790352102F00F0242F0B00283F8352193F8BC
S11307A04C2102F0FE0242F0010283F84C2193F83E
S11307B0362102F0F00242F00B0283F8362193F85E
S11307C04D2002F0FE0242F0010283F84D2093F81E
S11307D0362002F00F0242F0B00283F8362093F87C
S11307E04C2002F0FE0242F0010283F84C2093F800
S11307F0362002F0F00242F00B0283F8362093F820
S1130800542102F0FE0242F0010283F8542193F8CD
S11308103A2102F0F00242F00B0283F83A2193F8F5
S11308204F2002F0FE0242F0010283F84F2093F8B9
S1130830372002F00F0242F0B00283F8372093F819
S1130840522002F0FE0242F0010283F8522093F893
S1130850392002F0F00242F00B0283F8392093F8B9
S1130860532002F0FE0242F0010283F8532093F871
S1130870392002F00F0242F0B00283F8392093F8D5
S11308804E2002F0FE0242F0010283F84E2093F85B
S1130890372002F0F00242F00B0283F8372093F87D
S11308A0512002F0FE0242F0010283F8512093F835
S11308B0382002F00F0242F0B00283F8382070476B
S11308C000800041044B1A6942F480421A61DA69DB
S11308D042F00402DA6170470008004008B5044B96
S11308E0984704490448054B9847054B984708BD69
S11308F0C5080000000800421C2901205111000015
S11309007D07000010B54B4B98474B4B40225A6172
S11309109A6002F180429A624FF040429A6293F8E0
S1130920461001F0FE0183F8461080215961996058
S113093001F1804199629A6293F8471001F0FE0137
S113094083F847100221C3F89410C3F888103B4C75
S1130950C3F8A840C3F8A82093F8C10000F0FE0033
S113096083F8C1000120C3F89400C3F8880000F1A3
S11309708040C3F8A800C3F8A82093F8C00000F092
S1130980FE0083F8C000C3F81411C3F80811C3F8BB
S11309902841C3F8282193F8411101F0FE0183F89E
S11309A041110821C3F804112548C3F8280125483A
S11309B0C3F82801C3F8041193F8430140F004007C
S11309C083F84301C3F8141193F8431101F0FE01B5
S11309D083F843114FF48061C3F81411C3F808116C
S11309E001F18041C3F82811C3F8282193F84A2162
S11309F002F0FE0283F84A214FF08042C3F814212A
S1130A00C3F80821C3F828210F4AC3F8282193F812
S1130A105E2102F0FE0283F85E210C4B98470C4BDA
S1130A2098470C4B98470C4B98470C4B98470C4BEA
S1130A30984710BD6115000000800041020000408D
S1130A4008000240000002C0004000C0C1040000D1
S1130A50E905000059060000D1060000490700001E
S1130A60DD0800000F4B1B680BB10020704700B578
S1130A7083B0002101A80C4B984701A90B480C4BEB
S1130A809847002101A80B4B984701A80A4B9847A7
S1130A900A4B98470122034B1A60002003B05DF80B
S1130AA004FB00BFDC00002049240000CDB6000098
S1130AB0493E0000D9240000AD240000D993000071
S1130AC02DE9F04105460C46838807EE903AF8EE8E
S1130AD0677A9FED457A77EEC77AC7EE876AC1EDEC
S1130AE0046A438807EE903AF8EE677ADFED3F6ACE
S1130AF087EEA67A81ED037A038803F001030B7570
S1130B000388C3F340034B750388C3F380038B75D9
S1130B100388C3F3C00381F868310388C3F3001367
S1130B2081F82830DFF8D080D0ED027AF8EE677AC9
S1130B3017EE900AC0472E4F29A3D3E90023B847E4
S1130B402C4EB047C4F87801D5ED037AF8EE677AF5
S1130B5017EE900AC04722A3D3E90023B847B04751
S1130B60C4F87C01D5ED047AF8EE677A17EE900AA2
S1130B70C0471BA3D3E90023B847B047C4F880019A
S1130B80D5ED057AF8EE677A17EE900AC04714A3FC
S1130B90D3E90023B847B047C4F86C01D5ED067A11
S1130BA0F8EE677A17EE900AC0470DA3D3E9002345
S1130BB0B847B047C4F87001E86907EE900AF8EE48
S1130BC0677A17EE900AC04705A3D3E90023B84714
S1130BD0B047C4F87401BDE8F08100BFAFF30080F2
S1130BE08DEDB5A0F7C6B03E00FEFF4600FF7F477F
S1130BF039BB0000EDBF000091BA000070B5044697
S1130C000D46D1ED077AB2EE047A67EE877AFCEEF0
S1130C10E77A17EE903A4380D1ED067A9FED157A84
S1130C2067EE877AFCEEE77A17EE903A03800023AA
S1130C30037191F82330003318BF012303710E4E62
S1130C40D1E94401B047A060D5E94601B047E0606E
S1130C50D5E94801B0472061D5E91E01B04760617C
S1130C60D5E92001B047A061D5E92201B047E06190
S1130C7070BD00BF0000C842ADBF00002DE9F047C1
S1130C80ACB0054620263246002124A8414CA0479A
S1130C90324600211CA8A0473F4B98472CAC0123A7
S1130CA044F8643D0022022108463C4B984706461E
S1130CB00423009323464FF4017240F6FF71384C2D
S1130CC0A047002414941594169417944FF0020A24
S1130CD08DF851A04FF0FF30DFF8F090C847159021
S1130CE042F63970DFF8E880C047ADF852001027AB
S1130CF08DF85070189419941A941B948DF861A06F
S1130D002046C847199042F63A70C047ADF86200D1
S1130D108DF860703A4618A93046224B9847A04295
S1130D202CDA2CB0BDE8F08729461CA81E4B984746
S1130D301023019314AB0093002320221CA93046F6
S1130D401A4CA0470823402203A93046184CA04758
S1130D50021E0ADD03A924A8164B9847164B984790
S1130D606860294624A8154B984700231A4619465B
S1130D702868134CA0470A20124B9847002364228A
S1130D8019462868104CA0470128CDD001200D4BEE
S1130D909847F3E719C10000650A0000C53A00004E
S1130DA04D3B000085360000FD0B00005539000066
S1130DB03D39000003C100008DAA0000C10A0000F3
S1130DC035A10000CDAC0000EDA40000A93E000058
S1130DD0913E000070B50D461646044658B161B107
S1130DE01F2A0CD900202A220649074B9847256060
S1130DF0A680002070BD0020F5E70020F3E7012065
S1130E00F1E700BFF4D100001D15000030B583B038
S1130E100D460446D0B10368D3B1A9B10120A9227B
S1130E200C490D4B98470DF106030122A188206857
S1130E300A4CA047024620B9BDF80630C3F380032C
S1130E402B70104603B030BD0020E8E70020E6E731
S1130E500020E4E7F4D100001D150000D9120000C1
S1130E6010B5054C2046054B9847002221460448FE
S1130E70044B984710BD00BF1C29012085110000B8
S1130E8054290120D50D000008B5014B984708BD31
S1130E90610E000008B502460E4B43610E4B8361A0
S1130EA00E4B622183F82D104FF4C06199840C49D4
S1130EB00868C3F827008988A3F82B10062183F853
S1130EC0261046F66561D9851046064B98470020E2
S1130ED008BD00BF49900000592300005C2901208F
S1130EE0E00000202D23000030B589B0054607A995
S1130EF00D480E4CA04706A90D48A04705A90D486A
S1130F00A0470D4B28681860AA889A800B4B02935F
S1130F100B4B01930B4B009305AB06AA07A90A4898
S1130F200A4CA04709B030BD14D200002D46000081
S1130F3024D2000034D20000E000002075910000AB
S1130F40950E00001C2901205C290120C1520000DB
S1130F50EFF31083036072B6BFF35F8F7047BFF384
S1130F605F8F036883F310887047000038B502254B
S1130F70002407E00D4A52F83330B3B1984738BD26
S1130F80013AD5B2AC4210D82B195B10DAB2012A5F
S1130F900BD81346054901EBC20149688142E9D0E7
S1130FA08142EDD20132D4B2ECE738BDE800002032
S1130FB008B500230AE0084A02EBC3014FF0FF30F2
S1130FC04860002142F8331001339BB2012BF2D95F
S1130FD00248034B984708BDE80000206D0F00004D
S1130FE061160000F0B583B004460023012B0ED82F
S1130FF018462E4A02EBC3025268A24202D00133C1
S1131000DBB2F3E7294B43F83010012500E000255B
S113101059B1002D3DD10023012B13D8234A52F896
S1131020332042B10133DBB2F6E7002D38D020463D
S11310301F4B984732E01D4A42F8331002EBC302BB
S113104054600125002201E00132D2B2012A20D8E5
S1131050012B1ED89E46154901EBC300406801EBE5
S1131060C20149688842EFD2B1F1FF3FECD00F4F83
S113107007EBC20696E803008DE8030007EBC307FD
S113108097E8030086E803009DE8030087E803006F
S1131090DAE745B101212046054B984703B0F0BD7E
S11310A06FF00C00FAE76FF00C00F7E7E80000209F
S11310B03917000008B50121014B984708BD00BF4E
S11310C03917000008B50021014B984708BD00BF3F
S11310D03917000070B50D461646044668B151B183
S11310E0012034220649074B984723683246294693
S11310F02046984770BD0020F3E70020F1E700BFC9
S113110040D200001D15000070B50D461646044679
S113111068B151B101203D220649074B98476368E5
S1131120324629462046984770BD0020F3E7002048
S1131130F1E700BF40D200001D15000008B5436967
S113114003B1984708BD08B5836903B1984708BD42
S113115038B50C46054660B149B101203122064933
S1131160064B984721462846054B984738BD002032
S1131170F4E70020F2E700BF54D200001D15000080
S1131180CD18000010B5044645220549003018BFAB
S11311900120044B98472046034B984710BD00BFDD
S11311A054D200001D1500003519000070B50C461E
S11311B01546064660B169B172B900205722074945
S11311C0074B98472A4621463046064B984770BD40
S11311D00020F3E70020F1E70120EFE754D20000FC
S11311E01D1500004519000070B50D46164604464D
S11311F061220649003018BF0120054B984732464A
S113120029462046034B984770BD00BF54D20000C6
S11312101D150000BD1A000010B504466B220549D7
S1131220003018BF0120044B98472046034B9847D1
S113123010BD00BF54D200001D150000DD1B0000CE
S113124070B50C461646054689221049003018BF71
S113125001200F4B984724B1012C0CD06FF00C00E7
S113126070BD6E612EB10B4A214628460A4B984741
S113127070BD0022F8E7AE612EB1084A2146284627
S1131280054B984770BD0022F8E700BF54D2000018
S11312901D1500003D1100004D1C00004711000009
S11312A070B50E461446054668B152B101209B2222
S11312B00649074B9847224631462846054B98472E
S11312C070BD0020F3E70020F1E700BF54D2000016
S11312D01D150000891C0000F8B50E4617461C4673
S11312E0054670B15BB10120B8220749074B984706
S11312F023463A4631462846054CA047F8BD00200F
S1131300F2E70020F0E700BF54D200001D150000F2
S1131310D11C000008B5436903B1984708BD08B55E
S1131320836903B1984708BD38B50D46044688B1B2
S113133071B1012033220849084B984729462046B9
S1131340074B9847074B2360074B6360002038BD69
S11313500020EFE70020EDE770D200001D1500002B
S113136069200000151300001F13000010B5044687
S11313704A220949003018BF0120084B98472046EB
S1131380074B984720B92046064B9847002010BDCC
S11313906FF0100010BD00BF70D200001D150000DA
S11313A07D220000E921000070B50D461646044672
S11313B07C220649003018BF0120054B984732466D
S11313C029462046034B9847002070BD70D2000088
S11313D01D150000FD210000F8B50E461746054610
S11313E008B311B31ABB0020F1221249124B9847DB
S11313F005F108042046114B98470028F8D0002531
S1131400715D20460E4B984720460C4B98470028A8
S1131410FAD00135BD42F3D320460A4B9847002841
S1131420FAD02846F8BD0020DEE70020DCE70120E2
S1131430DAE700BF88D200001D1500006B1F000012
S11314405D1F0000751F00002DE9F0410F46904616
S11314500546C8B1D1B1DAB900204FF486720D49FE
S11314600D4B9847002605F1080420460B4B98477E
S11314700028F8D020460A4B9847B855013646450F
S1131480F1D33046BDE8F0810020E6E70020E4E730
S11314900120E2E788D200001D1500007F1F000034
S11314A0631F000038B50D460446A0B189B1012080
S11314B034220A490A4B9847294604F10800094B8B
S11314C09847034618B9084A6260084A22601846D9
S11314D038BD0020ECE70020EAE700BF88D2000016
S11314E01D1500001D1F000049140000D913000041
S11314F010B5044653220649003018BF0120054B9D
S1131500984704F10800044B9847002010BD00BF21
S113151088D200001D150000491F000000B900BE5C
S1131520704700000346064A126822B1044A106854
S11315300344136070470349014A1160F6E700BF92
S1131540F8000020006202204FF0FF3070474FF493
S113155000534B6000207047012070470020704703
S113156008B5084A13889BB21380074B9847074B6A
S11315709847074B9847074B984740F6FF70064B30
S1131580984708BD00400041211D0000351D0000A2
S1131590151D0000511D0000A917000070B582B090
S11315A02A4B5A690192019A5A61294B1868EC2214
S11315B02849003018BF0120274B98474FF0FF35CA
S11315C035E0264B03EBC6067568B5F1FF3F03D043
S11315D01F4B1B68284698470123A340019C24EA1B
S11315E003040194019B93FAA3F4B4FA84F40BB9B1
S11315F04FF0FF34B4F1FF3F14D00220002101E08A
S1131600013BD8B28142E0D84318C3F347031E46D6
S1131610124A12F83320A242D3D0A242F0DA0133A4
S1131620D9B2EFE7094B5A690192019A5A61019BB9
S11316304BB1019B93FAA3F4B4FA84F4002BD9D1EF
S11316404FF0FF34D6E702B070BD00BF0028004061
S1131650FC000020B4D200001D150000A4D200003C
S1131660314B5B6813F0010F20D12F4B5B6813F0F3
S1131670030FFAD12C4B1B7813F0020F0ED02A4A19
S1131680137803F0FD031370274B5B6813F0030F0B
S1131690FAD1254B5B6813F0020FFAD10122224BD9
S11316A01A70214B5B6813F0030FFAD11E4B5B6871
S11316B013F0010FFAD11C4A137803F0EF031370EF
S11316C0194B5B6813F0030FFAD1174B00225A70C1
S11316D09A609A611A635A631449D9611A621A7832
S11316E042F002021A70104B5B6813F0030FFAD138
S11316F00F4B4FF48052C3F88020BFF34F8FBFF3DA
S11317006F8FC3F880211A604FF40022C3F8802041
S1131710BFF34F8FBFF36F8FC3F880211A60054B5F
S113172018600020704700BF00280040010000102E
S113173000E100E0FC00002010B40023012B0DD8D0
S11317401C46114A02EBC3025268824202D00133A2
S1131750DBB2F3E70C4B13F8342000E0FF22FF2A3E
S11317600FD041B901239340084AD360536100204C
S11317705DF8044B704701239340044A1361002031
S1131780F6E74FF0FF30F3E7A4D200000028004052
S113179008B5014B984708BD9D15000008B5014BDD
S11317A0984708BD9D15000010F0010F08D0054AA8
S11317B0054B1A62044B5A6843F6FD731A42F9D179
S11317C0704700BF01010100001C0040002212E02C
S11317D0204B40F2DC5101FB023103EBC203C3F89E
S11317E0B81B0021C3F8BC1B93F8BF1B41F0800158
S11317F083F8BF1B0132012AEAD9164A92F8C73B83
S113180043F0400382F8C73B0023C2F8C83BC2F848
S1131810CC3B0BE0104901EBC311104A02EBC302AD
S1131820C2F8E8120021C2F8EC1201330F2BF1D9EF
S11318300A4B93F8602342F0020283F860230022EB
S1131840C3F8682302680649D161026803F53A7354
S11318509361704700010020E00C0020F811002083
S1131860B80C002000B583B0164BD3F86C030368A2
S11318705A6901921A6A00925A6A019A12F0200F68
S11318800DD0019A5A61104BD3F8C82B03EBC20355
S113189093F8BF3BDB0902D0436803B19847009B30
S11318A013F0020F05D0074BD3F86C03836803B120
S11318B09847044BD3F86C331B68009A1A6203B040
S11318C05DF804FBF81100200001002038B504463F
S11318D0016010230B600368114A5A6003680025F5
S11318E0DD6003680F4A1A610368C3F8B8500368DF
S11318F040F20112C3F8BC200B4B98470B4BC3F8C2
S11319006C430B4B4FF48012C3F88820BFF34F8F06
S1131910BFF36F8FC3F888219A60284638BD00BF93
S11319200301100004070200CD170000F811002085
S113193000E100E00268136843F00C031360002028
S1131940704700002DE9F04180460F461446594B7C
S1131950D3F8CC2B03EBC20393F8BF3BDB090BD0CA
S1131960544BD3F8CC2B03EBC20393F8BD3BDB09F8
S113197002D10121012914D94E4BD3F8C82B03EB12
S1131980C20393F8BF3BDB0900F08B8040F2DC53C9
S11319909C421CD8474BD3F8C82BC3F8CC2B002649
S11319A04DE0444BD3F8CC3B0B44012B00D9023B14
S11319B0404A02EBC30393F8BF2B42F0800283F842
S11319C0BF2B93F8BD3BDB09D6D10131D2E701230C
S11319D0012BDFD8374AD2F8C82B1A44012A00D980
S11319E0023A344901EBC20292F8BF2BD2095CD00F
S11319F040F2DC5202FB134240F2DB518A42C9D965
S1131A000133E5E72B4BD3F8C82B03EBC202C2F832
S1131A10BC5BD3F8C82B03EBC20393F8BD2B42F095
S1131A20800283F8BD2B234BD3F8C82B0132C3F8B3
S1131A30C82BD3F8C83B022B1DD03CB30136012E72
S1131A4024D840F2DC5325469C4228BF1D46194841
S1131A50D0F8C8EB2A4603FB067103FB0E00164BB5
S1131A609847641BCED0134BD3F8C82B03EBC203A7
S1131A70C3F8BC5BD7E70F4B0022C3F8C82B93F81D
S1131A80C72B42F0400283F8C72BD6E7BFF34F8F32
S1131A90D8F80020136843F4007313600020BDE8F5
S1131AA0F0816FF01B00BDE8F0816FF01B00BDE812
S1131AB0F08100BF0001002003C100002DE9F84FB0
S1131AC0894690464FF0FF36002400E001340F2C85
S1131AD02DD83F4BD3F8683323440F2B00D9103B48
S1131AE03B4A02EBC30292F8E82212F0010F28D01D
S1131AF0374A02EBC30292F8ED2212F0400F00D0F5
S1131B002646334A02EBC30292F8ED22D209DDD015
S1131B10B6F1FF3FDAD02E4A02EBC303B3F8EC323E
S1131B20C3F30C03984528BF9846274601E04FF0BD
S1131B30FF37B7F1FF3F07D07C1C4FF0000A554632
S1131B401CE04FF0FF37F4E7B6F1FF3FF5D0344621
S1131B50F3E71F4BD3F8682303EBC20292F8E812B1
S1131B606FF3000182F8E812D3F868230132C3F856
S1131B706823D3F86833102B21D00135A54223D232
S1131B80B7F1FF3FE5D0B542E3D3BD42E1D8B8F1A8
S1131B90000FDED0C346B8F1800F28BF4FF0800B92
S1131BA00B4BD3F868135A460A4B03EBC111484652
S1131BB0094B9847D944DA44A8EB0B08C9E700223B
S1131BC0034BC3F86823D8E75046BDE8F88F00BF3D
S1131BD0F8110020E00C002003C1000010B4002024
S1131BE00446014607E0184A02EBC30393F8ED32BA
S1131BF0DB0925D101310F2922D8134BD3F86833DF
S1131C000B440F2B00D9103B0F4A02EBC30292F88E
S1131C10E82212F0010F13D00B4A02EBC30292F830
S1131C20ED2212F0400F00D00124002CDBD0064A34
S1131C3002EBC302B2F8EC22C2F30C021044D2E766
S1131C405DF8044B704700BFF811002069B1012909
S1131C5017D1426022B1036880229A620020704743
S1131C6003688022DA6200207047826022B1036830
S1131C7002229A6200207047036802229A620020BE
S1131C8070476FF00C00704770B506460C46154659
S1131C9040F2CF120C49032C8CBF002001200B4BC7
S1131CA098473368296804F1110243F83210336805
S1131CB0A98803EBC20359603368EA882A3443F8DD
S1131CC02420002070BD00BFCCD200001D150000F0
S1131CD030B405682C6844F010042C600468C9050D
S1131CE001F07861920402F4F8020A4342F0C0421F
S1131CF042F4003262630268916811F0040FFAD072
S1131D00526B1A800268136823F0100313600020DA
S1131D1030BC70470122014B5A71704700080040E3
S1131D20034BDA6902F47C52DA6101221A747047B7
S1131D3000140040044A054B9A61044B1B6913F0DC
S1131D40020FFAD0704700BF0626000300100040BF
S1131D507047000000B583B00D4B9B78DBB2019354
S1131D60019B13F0020F06D00A4B1B681BB1084AF3
S1131D705068984709E0019B13F0010F05D0054B0B
S1131D805B6813B1024A5068984703B05DF804FBDE
S1131D90000002419029012070B489B006466C46C7
S1131DA00C4D0FCD0FC495E80F0084E80F00002000
S1131DB007280AD808AB03EB800353F8203CB3424E
S1131DC001D00130F4E7C0B200E0002009B070BCDB
S1131DD0704700BFE4D2000008B50C4B98470023BD
S1131DE043B140F247220A4900200A4B9847002396
S1131DF0184608BD03EB4302D100074A0A4492F88F
S1131E0020209042F4D00133DBB2E9E7991D0000B1
S1131E1058D300001D150000E4D2000038B5044674
S1131E203C4B9847E36913F0010F22D100EB4003C8
S1131E30DA00394B13445A6A02F01C02E36913F0C6
S1131E40030FFBD1236813F0020F0BD0236823F098
S1131E5002032360E36913F0030FFBD1E36913F07A
S1131E60020FFBD142F001022260E36913F0030F79
S1131E70FBD1E36913F0010FFBD100EB4003DA005F
S1131E80254B13445B6A2360E36913F0030FFBD112
S1131E9000EB4003DA00204B13449B6A6360E36960
S1131EA013F01F0FFBD142000244D1001A4B0B4424
S1131EB0DA6AA2605B6A13F4005F0AD113F4C04FBC
S1131EC007D100EB4003DA00134B13441B8EA381AC
S1131ED00FE042000244D1000F4B0B44198EA2893B
S1131EE061F30C02A28193F83220A38962F34F3389
S1131EF0A381094A43001D18E9000D46114491F8D5
S1131F003310A1732A4492F8343084F8303000201E
S1131F1038BD00BFD91D0000E4D2000038B50C461E
S1131F200546BB220549003018BF0120044B9847E1
S1131F302C602046034B984738BD00BF58D300009F
S1131F401D1500001D1E00000268136843F0020303
S1131F501360D36913F0030FFBD1704703689962D0
S1131F6070470368986AC0B270470368187E00F02F
S1131F70010070470368187EC0F34000704703688F
S1131F80187EC0F38000704738B505460469A37A0B
S1131F9013F0010F04D00123A372036803B198471F
S1131FA0637A13F0020F05D00223A3726B680BB19E
S1131FB02846984738BD0000094B984206D0094B83
S1131FC0984206D0084B984206D07047074B1960D8
S1131FD0F5E7064B5960F5E7044B9960F5E700BF58
S1131FE00038004000140042001800426815002028
S1131FF070B588B006466C46174D0FCD0FC495E8F2
S11320000F0084E80F000023072B0AD808AA02EB6C
S1132010830252F8202CB24201D00133F4E7DBB240
S113202000E00023002002280BD800EB80018A0086
S11320300A498A5C9A4202D00130C0B2F3E740B246
S113204007E04FF4B37206490020064B98474FF05F
S1132050FF3008B070BD00BF74D300000000002042
S113206094D300001D15000070B506460C460846C2
S1132070594B984705463461236913F0010F19D170
S1132080236913F0030FFBD1236813F0020F0BD065
S1132090236823F002032360236913F0030FFBD1A9
S11320A0236913F0020FFBD101232360236913F08A
S11320B0030FFBD1236913F0010FFBD105EB85035B
S11320C09A00464B13445B682360236913F0030FA3
S11320D0FBD1AA002A449100404B0B449A7AE27344
S11320E01A89E280032222735B6803F00C03082B35
S11320F059D0002B6BD105EB85039A00374B134461
S11321009B89A383236913F0C00FFBD105EB8503DF
S11321109A00324B13441B8AE383236913F0C00FE4
S1132120FBD1314620462E4B984705EB85039A0098
S11321302A4B1344B3F90230002B0DDB5A0903F088
S11321401F03012101FA03F32032264941F822300A
S1132150BFF34F8FBFF36F8F05EB85039A001F4BBF
S11321601344B3F90230002B09DB5A0903F01F03AF
S1132170012101FA03F360321A4941F8223005EBD8
S11321808505AA00154B1344B3F90230002B21DB5B
S1132190590903F01F03012202FA03F3114A42F81A
S11321A02130002070BD0D4B0B44DB68E3612369D3
S11321B013F0C00FFBD105EB85039A00074B1344C2
S11321C01B692362236913F0C00FFBD1A9E74FF009
S11321D0FF3070BD002070BDF11F00000000002022
S11321E0B91F000000E100E00269136843F0020334
S11321F01360136913F0030FFBD1704770B50E46DB
S11322001546046920461B4B9847820002449100FE
S1132210194B0B44DE601D615B6803F00C03082B53
S113222016D000EB80039A00134B13449B89A383BD
S1132230236913F0C00FFBD100EB800082000E4B2A
S113224013441B8AE383236913F0C00FFBD170BDD1
S1132250E661236913F0C00FFBD100EB800082001C
S1132260054B13441B692362236913F0C00FFBD190
S113227070BD00BFF11F0000000000200269136957
S113228013F0030FFBD11068C0F340007047002027
S11322907047000008B5024B1868024B984708BD08
S11322A068150020891F000008B5024B5868024BCE
S11322B0984708BD68150020891F000008B5024B27
S11322C09868024B984708BD68150020891F0000D4
S11322D070B5056A2846114B984780B2D8B1811C65
S11322E0002289B203200E4B9847044668B16FF070
S11322F001010C4EB0476289616828460A4B984731
S113230002212046B047204670BD002211462846CF
S1132310054B9847F7E70024F5E700BF19120000C2
S11323200555000027540000E911000010B584B0E1
S1132330046A034653F8270F01909B88ADF80830D0
S113234000218DF80C1001AA2046024B984704B0D6
S113235010BD00BFA11200002DE9F0410E46076A2E
S11323606FF001013046194B9847328973899A42BC
S11323700AD0D01C80B220F00300154B9847804649
S113238000B3054634460CE071683846114B984753
S113239011E06289616828460F4B984763891D44A0
S11323A02468002CF5D1328941463846094B9847B8
S11323B040460A4B984702213046044B9847002078
S11323C0BDE8F0814FF0FF30BDE8F08127540000F4
S11323D099500000AD11000003C10000494F0000F6
S11323E038B5054604E02B6929462046984798B934
S11323F028460C4B9847044690B14368D8890A4B49
S11324009847B0F5006FEED040F606039842EAD044
S11324102046064B9847EBE72046044B9847E7E7EE
S113242038BD00BFD1220000913E0000A15400003D
S1132430002300E00133072BFCDD0022014B1A804E
S1132440704700BF7415002070B508B304460D46EC
S1132450114B9847032200210120104B984720601C
S113246020B100231A4619460D4EB047206860B1CA
S113247025B100240B4B9847204670BD0023012250
S11324801946094CA0470024F4E74FF0FF34F1E764
S11324904FF0FF34F0E700BF259A000065A000006C
S11324A035A10000699A0000EDA4000028B108B528
S11324B0006808B1014B984708BD7047B5A60000F5
S11324C038B110B500231A4619460068014CA047DC
S11324D010BD704735A1000030B370B505460C46F9
S11324E091B9134B98470646002342F210721946DD
S11324F02868104CA0470028F6D00D4B9847864218
S113250010D9801B013870BD094B9847064600233B
S1132510224619462868074CA0470028EDD14FF001
S1132520FF3070BD801B70BD4FF0FF30704700BF9F
S11325308DAA0000EDA4000000687047002303602A
S11325407047000048B110B5044608460022042133
S1132550034B98472060002010BD4FF0FF307047B8
S113256065A0000028B108B5006808B1014B984780
S113257008BD7047B5A6000030B583B0019105468B
S113258040B1002342F2107201A92868024CA0470E
S11325900128F6D103B030BD35A1000010B584B0D8
S11325A0019148B3164B5B68C3F30803BBB1002326
S11325B004AA42F8043D01A90068124CA04760B97E
S11325C04FF0FF30039B93B14FF080520E4B1A60D3
S11325D0BFF34F8FBFF36F8F09E00020F2E70023B2
S11325E01A4601A90068094CA04710B1002004B0A4
S11325F010BD4FF0FF30FAE74FF0FF30F7E700BFB0
S113260000ED00E009A3000004ED00E035A10000A6
S113261000282ED0F0B583B00D4614460646A1B16D
S1132620ACB9154B98470746002342F2107229466D
S11326303068124CA0470028F6D00F4B98478742C9
S113264015D9C01B013803B0F0BD01ADE8E70A4B52
S1132650984707460023224629463068074CA0477E
S11326600028EAD100232B604FF0FF30EBE7C01BBA
S1132670E9E74FF0FF3070478DAA0000EDA4000099
S113268078B110B582B0044649B100231A462068D7
S1132690064CA04740B94FF0FF3002B010BD01A96D
S11326A0F3E74FF0FF3070470020F6E7EDA4000099
S11326B000687047002303607047000010B586B0BF
S11326C00C4699B200230393029305AB0193089B34
S11326D0009313460A4601462046074CA0470128AA
S11326E004D000230593059806B010BD034A13884F
S11326F001331380F7E700BFA1A800007415002080
S113270070B588B00023079359B10D4600230B60C0
S113271040B1044600F110063046254B984710B9E5
S1132720FEE7FEE7FEE794F9080010F1090F01DA6D
S113273008B070BD002207A930461E4B9847237885
S1132740102B2ED1237F13F0080F01D0079B4BB918
S1132750194B01930294079BB3B11B89049301A8FD
S1132760164B9847079B93B9A36A1BB1002201211A
S11327702046984794F9083013F1090F15DBF42328
S113278023726FF00B00D3E701230493E7E71A8960
S1132790A36A13B1012120469847079B2B600020B0
S11327A0C6E7079B1B681A89F2E76FF00B00BFE7C7
S11327B0B12600001126000081320000013E000015
S11327C030B587B00D4611460E4B9847044640B1CC
S11327D00D4B00938DF80C50019068460B4B9847B5
S11327E010B9204607B030BD04F10C00084B9847DF
S11327F004F11000074B984721460720064B9847E1
S11328000024EEE7CD2F0000A52F0000013E0000BC
S1132810AD24000065250000FD51000070B110B525
S113282086B00446064B009301906846054B9847D2
S11328302046054B9847002006B010BD0020704785
S113284031310000013E000045300000B0B110B548
S113285086B0044699B19AB10A4800900194039154
S113286004928DF814306846074B984794F9083061
S113287013F1090F00DB207206B010BDFEE7FEE77E
S1132880FEE700BF21330000013E000098B110B5FF
S113289086B00446084B009301900391ADF81020D4
S11328A06846064B984794F9083013F1090F00DB8A
S11328B0207206B010BDFEE7CD310000013E0000DD
S11328C038B108B50278102A00D0FEE7014B9847CA
S11328D008BDFEE70127000059B170B582B00E466D
S11328E000230B6030B1044610301C4B984710B9DC
S11328F0FEE7FEE7FEE72378102B07D0314620469B
S1132900174B98470446204602B070BD002301933C
S11329100620144B9847054648B994F9083013F13A
S1132920090F18DBFF2323724FF0FF34EBE701A9F3
S113293020460B4B9847044620B1294606200A4BF3
S11329409847E0E7019B2B60019B6B600023AB8100
S1132950AB603560D7E74FF0FF34D4E7B126000011
S113296001270000D5510000FD51000010B102788C
S1132970102A00D07047027F12F0080FFAD000B579
S113298087B0054A0092019003916846034B98472B
S113299007B05DF804FB00BF81320000013E000077
S11329A088B110B586B00446074B0093019003919B
S11329B06846064B984794F9083013F1090F00DB79
S11329C0207206B010BDFEE725320000013E000073
S11329D0F0B587B00C9E20B104460078102801D0D1
S11329E0FEE7FEE75AB3207F10F0020F21D113F067
S11329F0040F20D0012000F0FF0700B10EB31546EC
S1132A00114A0092019403918DF81430049568469C
S1132A100E4B9847034618B916B177B1049A326041
S1132A2094F9082012F1090F00DB2372184607B04D
S1132A30F0BD0120DFE70020DDE73560F0E700238B
S1132A40F4E76FF00503F1E7C9320000013E00002E
S1132A50F8B504460F46002343600172457843707D
S1132A60836A13B1002204219847A36A1BB1002290
S1132A70114620469847A36A1BB100220221204632
S1132A80984704F110063046144B984798B904F15E
S1132A9014063046114B984790B9012D03D0042DEC
S1132AA001D0032D06D1237F23F00402227713F0F3
S1132AB0040F0AD0F8BD00213046094B9847E6E7D9
S1132AC000213046064B9847E7E7636A1F710023ED
S1132AD0636204F10C00034B9847EBE7B126000056
S1132AE09D250000C12400002DE9F041144638B1B1
S1132AF09846054600F110063046194B984720B910
S1132B002046184B9847BDE8F0810620164B98479D
S1132B100746C0B104604460B8F1000F18D0D8F87B
S1132B200030BB60BDF81830BB812489394630467B
S1132B300E4B984770B9AB6A1BB122460021284658
S1132B409847BDE8F0812046064B9847BDE8F081E0
S1132B500023E6E73846064B9847BDE8F08100BFFE
S1132B60B1260000A1540000D55100009D250000AD
S1132B709D33000010B5014644682046094B984730
S1132B8009492046094B984709492046094B98476B
S1132B90042209492046094B984709492046094B14
S1132BA0984710BDC9590000212F0000CD590000DD
S1132BB0C92E0000D3590000712E0000E159000015
S1132BC0512A0000D759000038B5044605682B780F
S1132BD003F0F003102B17D0202B21D1124B984770
S1132BE0686023685A684AB11B78222B09D023688D
S1132BF01A460E4958680E4B984738BDFF23237177
S1132C0038BD01231374F2E70A4B984768602068C3
S1132C10436813B1084B984738BDFF23237138BD6F
S1132C20FA23037138BD00BFD9890000E92A0000E6
S1132C309989000035630000752B0000F8B504463F
S1132C40037F13F0020F06D1436A1B7C13F0040FB9
S1132C502BD0012500E00125EDB2606A037C816878
S1132C60266A3144C268921BB2F5803F1FD343F0F9
S1132C7002034FF6FF726068B0F86660B24235D95D
S1132C80BDB1C6B96FF00607002D31D0636ADB68A9
S1132C909E422DD2A36A1BB1324603212046984797
S1132CA0237F43F0100323770DE00025D4E792B28D
S1132CB0E1E743F002033246234FB8470746431C7B
S1132CC0DBB2012BE0D937BB236A1E442662636A58
S1132CD0DA68964200D01DB1DE600023236201252C
S1132CE060681A4B984725BB0020F8BD1646E2E7FA
S1132CF06368B3F8661040F66732914203D9B3F8BB
S1132D006830042BDFD9A36A002BDCD032460321C0
S1132D1020469847D7E7B7F1FF3F04D0636A002203
S1132D20DA600125DFE7002DF8D16068074B98478A
S1132D30D9E7636A1F7100236362637004F10C00B6
S1132D40034B9847D0E700BF2D7A0000E97E0000CE
S1132D50C1240000F8B50446436A1D7A05F0010752
S1132D6005F00206032D2CD06068037E012B2DD0C4
S1132D70002F2FD1002E35D1032D38D0032D40D074
S1132D803246394660682E4B9847002846D1626A1D
S1132D900023137163626370032D36D02FB1A36ACD
S1132DA01BB100221146204698472EB1A36A1BB1DD
S1132DB0002202212046984704F10C00214B984739
S1132DC0F8BD00214068204B9847CDE700211F4BF8
S1132DD09847D3E700211E4B9847002160681B4B9E
S1132DE09847C7E7002160681A4B9847C4E7042254
S1132DF000216068184B984700216068174B98477A
S1132E00BCE76068164B9847BFE76360A36A002B72
S1132E10C4D00022042120469847BFE711496068C6
S1132E200C4B98470422104960680B4B98470F4994
S1132E3060680A4B984721466068034B9847F8BD81
S1132E40B9600000C1240000C9590000DD59000028
S1132E50CD590000D3590000E1590000D7590000B2
S1132E605D5F0000C92E0000712E0000512A000091
S1132E7010B504464378012B1CD0042B1DD0237FAE
S1132E8013F0100F14D0626892B1B2F8660040F6E5
S1132E90673188420CD9B2F86820042A08D823F094
S1132EA010032377A36A1BB100220221204698470E
S1132EB0002010BD024B9847E1E7024B9847DEE73C
S1132EC03D2C0000552D000038B5044615464378C6
S1132ED0012B1AD0042B1BD0ACB163689BB1B3F89F
S1132EE0661040F6673291420DD9B3F86830042B6E
S1132EF009D8237F23F010032377A36A1BB12A4642
S1132F00022120469847002038BD034B9847E3E749
S1132F10024B9847E0E700BF3D2C0000552D000010
S1132F202DE9F04168B30746984614460D4600F172
S1132F3010063046174B984748B92CB321892846C8
S1132F40154B98472046154B9847002414E097F9F1
S1132F50083013F1090F01DB87F808807CB125895B
S1132F60214630460E4B9847044678B9BB6A1BB1DC
S1132F702A460021384698472046BDE8F0810025BE
S1132F80EEE76FF00504F7E70024F5E74FF0FF34B0
S1132F90F2E700BFB12600001D590000A154000053
S1132FA09D25000010B504460023037103685B6887
S1132FB023B120680C30034B984710BD024B98474F
S1132FC0F7E700BFC1240000C92B000070B5054617
S1132FD00E460720154B98470446D8B100210172CC
S1132FE00570416000F10C052846114B9847B0B9B3
S1132FF0102160180F4B984770B904F114000E4B60
S11330009847002363704FF0FF32A261A6626362A7
S113301023622377204670BD2846084B98472146F3
S11330200720074B98470024F4E700BFD551000060
S11330304924000045250000B5260000AD24000009
S1133040FD51000038B5044600F10C052846054B37
S113305098472846044B984721460720034B984736
S113306038BD00BFAD2400003D250000FD51000027
S113307070B582B0044600F110052846234B9847EA
S113308080B904F114052846204B984710BB3AE058
S1133090019E3EB1606810B131891D4B984730469E
S11330A01C4B984701A928461B4B9847B0F1FF3F9A
S11330B006D02378102BEBD00198184B9847F1E7F2
S11330C02846174B98472846164B9847D9E7204679
S11330D0154B984701A928460F4B9847B0F1FF3F7D
S11330E00BD0019C2046FFF7C3FF60680028EED098
S11330F00E4B984700236360E9E72846084B98473E
S11331002846084B984702B070BD00BFB1260000A6
S11331101D590000A1540000812600009D330000C9
S113312065250000B526000045300000BD610000A3
S113313010B504460068437863B1022B0AD0032B10
S113314008D0FB23237120680C301B4B98470028C0
S11331502DD110BD194B98472268516879B1137865
S113316003F0F003102B18D0202B05D10023CB61E2
S113317023685868124B9847236800225A602068D5
S1133180836A13B10022114698472068836A002B92
S1133190D9D0002202219847D5E704235370032392
S11331A0237223685C622068064B984710BD206830
S11331B00C30054B9847CCE73925000071300000EE
S11331C0A1890000552D0000C124000010B504465B
S11331D0036893F9082012F1090F10DBFA22027137
S11331E0586868B11B7803F0F003102B0DD0202B26
S11331F006D1A289A168084B9847207100E00271AA
S113320020680C30054B984710BDA289A168044B77
S113321098472071F4E700BFC1870000C124000073
S11332204D58000038B50446036893F9082012F19C
S1133230090F13DBF3220271586880B11B7803F085
S1133240F003202B0BD1A16811F1080201D08B6887
S113325053B90968074B9847207100E00271206850
S11332600C30054B984738BD8B890968034DA84736
S11332702071F4E785890000C12400005189000011
S113328070B506460023037103685A6812B11B78AF
S1133290102B04D030680C30094B984770BD8468FB
S11332A008E04FF6FF75336829465868054B984780
S11332B0641BEFD0B4F5803FF3D2A5B2F3E700BFAF
S11332C0C12400001D59000008B5036893F90820C3
S11332D012F1090F05DA027103F10C000E4B984745
S11332E008BD1A78102A02D0FA220271F4E75A783B
S11332F012B1FB220271EFE75A6852B101225A70EF
S113330003685862036800221A620068034B9847F6
S113331008BDF3220271DFE7C12400003D2C000048
S113332008B503685B68002B32D08268017CA9B1C0
S11333301B681360002303710268137803F0F00321
S1133340102B17D0202B1BD1037C53B953681A7C44
S113335012F0040F0AD1F323037111E05B681360C8
S1133360E8E7C3685268528A1A8009E0C2689B8AF7
S1133370138005E0C368017C39B15268528B1A800E
S113338000680C30044B984708BD5268928BF6E7EE
S1133390F3230371F4E700BFC124000068B110B542
S11333A00446006820B1054B9847002363602360FE
S11333B021460620024B984710BD7047A1540000D7
S11333C0FD51000048B110B50446006808B1034B34
S11333D0984700236360236010BDFEE7A1540000FA
S11333E0B0B170B5044615460E46006808B10B4BE3
S11333F09847022200210846094B9847206040B1B3
S1133400466023681D815D8123686360002070BD70
S1133410FEE7002363604FF0FF3070BDA15400004D
S11334200555000003280ED810B4084C43001918A1
S1133430CA001146224463581BB110465DF8044B80
S113344070470022F9E700221046704778150020E3
S11334500023032B2BDC30B403EB4304E200164CB3
S1133460A2583AB10133032BF6DD4FF0FF3318466F
S113347030BC704725465A001A44D4002A192851F2
S113348000245460148154810278102A0BD0012145
S113349058001844C400084A224491810021D18173
S11334A011615161E3E70029F2D00121F0E74FF007
S11334B0FF331846704700BF78150020002875D0E8
S11334C070B58669002E0DDB0C463046384B9847A4
S11334D00546002869D0042C0DD8DFE804F0081252
S11334E0171A1D00002960D1013E866170BDB0F934
S11334F00A30013343816B69002B56D02D4B1C6E6F
S113350015E0B0F90A30013B4381F4E701238381DC
S1133510F1E700238381EEE70123C381EBE7002B6E
S11335203CD1244B5A6E5B6E9A42E7D12468002C3E
S11335303BD06369002BF4D1B5F90A20002A0BDDD6
S1133540A2684AB1710952F8211006F01F00012245
S11335508240114200D00123AA8962B15BB9E268BA
S11335604AB1710952F8211006F01F00012282406D
S1133570114200D00123EA89002AD0D0002BCED1F9
S11335802269002ACBD0710952F8211006F01F00DD
S1133590012282401142C2D00123C0E701236361AA
S11335A004F11800044B9847BBE770BD704700BF97
S11335B02534000078150020C124000010B50168EE
S11335C043688268C468062B3ED040F6FF7083428D
S11335D005D05BB308680C30284B984710BD202AEF
S11335E005D041F20A039A4210D0082AF2D1236886
S11335F02BB10B685868037A1A430272EAE70B6826
S11336005868037A23EA02020272E3E7236833B1BB
S11336100B685A68137C43F001031374DAE70B68F0
S11336205A68137C03F0FE031374D3E7012A06D00F
S1133630022ACFD10B685B6822789A72CAE70B68BA
S11336405B6822785A72C5E7012A07D0022AC1D1E1
S11336500B685B682268C3F89020BBE7236833B12A
S11336600B685A68937F43F040039377B2E70B6883
S11336705A68937F23F040039377ABE7C12400009B
S113368070470000F0B583B00C461646164B9847B9
S113369038B30546102E00D0FEE76378022BFBD129
S11336A014F0030FF8D1636802AE46F8043D0768CE
S11336B060880E4B98470246314638460C4B984773
S11336C060B143420F2B07D80A4A52F823302B61CA
S11336D04FF0FF3003B0F0BD0523F8E70020286168
S11336E0F8E74FF0FF30F5E7253400009D3E000079
S11336F08D280000A8D300002DE9F04F8BB0019174
S11337001746984600230993814B9847002800F0F8
S1133710F98005464FF0000BDA460097C1467AE07F
S113372019F0080F04D12B681B7F13F0020F03D08C
S1133730B5F90A30002B0ADD28680378102B15D060
S113374009A9744B9847A8B9099B6B6067E0BAF163
S1133750000F06DD514628686F4B984700232B6104
S1133760CCE00B232B614FF0FF3AC7E009A96B4B68
S11337709847E8E7BAF1000F0DDC43420F2B11D84C
S1133780674A52F823302B6110F10C0F40F0BD80D2
S11337904FF0000AB2E0514628685F4B9847002377
S11337A02B61ABE00523EEE7DDF824803EE02646FE
S11337B045E04FF0010B5EE04FF0010B5BE04FF092
S11337C0010B58E04FF0010B55E04FF0010B52E0B4
S11337D000230DF1220203A9DFF85C81C0470DF13B
S11337E00C0859E0159B1A6804A914984D4B984786
S11337F019F0010F0CD12B681A78102A68D0002216
S11338006A602A811B78102B6BD00998464B984725
S1133810BBF1000F69D16B68002B81D009932B6831
S11338201B78102BC0D0099BD3F80080B8F808404F
S11338302B89E41AA4B20099A142B8D88EB23246B8
S1133840019951444046394FB8473746B244286835
S11338500378102BADD1009A921B0092ACD098F84B
S11338600D2012F0010FAAD1B5F90A20002AA9DD12
S113387019F0010FA9D1BBF1000FB9D0149A002A95
S1133880B6D0159A002AB3D0102BA1D0099B03F10E
S113389008089B89ADF8223000230493059306930E
S11338A0079310238DF8103002238DF81130BDF8E2
S11338B022001F4B9847ADF81200D8F8003005934A
S11338C0159B1B68102B8DD91023159A136089E75B
S11338D0E41B002C93DD099B6B602B891E442E8115
S11338E096E70998134B984792E7BAF1000F03DD66
S11338F051462868084B984700232B6150460BB06B
S1133900BDE8F08F4FF0FF3AF8E74FF0FF3AF5E7E4
S113391025340000D92800006D290000C1280000CA
S1133920A8D3000003C100009D33000089570000A4
S1133930913E0000A15400004D28000010B582B053
S1133940002401940094024CA04702B010BD00BFB3
S1133950F93600002DE9F04784B0814688461446C4
S11339609A460C9D0D9F294B9847002847D0064640
S113397003681B78102B05D01FFA84F95DB1102F52
S11339802FD0FEE75346224641464846204CA047E6
S113399004B0BDE8F087002FF1D100230193009318
S11339A035B36B68029368881A4B9847ADF80C00DE
S11339B04A4641466846184B9847054620B9694629
S11339C03068164B984705466846154B98476B4236
S11339D00F2B12D8134A52F82330336195B9A0B291
S11339E0D6E76B78022BCCD115F0030FD5D0C8E7FE
S11339F000230293ADF80C30DAE70523EDE74FF02E
S1133A00FF30C5E74FF0FF30C2E700BF25340000A8
S1133A10293A00009D3E0000E1330000A129000086
S1133A20C5330000A8D300002DE9F04184B08046DE
S1133A300E4617461D461F4B9847002833D00446B0
S1133A4003681B78102B1ED115F0100F25D003210D
S1133A5015F0080F23D0042304AA002042F8040D13
S1133A60206800920B433A463146134DA84743421F
S1133A700F2B16D8114A52F823302361B0B903989A
S1133A8004B0BDE8F0810023019300932B463A462D
S1133A90314640460A4CA047F2E70121D8E700230B
S1133AA0DAE70523E9E74FF0FF30E9E74FF0FF30AD
S1133AB0E6E700BF25340000D1290000A8D30000A8
S1133AC05539000038B51346022918D0032904D00B
S1133AD001291FD04FF0FF340FE0184AD9B240201B
S1133AE0174B9847054635B300212846154B984790
S1133AF00446B0F1FF3F1AD0A861204638BD882A99
S1133B0006D020200D4A00210D4B98470546EAE7D0
S1133B102120F7E7094A00211020094B9847054660
S1133B200028E0D0037F43F008030377DBE728464F
S1133B30054B9847E1E74FF0FF34DEE7BD34000062
S1133B40C1270000513400001D280000F0B587B0E3
S1133B500C4617461E463E4B9847002874D005462F
S1133B6026B3062C51D040F6FF739C4223D0002C80
S1133B7043D05C23002B60D10095019402970396F7
S1133B800CAA04928DF81430012269463148324B54
S1133B909847286800210C30304B98479DF9143021
S1133BA02B61002B4DD1002007B0F0BD0E23036123
S1133BB04FF0FF30F8E7202F07D041F20A039F426D
S1133BC008D0082F01D05C23D4E70C9B032B2AD9FF
S1133BD00023CFE70C9B032B06D900232A68117816
S1133BE0202903D06123C5E71623F7E75268127C26
S1133BF012F0020FBED06123BCE77B1E012B14D848
S1133C000C9B032B13D90023B4E70C9B032B10D973
S1133C1003681B78102B01D00020C5E77B1E012B05
S1133C2009D80023A6E71623A4E75C23A2E71623FA
S1133C30A0E716239EE75C239CE72B614FF0FF303F
S1133C40B2E74FF0FF30AFE74FF0FF30ACE700BF13
S1133C5025340000BD3500008D3D0000D92400004E
S1133C6000B583B0294B1B683BB1284A506898477C
S1133C7003E0986850F8043B984701A92448254B71
S1133C809847019B1A78052AF7D801A151F822F028
S1133C90733C0000A93C0000CD3C0000E13C000066
S1133CA0F33C0000033D0000D96891F82D2012F088
S1133CB0600F07D09868184B984701990920174B53
S1133CC09847DAE79868164B9847F6E71A69D9686F
S1133CD09868144B984701990820104B9847CCE7F3
S1133CE01969D868104B9847019908200B4B9847DD
S1133CF0C3E79A68D868904701990820074B98470A
S1133D00BBE79A68D8689047B7E700BFE015002082
S1133D10E81500203585000075910000FD51000074
S1133D201143000091830000E584000070B506464D
S1133D300D461148114B9847B8B10920104B9847CC
S1133D400446A8B1012303708660C56001460A4891
S1133D500C4B9847034608B9184670BD2146092004
S1133D60094B98474FF0FF33F6E76FF00503F3E78D
S1133D704FF0FF33F0E700BFE8150020B126000044
S1133D80D55100009D250000FD510000F8B50746FF
S1133D900E4615461448154B9847F0B10820144BAD
S1133DA098470446E0B1042303708760C6603DB9B8
S1133DB001460D480F4B9847034638B91846F8BDDD
S1133DC0014609480C4B98470023F7E72146082091
S1133DD00A4B98474FF0FF33F0E76FF00503EDE728
S1133DE04FF0FF33EAE700BFE8150020B1260000DA
S1133DF0D55100009D25000079250000FD510000EB
S1133E0030B587B004460C480C4B984780B1002568
S1133E108DF80450039401A90748094B984760683A
S1133E2029460C30074B984794F9080007B030BD79
S1133E306FF00500FAE700BFE8150020B126000086
S1133E4079250000D924000030B583B005460C461E
S1133E50094B984709480560446010210830084B15
S1133E609847012300934FF48363002205490648D1
S1133E70064CA04703B030BDCD3E0000E015002045
S1133E8045250000613C0000E8D30000BD26000089
S1133E90030A43EA002080B27047000008B5014BD2
S1133EA0984708BD913E0000030203F47F0343EAF0
S1133EB00063020A02F47F42134343EA106070472E
S1133EC008B5014B984708BDA93E000008B5084B4A
S1133ED09847084B9847084B9847084B9847084B16
S1133EE09847084B9847084B9847084B984708BD94
S1133EF0312400000D4F00006D51000015520000E8
S1133F0081360000F5850000495800007D840000DA
S1133F102DE9F04385B080468946154600222421C8
S1133F200120224B984700283DD00646D8F804705B
S1133F30446884F800906570002525716571A57149
S1133F40E571D0F804C0D8F80430D3F800E058681C
S1133F509968D3F80C80CCF808E0CCF80C00CCF8C5
S1133F601010CCF81480D3F810E058699969CCF893
S1133F7018E0CCF81C00CCF82010A570E57071890D
S1133F8020460B4B98476080FB6804AA42F8043D26
S1133F90012301930095FF2329463046054CA04791
S1133FA03046054B984705B0BDE8F0830555000041
S1133FB041420000AD450000A15400002DE9F0434A
S1133FC085B005460F464668317801F00F01890037
S1133FD00FFA81F849420CB22146494B9847D0B9AF
S1133FE02B89032B17D96B681B78082B76D1454B8B
S1133FF0186800F0F003E02B13D04FF001093946A4
S1134000414B984708B14FF00009B9F1000F0BD0AC
S11340102B89072B0CD828463C4B984705B0BDE8A4
S1134020F0834FF00009EAE72846384B9847F5E754
S11340302846374B984768B924212846304B98477F
S113404030B3414628462E4B984738B128462F4B6B
S11340509847E3E728462D4B9847DFE70022298954
S113406002202C4B984781460028EFD029462A4B42
S113407098470028EAD1D9F8046021464846204BE5
S113408098470028E2D12846204B98474D4606E041
S11340906FF0230128461A4B98470028D6D16A6846
S11340A0184B1B68F3601D4B1B68336100231370AE
S11340B053884FF6F6718B4214D909335380FF238A
S11340C033720023B372F37214213046144B9847B1
S11340D07081414628460A4B984730B128460B4B1D
S11340E098479BE708335380E9E70297012301933C
S11340F000220092FF23034928460A4CA047EDE71B
S113410027540000A8290120ED450000A154000017
S11341105142000005550000E5560000A029012089
S113412041420000B944000008B50A460321014B8E
S1134130984708BD113F000008B50A460B21014B02
S1134140984708BD113F000010B483B00023ADF8B8
S1134150063010F0010407D0994208DD431C0278B0
S11341608DF80720013900E00346002205E00346EC
S1134170FBE718880244023902330129F9DC0029DB
S113418002DD1B788DF80630BDF80600024490B2BB
S113419000EB124290B200EB124024B103029BB236
S11341A0C0F30720184380B203B05DF8044B704796
S11341B02DE9F8430546894690461E4600273C46AD
S11341C000E02D68A5B1698968681B4B98470444D1
S11341D0A0B200EB14446B8913F0010FF1D0C7F1C6
S11341E00107FFB223029BB2C4F307241C43E8E790
S11341F027B123029BB2C4F307241C43D9F800302F
S113420014FA83F404EB1344D8F8000014FA80F48D
S113421004EB10443046094DA8470444BDF820007F
S1134220A847204483B203EB104398B200EB134039
S1134230C04380B2BDE8F88349410000913E0000CC
S113424008B5024B9847C04380B208BD49410000FD
S113425070B505460026344600E02D68A5B169898D
S113426068680E4B9847204484B204EB10446B8971
S113427013F0010FF1D0C6F10106F6B223029BB28E
S1134280C4F307241C43E8E726B123029BB2C4F31A
S113429007241C43E04380B270BD00BF49410000C5
S11342A0194B1B680EE0194A106838B190F82D209C
S11342B012F0010F02D1184600E018465DF8044BD5
S11342C070471B68A3B193F82D2012F0010FF8D0AA
S11342D010B402685C68996862400A42EDD01B68B9
S11342E0002BE0D093F82D2012F0010FF7D0F0E767
S11342F0064A10680028E3D090F82D2012F0010F30
S1134300DED11846704700BFC4610120C861012096
S11343102DE9F041054647683B781A09042A04D080
S1134320564B98470020BDE8F0810E4603F00F037A
S11343309C007888524B984780466B899C4202D8EF
S11343402B89984203D928464C4B9847EAE72146E3
S113435038464C4B984768B9414628464A4B9847DB
S11343603A694A4B1A60FA68494B1A6034464FF06E
S113437001080DE02846414B9847D3E7B8F1000FF8
S11343804FD0444B1C684FF00008B4424BD09CB152
S113439094F82D3013F0010FF0D014F1040FEDD088
S11343A06368002BEAD0394A1068834204D021465E
S11343B0394B98470028E1D03146354B1868364BC5
S11343C09847002831D1324B1B6803F0F003E02BEF
S11343D02BD0002C2DD0FB8823F0C0039BB2002BE4
S11343E02BD12E4B1E602E4B1F607B7A062B3BD0AD
S11343F0112B2BD0012B3CD03146244B1868264B73
S1134400984750B9214B1B6803F0F003E02B04D00C
S11344106F6002212846234B98472846174B98473C
S113442018E02468B1E72468B1E72846134B98479D
S113443078E72846114B984774E728461A4B984763
S1134440054600283FF46EAF4768CAE73146284660
S1134450164B98470023114A1360114A13600C4A03
S113446013600A4A13605DE731462846104B9847AB
S1134470F0E7314628460F4B9847EBE7A15400007C
S11344809D3E0000414200002D560000A829012055
S1134490A0290120C4610120ED450000A4290120C8
S11344A0AC290120294100002D4B0000F9850000B2
S11344B069730000BD3F00002DE9F04F83B006464C
S11344C09DF830A09DF834B00E9F002A55D089463F
S11344D01C4690461421314B984700285AD17568E0
S11344E02C7285F809B044EA0B24D8F8000028613E
S11344F014FA80F404EB104445232B7085F801A0D2
S11345004FEA0A2A4AEA030A54443089DFF894A09D
S1134510D047688004440023AB71EB71DFF888B0A6
S1134520BBF80000D047A8800444BBF80030013336
S1134530ABF80030B9F1000F02D0D9F80030D3B98C
S11345407B68EB60E86814FA80F303EB104083B2F5
S113455003EB104303EB1343DB436B81BB8C13B1BD
S11345603289934210D37B69424631463846984794
S113457003B0BDE8F08FEB60E4E743681B690DF11D
S1134580080848F8043DE9E7424639463046044BFA
S11345909847EDE76FF00100EAE700BF27540000F9
S11345A0E14C0000913E0000EC150020F0B585B010
S11345B005460E4614461F4610460A4B984770B1EE
S11345C002909DF82C3001939DF8283000933B46CF
S11345D0224631462846044CA04705B0F0BD6FF092
S11345E00300FAE7A1420000B9440000431E13F19E
S11345F0030F11D891F82D3013F0020F0ED04B6831
S113460098420DD08A68434013420BD1D24332EA18
S1134610000309D000207047012070470020704734
S113462000207047002070470120704770B584B0A7
S113463005460C4603786E463BE06A1C6B78782B83
S113464004D0582B02D0154608213AE0AB78023545
S1134650102136E0102923D1A3F16102D2B2052A38
S113466004D9A3F14102D2B2052A19D8000103F1F9
S11346700A02613BDBB2192B10D86123D21A104312
S113468015F8013FA3F13002D2B2092AE2D800FBA7
S11346900133A3F1300015F8013FF3E74123EDE7BF
S11346A02E2B10D103AB9E424BD230606B78043674
S11346B00135A3F13002D2B2092A40D8302BBCD044
S11346C00A210020DEE76BB1202B0BD00C2B09D084
S11346D00A2B07D00D2B05D0092B03D00B2B01D0AF
S11346E000232FE06B46F31A9B100133042B0AD8E6
S11346F0DFE803F02809030F1900B0F1807F24D20A
S1134700009B40EA036034B3144B984720600123B4
S113471018E0B0F5803F1AD2019B1B04009A43EACB
S113472002631843EFE7FF2813D8019B1B04009A88
S113473043EA0263029A43EA02231843E3E70023AD
S113474000E00023184604B070BD0023FAE70023FC
S1134750F8E70023F6E70123F4E700BFA93E0000D1
S11347602DE9F04383B0894603680DF1080E4EF835
S1134770043D0F4600263046032838D800259EF80D
S11347800040204BA3FB0413DB0803EB83084FEA30
S1134790480CA4EB0C04E4B2DBB28EF8003005F153
S11347A0010C5FFA8CF130340DF1080C654405F806
S11347B0084C0D46002BE2D14B1EDBB259B1741CE0
S11347C0964219DA02A9CD1815F8085C3D70264600
S11347D019460137F0E7731C964211DA2E243C7017
S11347E00EF1010E0130C0B21E460137C4E70023AA
S11347F007F8013C484600E0002003B0BDE8F08320
S11348000020FAE7CDCCCCCC08B5074B1B6883421B
S113481006D003680B6001460420044B984708BD8A
S11348200268014B1A60F6E7F0150020FD51000004
S11348302DE9F04107468846446863689A8812B1B6
S113484000257C6825E01B6843600346626853F8D2
S1134850081F5E689D68D868116056609560D060D6
S11348601969116101212046104B98472046104BCD
S1134870984785B220460F4B9847E2E763681E6865
S113488020460B4B98470544ADB22046094B984748
S11348903446002CF2D141463846074B9847074A24
S11348A093885B1B93802846BDE8F0813941000062
S11348B085560000A154000009480000F0150020AE
S11348C02DE9F04105468846002628E09A69D5F886
S11348D010E072450FD1B3F80CE0AA8896450AD1CE
S11348E000E018461A6882B1194613467BB1EA689B
S11348F05F699742EAD001340028F2D093F81FE0B0
S1134900C27F9645EED81846ECE70B46ECE710B1AB
S1134910074B98470644464507DA012C05DD054B4D
S11349201B68002421462046E0E73046BDE8F081BC
S113493031480000F015002008B501460520014B60
S1134940984708BDFD51000010B50446406908B100
S1134950024B98472046024B984710BDA1540000D3
S1134960394900002DE9F04107460E464C6860883D
S1134970DFF80881C047257805F00F05A0EB850511
S1134980ADB2E088C047C0F30C00C100D6F804C043
S113499000248CF800408CF801408CF802408CF81C
S11349A00340ACF8041005EB010E1FFA8EFEACF8C0
S11349B006E07D68012025E0CCF80050F4B1E288DF
S11349C091423ED39B889E453BD8266065B3BB7F0E
S11349D013F0010F43D0002848D07B685B689B88A4
S11349E0002B3FD1DCF800204AB35368BCF8061012
S11349F09A88914239D11A689C46F5E77E60E5E7CA
S1134A001D681C46002DE1D06B689A889142D3D36F
S1134A10914216D0DD88A94213D3002CF0D0E4884B
S1134A20A242EDD00020EBE73CB12660E288BCF85E
S1134A3004309A42CBD00020C9E77E60C7E7BDE8C6
S1134A40F08130460A4B984780B20A4A9388181A74
S1134A5090803046084B98470020BDE8F081002044
S1134A60BDE8F0810020BDE8F0810020BDE8F081C0
S1134A7085560000F0150020A15400009D3E000062
S1134A8008B50520014B984708BD00BFD55100006B
S1134A9070B505460E460420144B98470446B0B141
S1134AA0202200212046124B98470323E377114B21
S1134AB01A6822601C602A686E68A868E968A260A7
S1134AC0E660206161612A69A261204670BD3146B9
S1134AD02846094B9847864202DD002CE0D1F4E7D2
S1134AE00420024B98470446F7E700BFD551000065
S1134AF019C10000F0150020C148000038B5094B69
S1134B001868002404E005682146074B98472846A6
S1134B1038B1C37F002BF6D0013BC377044600684D
S1134B20F6E738BDF0150020314800002DE9F047C4
S1134B30814645682B7803F00F03052B25D1E888BF
S1134B405B4CA047C0F30C004FEAC00A6888A0473A
S1134B502F7807F00F07A0EB8707BFB24846554BE5
S1134B6098478046544B9B8803440A2B03DC524BE2
S1134B701C68002611E001462846504B984720B196
S1134B804D4B9B8843440A2BF1DD48464C4B9847D8
S1134B904FF0000885E0264624685CB16269EB6842
S1134BA09A42F8D1A2692B699A42F4D1A289AB88BE
S1134BB09A42F0D1002C4CD0E8883D4B9847C0F382
S1134BC00C0000284DD03C4B9A889044A3F80480F4
S1134BD0EB8813F0200F05D1A37F43F00103A377E3
S1134BE05744A78349462046364B984700285BD054
S1134BF0A38B1433A38363685F683D68234653F82B
S1134C00082FD3F804E09868D9683A60C7F804E03C
S1134C10B860F9601A693A61A08B2B4B9847788089
S1134C200023BB71FB71BB72FB7214213846274B06
S1134C3098477881D4F804803DB36F686FF013010E
S1134C402846234B984729464046224B98473D68BF
S1134C50F2E741462846204B984704460028B2D143
S1134C6093E7E089124B9847C0F30C000028AAD0C0
S1134C702A68D5F804E0A868E968A260C4F80CE0E2
S1134C80206161612A69A2619DE731462046134B88
S1134C9098474046074B984780B2074A9388181AAA
S1134CA090804046BDE8F0874FF00008F9E700BF68
S1134CB09D3E000085560000F0150020C14800000C
S1134CC0A154000065490000913E000041420000EB
S1134CD027540000A1560000914A00000948000032
S1134CE02DE9F04F8DB005460A910B928C8CD0F8CB
S1134CF004A0BAF80600614B9847C0F30C03049370
S1134D0000F400530993B5F80890A9F114091FFAA7
S1134D1089F9A4F114030693002B05DBC3F3CF0335
S1134D200893002414268AE00733F7E7CDF814909B
S1134D30002214210220524B98470390002800F0CF
S1134D4099804368DAF80020DAF80470DAF8080089
S1134D50DAF80C101A605F609860D960DAF81020F5
S1134D601A61039BD3F804B06B6833446B606B899E
S1134D709E1B6E81059E1DE0424B9847074618B363
S1134D806B68019400930346022221460320DFF856
S1134D901481C0478046F8B128463B4B98477D6153
S1134DA03A4B3B6141460398394B9847361BB6B2A0
S1134DB006B12D68CEB16C89B44228BF3446A4B282
S1134DC0002CD9D12D68F5E70398324B98474FF062
S1134DD0FF300DB0BDE8F08F38462F4B984703984D
S1134DE02C4B98474FF0FF30F3E707982B4EB04712
S1134DF0ABF80600059F07F1140080B2B047ABF88A
S1134E00020000238BF80A308BF80B30142158462B
S1134E10234B9847ABF80A000A9843690B9A039E00
S1134E203146984730461B4B9847A9EB07091FFAB0
S1134E3089F9049B089A13449BB204932646B9F15A
S1134E40000F15D04B46049AC2F30C0209990A4389
S1134E5007920699494502DA42F400520792069AEB
S1134E609A42BFF663AF089BDB009BB205935FE7F2
S1134E700020AEE74FF0FF30ABE700BF9D3E0000DF
S1134E8005550000814A000097560000494900007A
S1134E90A1560000A154000039490000913E0000D1
S1134EA041420000C953000010B4174B1B6801882D
S1134EB05A1890420FD014796CB9134C6468A2420A
S1134EC009D0114CA468A24218D05A5A02805A5AE6
S1134ED01A44C11A518041885A1890420BD014794F
S1134EE04CB9094CA468A0420BD004885C520188D8
S1134EF01944D31A4B805DF8044B7047024A906002
S1134F00E3E7014CA260F0E7F815002010B50B4B65
S1134F1023F003030A4803604FF460541C8000220A
S1134F205A801A711A194260012111711480548037
S1134F3083600C30034B984710BD00BFB329012098
S1134F40F815002049240000F8B138B504460F4A8A
S1134F501268904203D30D4A5268904200D338BD80
S1134F600A4D002105F10C00094B9847A4F10800F3
S1134F70002304F8043CAB68984200D2A860054BB7
S1134F8098470548054B9847E9E77047F81500200E
S1134F90D9240000A94E000004160020C1240000FA
S1134FA02DE9F0410546CC1CA4B224F00304A4B2BC
S1134FB00B2C00D80C24B4F5605F60D8324B1B680E
S1134FC0AB4237D8304A5268954233D2A5F108072C
S1134FD0FF1ABFB235F8086CF61BB6B2083EB6B27B
S1134FE0B4424ED826D0DFF8A080002108F10C008E
S1134FF0264B9847D8F8002035F8083CD118087992
S1135000F8B9D05AE3199BB208339BB2D8F80840D8
S1135010A14212D0D11800240C71D0524F8025F82F
S1135020083CD15AB1F5605F01D00A445380184856
S1135030184B98472846BDE8F081D118C8F80810E5
S1135040E8E704F11403B342F1D8E3199BB208333F
S11350509BB2D1180C488068814201D20A48816011
S11350600020087135F8080CD0524F8025F8083C10
S1135070D15AB1F5605FDAD00A445380D7E70025EE
S1135080D8E70025D6E700BFF8150020D924000092
S113509004160020C124000000285BD038B5054662
S11350A00335ADB225F00305ADB20B2D00D80C25A8
S11350B0B5F5605F50D8294C002104F10C00284B51
S11350C098472168A3685B1A9BB219E001232371F6
S11350D0224B9B689C4209D02248234B984704F1F9
S11350E0080038BD1D4A12681B8813441A791AB186
S11350F01A4A52689342F5D1184A9360ECE7238820
S1135100C5F56052934220DACC182279002AF6D1F0
S1135110CA5AD21A083A2846AA42F0D31430824214
S1135120D4D3EA1892B2083292B2881800250571D5
S113513025888D5243802280012323718B5AB3F535
S1135140605FC5D019444A80C2E70648064B9847B9
S1135150002038BD00207047002038BDF81500201D
S1135160D924000004160020C124000030B4002318
S113517001E001339BB20C2BFBD9134921F003014D
S1135180002515E0114A02EB8002D2F894440C6029
S1135190C2F894140E4A32F81020114401339BB221
S11351A00B4A02EB4002928B9342EBD30135ADB232
S11351B00C2D07D82846054A02EB85020023C2F8C5
S11351C09434EDE730BC70470B160020D87B0020E8
S11351D0F8D300000C2800D9FEE7074B03EB80034B
S11351E0D3F894342BB11968034A02EB8002C2F855
S11351F094141846704700BFD87B002039B1044B83
S113520003EB8000D0F894340B60C0F8941470471A
S1135210D87B00207047000070B504460D4609B3E2
S11352200A6843689A421DD0114B186803E0C668A7
S1135230104B9847304628B1026863689A42F6D00A
S1135240C068F8E70C4B1B6800E0DB6853B1002B27
S1135250FBD01A68002AF8D061688A42F5D12A681E
S11352601A60F2E715B12B68636070BD0023FBE799
S1135270D4610120BD610000DC61012011B10B6823
S1135280C36070470023FBE711B10B68836070476C
S11352900023FBE770B5044616461D46054B9847A8
S11352A031462046044B984729462046034B9847ED
S11352B070BD00BF19520000895200007D520000E9
S11352C0F8B50446002545608560C56080F82D501A
S11352D0C561069D05620B4E35786F1C377080F8EA
S11352E03050089D0561084DA8472046079B984704
S11352F028B9064B1A6822601C602046F8BD0020BD
S1135300F8BD00BFA080002095520000C4610120B8
S1135310014B1860704700BFC861012090F82D3020
S113532013F0010F16D110B5044643F0010380F8C1
S11353302D30C36903B1984794F82D3013F0100F42
S113534002D013F0200F00D110BD211D2046024BC6
S11353509847F9E7704700BF518E000008B5084B25
S11353601A780121197002B108BD11460548064B8F
S113537098470028F8D00022014B1A70F4E700BFC8
S1135380CC610120BD5300008D3D000010B500220A
S1135390074B1A70074B1C6844B1606F08B9E46886
S11353A0FAE7054B98470023636710BD10BD00BFA3
S11353B0CC610120D46101208159000008B5014B62
S11353C0984708BD8D53000070B4039C032826D869
S11353D0DFE800F002080406382004E0102002E0B0
S11353E0002000E02420033020F003050D44BDF824
S11353F01060B54215DC00251D606CB120F003007F
S11354002044586002205873198159811A7301226B
S1135410DA81184670BC704700205860F2E700201B
S1135420F8E70020F6E7002932D00B46002831D0F7
S113543010B400290DDB8CB2027B41687AB1032AD7
S11354400DD0013A92B2012A26D8002B10DB01209C
S11354501BE04C42A4B242899442EDD9FEE7CA1A39
S1135460426000F11004A24207D2416001200CE026
S11354704289944212D8C91A41609BB242891A44A3
S1135480428102891344038100205DF8044B704774
S113549000207047002070470120F6E70120F4E760
S11354A038B540B30146002405E00B690846984727
S11354B00134E4B22946F9B1CB89013B9BB2CB81DB
S11354C0BBB90D680B7B4A7B12F0020FEDD1032BA5
S11354D007D0013B9BB2012B07D90846074B9847DD
S11354E0E6E70C20064B9847E2E70B20044B98476D
S11354F0DEE70021DFE70024204638BD494F0000E5
S1135500FD5100002DE9F041032800F28380DFE81B
S113551000F002080406382404E0102402E0002409
S113552000E0242416460D46032A75D8DFE802F06D
S1135530466565020C20394B98470746002833D04E
S113554006730023036004F110030344033323F0C0
S1135550030343600581C4F5BD640434AC42A8BFB1
S11355602C46A4B244810123C3812D1B8046002D07
S11355703CDD0C20294B98470446C0B10673002338
S113558043730360C8F80000ABB2038140F2EC52ED
S1135590934228BF1346438100F110024260012266
S11355A0C281ED1A8046E2E71D4B984722E01C4B6E
S11355B0984738461B4B984727461BE004F11000D8
S11355C0CB1C9BB223F00303184480B2164B9847BC
S11355D0074678B104F110030344033323F00303B3
S11355E04360058145810023036006730123FB8129
S11355F000237B733846BDE8F0810B20074B9847A6
S113560007460028F6D000234360058145810360E6
S11356100673EBE70027EDE70027EBE7D551000021
S11356205D530000A15400009950000038B50446B1
S11356300089884220D90D4606E0EB1A9DB20B1A68
S1135640228913442381246863899D42F5D8227BEF
S113565052B99D4208D063681B1B15FA83F189B2C5
S11356602046064B9847044665812581206808B189
S1135670034B98470023236038BD00BFA14F0000AF
S1135680A1540000002302E00133DBB200680028CB
S1135690FAD11846704710B1C3890133C3817047EA
S11356A018B1034609B110B405E0FEE70A891C8964
S11356B022441A81034618680028F7D10A891889F8
S11356C002441A8119605DF8044B704710B50C460A
S11356D0024B98472046024B984710BDA156000044
S11356E09756000000284CD02DE9F0410C460546A1
S11356F019B102890B899A4200D2FEE74FF00008E3
S1135700474610E0DB1B9EB215E06B899F4225D013
S11357101CB1628923899A4228D01DB16A892B89D8
S11357209A4227D054B36B89D81B6289A2EB080133
S11357308842E7DB8EB26868616832464144384487
S1135740104B98473744BFB246441FFA86F8638922
S11357509845DAD324684FF00008D6E72D680DB1D8
S11357600027D5E70CB90027D2E7FEE72368002B12
S1135770D3D0FEE72B68002BD4D0FEE70020BDE891
S1135780F081FEE703C1000038B12DE9F0410F4676
S11357909046054611B1002615E0FEE7FEE76A894A
S11357A0D21A94B2A04500D24446696822461944EC
S11357B0B8190C4B98472644B6B2A8EB04041FFA58
S11357C084F800232D68B8F1000F08D03DB1002BF8
S11357D0E5D06A899342E2D39B1A9BB2F2E7304642
S11357E0BDE8F08103C1000010B4002214490B8805
S11357F0581C08804FF6FF718B4203D14FF440418F
S11358000F4B19800023032B04D90D4B18885DF826
S1135810044B70470B4951F82310096811B901333F
S1135820DBB2F0E74C8B06480088844206D1013293
S113583092B2B2F5804FD9D30020E8E7C968EDE70A
S11358403C00002030D4000070470000037E03B108
S1135850FEE770B504460D463AB1002103291EDC6B
S11358601B4B53F821301B6808E01A4B984702463B
S11358700028F2D16FF0010070BDDB686BB1588B6A
S11358808242FAD1C3B11E68CEB1DDB12868E0B15D
S11358908642F2D16FF0070070BD0131DEE715B129
S11358A02B6803B1236062830B4B1A68E2601C60AF
S11358B00A4B9847002070BD6FF0070070BD6FF071
S11358C0070070BD6FF0070070BD6FF0070070BD7A
S11358D030D40000E9570000E4610120FD8300009A
S11358E070B4856A848D2A19016BC38E40F66836BC
S11358F0B34200D933460B44D31A002B03DBC485CF
S1135900501A70BC70476B1A002B03DD0022C2854D
S11359101046F6E7491BC1850020F2E710B504469E
S1135920838D194489B2818541F2D063994200D9AB
S113593083852046074B984740F2B353984200DCD6
S113594010BDA37F43F00203A3772046024B984780
S1135950F6E700BFE1580000E97E000050B110B541
S11359600446406808B1044B984721460320034B82
S1135970984710BD704700BFA1540000FD510000BE
S113598038B110B50468034B98472046002CF9D170
S113599010BD70475D59000038B505460320084B1B
S11359A09847044650B128686968AA68EB68206083
S11359B06160A260E3606068024B9847204638BD8E
S11359C0D55100009756000001617047C0F880105F
S11359D07047C1677047C0F88C10704741617047C9
S11359E0C0F8881080F8202070470000037EE3B1DF
S11359F00A2B1AD0012B18D070B50446806F18B149
S1135A000A4B98470023A367606F094EB0470025EF
S1135A1065674FF6FF73A386E06EB047206FB0470B
S1135A20E5662567A4F86A5070BD7047A15400006C
S1135A30815900002DE9F04182B0A24A1368013374
S1135A401360A14A137801331370A04B1C6800261D
S1135A5000E0E468002C00F0318194F821209A4B96
S1135A601B789A42F5D084F82130237E022B1FD074
S1135A7094F846200C2A56D094F89550F5B194F831
S1135A8094300133DBB284F89430691E904A0A449E
S1135A90127C934255D3002384F89430062D02D807
S1135AA0013584F8955020468A4B984700253BE001
S1135AB094F84620062ADBD1012535E0B4F93410E8
S1135AC0002901DB0131A186216F69B3B4F93400E7
S1135AD0B4F94410884227DB022B0BD0B4F94010F0
S1135AE0B4F9423003EBE10379490A44127E93404E
S1135AF0A4F844300023A386B4F86030B4F84C20F2
S1135B00934228BF13465B08A4F84E30E28EB3EBF1
S1135B10420F02DA5300A4F84E30A4F84C20204679
S1135B206D4B984700E00125237E062B0BD0227A8B
S1135B3012F0080F3FD0042B12D0072B10D00027EF
S1135B403AE00025F0E7A27F12F0100FEFD0616A6F
S1135B505C4A1268521A282AE9D90135EDB2E6E7FF
S1135B60584B1A68636AD21AD4F8901001F52423AA
S1135B7003F6B8435948A0FB0303B2EB531F03D900
S1135B800135EDB2012717E094F89630544800FB34
S1135B9003135249A1FB0313B2EB531F01D800278F
S1135BA00AE020464F4B984794F89630013384F826
S1135BB09630002700E00027606F50B1414B1A680F
S1135BC0636AD21AB4F9443003EB430359008A429E
S1135BD024D2237E032B26D0092B2DD0002D34D1A3
S1135BE0E568E37F0133DBB2E37794F82020934246
S1135BF061D30023E3773C4A1370D4F88830002B38
S1135C0051D0214620699847374B1B78002B7FF4ED
S1135C101CAF002849D026462C461BE7334B984737
S1135C2000236367D5E7616A264A1268521A282A54
S1135C30D2D90135EDB2CFE7626A224B1B689B1AB9
S1135C40F02BCBD90135EDB2C8E72046284B984755
S1135C50D6B1E368F360DFB9D4F88C50D4F810807F
S1135C60E76821460120234B984700221E4B1A70F7
S1135C701DB16FF009014046A8471B4B1B78002B50
S1135C807FF4E3AE3C46E5E6E268104B1A60E2E7D7
S1135C90A16A206DA38B0193638B0093231D22467D
S1135CA0154DA847D8E70020AEE72046134B984788
S1135CB026462C46CEE626462C46CBE6104B1D68DF
S1135CC024E000BFD8610120A1800020D46101201C
S1135CD030D40000C182000069810000D34D6210FD
S1135CE0F824010055820000D06101208159000090
